:100000000C942A000C9447000C9447000C94470071
:100010000C9447000C9447000C9447000C94470044
:100020000C9447000C9447000C9447000C94470034
:100030000C9447000C9447000C9447000C94470024
:100040000C94F1020C9447000C9447000C94470068
:100050000C94470011241FBECFE5D8E0DEBFCDBF12
:1000600010E0A0E6B0E0ECE1F8E102C005900D92EE
:10007000A437B107D9F712E0A4E7B0E001C01D92A0
:10008000AB38B107E1F70E94FF0A0C940C0C0C94FA
:10009000000091B5987F91BD91B5982B91BD81B528
:1000A000886081BD089588E181BD11BC089581B546
:1000B000886081BD81B5887F81BD81B581BD81B5F5
:1000C000886081BDFFCF413061F1413090F48130D3
:1000D00009F452C0813008F071C02AB381E090E089
:1000E00002C0880F991F6A95E2F7809582238ABB28
:1000F0000895423009F00895813071F1813008F09F
:1001000047C03AB381E090E002C0880F991F6A951A
:10011000E2F7282F209523232ABB2BB3822B8BBBFE
:100120000895813071F0813008F059C02AB381E020
:1001300090E002C0880F991F6A95E2F7282B2ABB2E
:10014000089527B381E090E002C0880F991F6A9557
:10015000E2F7282B27BB089537B381E090E002C077
:10016000880F991F6A95E2F7282F2095232327BB34
:1001700028B3822B88BB089527B381E090E002C0AA
:10018000880F991F6A95E2F78095822387BB0895AF
:10019000823009F44BC0833009F0ADCF31B381E038
:1001A00090E002C0880F991F6A95E2F7282F2095EA
:1001B000232321BB22B3822B82BB0895823051F1CD
:1001C000833009F098CF21B381E090E002C0880F1E
:1001D000991F6A95E2F78095822381BB089582304A
:1001E00071F0833009F087CF21B381E090E002C045
:1001F000880F991F6A95E2F7282B21BB089524B335
:1002000081E090E002C0880F991F6A95E2F7282BE1
:1002100024BB089524B381E090E002C0880F991FA9
:100220006A95E2F78095822384BB089534B381E018
:1002300090E002C0880F991F6A95E2F7282F209559
:10024000232324BB25B3822B85BB0895813059F02D
:10025000813028F0823049F0833019F008956ABB6C
:10026000089561BB089567BB089564BB0895442356
:1002700059F48130B9F1813048F1823009F460C01D
:10028000833009F43BC008954130E9F7813009F427
:100290004CC0813080F0823009F43CC0833099F743
:1002A00022B381E090E002C0880F991F6A95E2F7BF
:1002B000282B22BB08952BB381E090E002C0880F69
:1002C000991F6A95E2F7282B2BBB08952BB381E089
:1002D00090E002C0880F991F6A95E2F7809582230B
:1002E0008BBB089528B381E090E002C0880F991F6E
:1002F0006A95E2F78095822388BB089522B381E056
:1003000090E002C0880F991F6A95E2F780958223DA
:1003100082BB089525B381E090E002C0880F991F49
:100320006A95E2F7282B25BB089528B381E090E079
:1003300002C0880F991F6A95E2F7282B28BB089501
:1003400025B381E090E002C0880F991F6A95E2F71B
:100350008095822385BB0895813059F0813028F043
:10036000823049F0833019F008956BBB089562BB69
:10037000089568BB089565BB08958130D1F0813040
:1003800030F08230F9F0833059F080E0089589B37D
:1003900090E002C0959587956A95E2F7817008957F
:1003A00080B390E002C0959587956A95E2F78170D9
:1003B000089586B390E002C0959587956A95E2F717
:1003C0008170089583B390E002C0959587956A95F2
:1003D000E2F781700895813061F0813030F0823031
:1003E00051F0833021F080E0089589B3089580B3FF
:1003F000089586B3089583B308958130E9F081307C
:1004000028F0823021F1833061F008952BB381E030
:1004100090E002C0880F991F6A95E2F728272BBB4E
:10042000089522B381E090E002C0880F991F6A9579
:10043000E2F7282722BB089528B381E090E002C0AC
:10044000880F991F6A95E2F7282728BB089525B3DE
:1004500081E090E002C0880F991F6A95E2F7282793
:1004600025BB0895813079F0813028F0823079F011
:10047000833029F008958BB380958BBB089582B3A8
:10048000809582BB089588B3809588BB089585B315
:10049000809585BB08956295607F8130A9F0813099
:1004A00028F08230C1F0833041F008958BB38F7013
:1004B0008BBB8BB3682B6BBB089582B38F7082BBF1
:1004C00082B3682B62BB089588B38F7088BB88B3F2
:1004D000682B68BB089585B38F7085BB85B3682B87
:1004E00065BB08956F708130A9F0813028F08230AB
:1004F000C1F0833041F008958BB3807F8BBB8BB309
:10050000682B6BBB089582B3807F82BB82B3682B5C
:1005100062BB089588B3807F88BB88B3682B68BBB3
:10052000089585B3807F85BB85B3682B65BB08952F
:100530003F983E9A3D9886B1887F86B986B187609C
:1005400086B93598379A3398089597B1907E97B9C0
:1005500097B1982B97B9369A0895DF93CF9300D02F
:10056000CDB7DEB71A8219820AC089819A8186398D
:10057000910560F489819A8101969A83898386B175
:10058000829586958695837080FDEFCF89819A81CB
:100590008639910540F424B135B1C9010F900F900F
:1005A000CF91DF91089520E030E0C9010F900F90C6
:1005B000CF91DF910895379A08953798089580B7BD
:1005C0008F7180BF80B780BF359A089535980895A0
:1005D000339A08953398089590937500809374002A
:1005E00008951F920F920FB60F9211242F933F93ED
:1005F0004F935F936F937F938F939F93AF93BF932B
:10060000EF93FF93E0917400F0917500309719F02B
:1006100084B195B10995FF91EF91BF91AF919F91F1
:100620008F917F916F915F914F913F912F910F909B
:100630000FBE0F901F901895DF93CF9300D0CDB7CA
:10064000DEB797B1907E97B997B1982B97B9369A44
:100650001A8219820AC089819A818639910560F4CB
:1006600089819A8101969A83898386B1829586953C
:100670008695837080FDEFCF89819A8186399105B7
:1006800058F484B195B196958795969587950F9076
:100690000F90CF91DF91089580E00F900F90CF9150
:1006A000DF910895DF93CF9300D0CDB7DEB797B138
:1006B000907E97B997B1982B97B9369A1A8219827A
:1006C0000AC089819A818639910560F489819A816D
:1006D00001969A83898386B18295869586958370E3
:1006E00080FDEFCF89819A818639910540F424B14C
:1006F00035B1C9010F900F90CF91DF91089520E09F
:1007000030E0C9010F900F90CF91DF91089583E001
:1007100063E040E00E9437018AE18A95F1F783E0C7
:1007200063E041E00E943701089583E062E041E028
:100730000E9437018AE18A95F1F783E062E040E0A8
:100740000E94370108950F931F93182F482F441FBD
:100750004427441F83E061E00E943701110F83E0CA
:1007600060E041E00E9437010AE1802F8A95F1F7AD
:1007700083E060E040E00E943701802F8A95F1F726
:10078000412F441F4427441F83E061E00E9437014A
:10079000110F83E060E041E00E943701802F8A95CD
:1007A000F1F783E060E040E00E943701802F8A95F6
:1007B000F1F7412F441F4427441F83E061E00E946A
:1007C0003701110F83E060E041E00E943701802F84
:1007D0008A95F1F783E060E040E00E943701802FC6
:1007E0008A95F1F7412F441F4427441F83E061E0BD
:1007F0000E943701110F83E060E041E00E94370161
:10080000802F8A95F1F783E060E040E00E94370195
:10081000802F8A95F1F7412F441F4427441F83E01E
:1008200061E00E943701110F83E060E041E00E9427
:100830003701802F8A95F1F783E060E040E00E9465
:100840003701802F8A95F1F7412F441F4427441F19
:1008500083E061E00E943701110F83E060E041E036
:100860000E943701802F8A95F1F783E060E040E035
:100870000E943701802F8A95F1F7412F441F4427AA
:10088000441F83E061E00E94370183E060E041E0C3
:100890000E943701802F8A95F1F783E060E040E005
:1008A0000E943701802F8A95F1F7110F111F112730
:1008B000111F83E061E0412F0E94370183E060E077
:1008C00041E00E943701802F8A95F1F783E060E0D4
:1008D00040E00E9437010A95F1F71F910F910895AA
:1008E0000F931F9383E065E00E94BD01182F83E002
:1008F00064E041E00E9437010AE1802F8A95F1F718
:1009000083E064E040E00E943701802F8A95F1F790
:1009100083E065E00E94BD01179511271795829528
:10092000880F880F807C182B83E064E041E00E94F0
:100930003701802F8A95F1F783E064E040E00E9460
:100940003701802F8A95F1F783E065E00E94BD01B1
:100950008295880F807E182B83E064E041E00E943E
:100960003701802F8A95F1F783E064E040E00E9430
:100970003701802F8A95F1F783E065E00E94BD0181
:100980008295807F182B83E064E041E00E9437016C
:10099000802F8A95F1F783E064E040E00E94370100
:1009A000802F8A95F1F783E065E00E94BD01880FF2
:1009B000880F880F182B83E064E041E00E94370124
:1009C000802F8A95F1F783E064E040E00E943701D0
:1009D000802F8A95F1F783E065E00E94BD01880FC2
:1009E000880F182B83E064E041E00E943701802FDC
:1009F0008A95F1F783E064E040E00E943701802FA0
:100A00008A95F1F783E065E00E94BD01880F182BFD
:100A100083E064E041E00E943701802F8A95F1F77E
:100A200083E064E040E00E943701802F8A95F1F76F
:100A300083E065E00E94BD01182B83E064E041E0A3
:100A40000E943701802F8A95F1F783E064E040E04F
:100A50000E9437010A95F1F7812F1F910F91089598
:100A600083E064E041E00E94630083E063E041E0F2
:100A70000E94630083E065E040E00E94630083E041
:100A800064E040E00E94370183E063E040E00E94C0
:100A90003701089583E060E041E00E94630083E055
:100AA00062E041E00E94630083E061E041E00E9477
:100AB000630083E060E040E00E94370183E062E091
:100AC00040E00E94370183E061E040E00E9437018E
:100AD000089567E040E00E943701089567E041E033
:100AE0000E94370108956FEF0E94AC0108957F9234
:100AF0008F929F92AF92BF92CF92DF92EF92FF922E
:100B00000F931F93CF93DF93762EC72EF82EE92EE7
:100B1000D42E052FA82EBB24E501C90FD11DC93045
:100B2000D1050CF052C0AC16BD0664F4182F8C2D04
:100B3000612F40E00E9437011F5F812F90E08C17EA
:100B40009D07ACF32E2D2F0D122F1150812F9927B9
:100B500087FD90958A159B05C4F1C0E0D0E0225036
:100B600080E9882E81E0982EE22EFF24E7FCF094A5
:100B70000894E11CF11C8D2D902F6AE070E00E941A
:100B8000230BFC01E659FF4F872D60810E94AC01C9
:100B90008D2D902F6AE070E00E94230BD62E072F38
:100BA0008C2D612F41E00E943701C4010197F1F7BC
:100BB0008C2D612F40E00E94370111502196C70112
:100BC0008C1B9D0B8A159B05B4F6DF91CF911F916D
:100BD0000F91FF90EF90DF90CF90BF90AF909F90DC
:100BE0008F907F9008956A3008F00895E62FF0E026
:100BF000E659FF4F60810E94AC010895FF920F9368
:100C00001F93CF93DF93F62E072F282F30E0E901B3
:100C1000C90FD11DC930D1059CF42C173D0764F4D0
:100C2000182F802F612F41E00E9463001F5F812FEA
:100C300090E08C179D07ACF38F2D6FEF0E9426017B
:100C4000DF91CF911F910F91FF9008956FEF0E9458
:100C5000260108952F923F924F925F926F927F925A
:100C60008F929F92AF92BF92CF92DF92EF92FF92BC
:100C70000F931F93DF93CF93CDB7DEB727970FB6B0
:100C8000F894DEBF0FBECDBF10928500BB2481E07B
:100C9000682E712C2B2D332727FD30953C832B8319
:100CA000C3010B8002C0880F991F0A94E2F7809558
:100CB0009095AA2797FDA095BA2F809387029093CD
:100CC0008802A0938902B0938A0210927B0010924E
:100CD0007C0010927D0010927E00009164001091C3
:100CE000650080918000882E992480918601E82FEC
:100CF000F0E0FA83E983C301082C02C0880F991F32
:100D00000A94E2F71C01442437FC4094542C40E040
:100D100050E060E070E01F821E82A02E1D83AE8135
:100D20000115110549F1C3010A2E02C0880F991F50
:100D30000A94E2F76C01EE24D7FCE094FE2C20E04C
:100D400030E005C02F5F3F4F20173107A8F4F901AD
:100D5000E957FE4F80818A17A9F7F901EA57FF4F3B
:100D60008081B81679F74C295D296E297F292F5F7C
:100D70003F4F2017310758F32E813F81821693068B
:100D800009F49DC0AA2309F48AC0AF3009F487C0D2
:100D9000BB2009F484C0FFE0BF1609F480C02E8197
:100DA0003F812F5F3F4F3F832E832031310509F074
:100DB000B6CF40937B0050937C0060937D0070938E
:100DC0007E00A09283003D813093840088E0809370
:100DD0007F0028E08091870290918802A09189028B
:100DE000B0918A0204C0B695A795979587952A95E4
:100DF000D2F70E94A30320917F00285020937F0008
:100E000027FFE8CF98E090937F0028E080917B0057
:100E100090917C00A0917D00B0917E0004C0B695B9
:100E2000A795979587952A95D2F70E94A3032091BD
:100E30007F00285020937F0027FFE8CF0E94950372
:100E400060916600709167008091680090916900E0
:100E50004091770050E00E947705B0908500B394F0
:100E6000B0928500EFE0EB150CF014CF27960FB68B
:100E7000F894DEBF0FBECDBFCF91DF911F910F91D0
:100E8000FF90EF90DF90CF90BF90AF909F908F90AA
:100E90007F906F905F904F903F902F900895C30187
:100EA0000E8002C0880F991F0A94E2F7AA2797FDC7
:100EB000A095BA2F482B592B6A2B7B2B70CF8B8197
:100EC0009C81E981FA818E179F0709F05BCF422947
:100ED00053296429752956CF0F931F93CF93DF931E
:100EE00020918701332727FD30958091800090E085
:100EF0002817390709F490C060916400709165006B
:100F000020917600222341F1CB0101979093840038
:100F100080938300892BA1F0CB010297FC01E95754
:100F2000FE4FDC01AA57BF4F808181838C911196BF
:100F30008C9311973197119781E0E638F807A1F764
:100F4000223009F45BC0233008F4F7C0233009F4E1
:100F500014C1243009F402C14091870147FD57C0F4
:100F600040310CF441C01092870140E081E090E0F4
:100F700090938400809383006230710520F19091FA
:100F8000860050917A0021E030E005C02F5F3F4F8E
:100F90002617370790F4F901E957FE4F808148176B
:100FA000A9F7F901EA57FF4F8081981779F751E0C7
:100FB0002F5F3F4F2617370770F350937A007093D7
:100FC000840060938300442339F04F3029F08091EE
:100FD0008600882309F0BAC081E080937A00DF910F
:100FE000CF911F910F9108958091860087FDCBC00E
:100FF00080310CF4BBCF10928600B8CF809187016E
:101000008F5F809387014091870147FFA9CF8FE0D1
:10101000809387014FE0AACF20918600332727FDD8
:1010200030958091860190E02817390709F064CF48
:101030008091640090916500019690936500809383
:101040006400809177008F5F809377001092820018
:1010500001E0009381000E94880BAA2797FDA095CC
:10106000BA2FBC01CD012EE030E040E050E00E94FC
:10107000040B3FE096958795779567953A95D1F75C
:101080006F5F609380000E94880BAA2797FDA09550
:10109000BA2FBC01CD012EE030E040E050E00E94CC
:1010A000040B2FE096958795779567952A95D1F74C
:1010B000962F9F5F90938601109182001F5F10937F
:1010C00082001092840010928300609164007091FD
:1010D00065006115710509F44BC080918000A82F4F
:1010E000B0E020E030E040E050E0C92FD0E007C0A1
:1010F000A9014F5F5F4F46175707B0F59A01F901F5
:10110000E957FE4F8081992787FD90958A179B07A5
:1011100079F7F901EA57FF4F8081992787FD90956C
:101120008C179D0729F750938400409383001092F9
:1011300081001B3008F48DCFE3CE213009F00CCFB5
:101140008091870181508093870106CF8F3009F409
:1011500043CFDF91CF911F910F9108958091860029
:101160008F5F80938600F8CE509384004093830075
:10117000809181008823E9F2C3CE8091860081505E
:1011800080938600E9CE8FE080938600EFCE83E0E7
:1011900063E00E94BD01882341F480917600843091
:1011A00021F083E080937600089583E064E00E945C
:1011B000BD01882341F480917600833021F084E0E2
:1011C00080937600089583E065E00E94BD01882346
:1011D00041F480917600823021F081E080937600A6
:1011E000089583E066E00E94BD01882339F4809170
:1011F0007600813019F082E08093760008950E9495
:10120000980280E00E9452030E948D0B0E94DD0232
:10121000609166007091670080916800909169000C
:101220000E94FE0583E063E042E00E94630083E0E9
:1012300064E042E00E94630083E065E042E00E94D7
:10124000630083E066E042E00E9463000E944A057A
:101250008AE08093870187E08093860081E090E0B8
:1012600090938400809383004091640050916500C6
:1012700042305105B0F021E030E097E0F901E95744
:10128000FE4F822F865F8083F901EA57FF4F9083DC
:101290002F5F3F4F2417350788F350938400409306
:1012A000830086E08093800087E080938601089524
:1012B0002F923F924F925F926F927F928F929F9266
:1012C000AF92BF92CF92DF92EF92FF920F931F9354
:1012D000DF93CF93CDB7DEB727970FB6F894DEBF75
:1012E0000FBECDBF80917A00882309F024C141E070
:1012F000642E712C83E063E00E94BD01882309F015
:1013000052C180917600843009F44DC183E080930E
:1013100076008091780090E02091790044E150E0DF
:10132000421B5109841795076CF010927800809148
:10133000770080937900853118F054E1509379005B
:101340000E946C0710928500BB248B2D992787FD86
:1013500090959C838B83C3010B8002C0880F991FDB
:101360000A94E2F780959095AA2797FDA095BA2F49
:101370008093870290938802A0938902B0938A0297
:1013800010927B0010927C0010927D0010927E00E3
:10139000009164001091650080918000882E99244E
:1013A00080918601E82FF0E0FA83E983C301082CDD
:1013B00002C0880F991F0A94E2F71C01442437FCED
:1013C0004094542C40E050E060E070E01F821E82A8
:1013D000A02E1D83AE810115110549F1C3010A2E0E
:1013E00002C0880F991F0A94E2F76C01EE24D7FC23
:1013F000E094FE2C20E030E005C02F5F3F4F201727
:101400003107A8F4F901E957FE4F80818A17A9F73F
:10141000F901EA57FF4F80818B1579F74C295D2937
:101420006E297F292F5F3F4F2017310758F32E81F8
:101430003F818216930609F4A9C0AA2309F496C035
:10144000AF3009F493C0BB2009F490C0FFE0BF1691
:1014500009F48CC02E813F812F5F3F4F3F832E8345
:101460002031310509F0B6CF40937B0050937C00CA
:1014700060937D0070937E00A09283003D81309345
:10148000840048E040937F0028E08091870290919B
:101490008802A0918902B0918A0204C0B695A795EE
:1014A000979587952A95D2F70E94A30320917F00F4
:1014B000285020937F0027FFE8CF58E050937F000B
:1014C00028E080917B0090917C00A0917D00B091FC
:1014D0007E0004C0B695A795979587952A95D2F773
:1014E0000E94A30320917F00285020937F0027FFB4
:1014F000E8CF0E949503609166007091670080912B
:101500006800909169004091770050E00E94770553
:10151000B0908500B394B09285008FE08B150CF0ED
:1015200014CF809178008F5F8093780080917A004B
:10153000882309F4DFCE0E94570027960FB6F8944F
:10154000DEBF0FBECDBFCF91DF911F910F91FF90F6
:10155000EF90DF90CF90BF90AF909F908F907F9053
:101560006F905F904F903F902F900895C3010E8031
:1015700002C0880F991F0A94E2F7AA2797FDA09549
:10158000BA2F482B592B6A2B7B2B64CF8B819C81E4
:10159000E981FA818E179F0709F04FCF422953291D
:1015A000642975294ACF83E064E00E94BD01882345
:1015B00041F480917600833021F084E080937600BE
:1015C000A8CE83E065E00E94BD01882341F48091AC
:1015D0007600823021F021E0209376009ACE83E0DD
:1015E00066E00E94BD01882309F093CE80917600C9
:1015F000813009F48ECE32E0309376008ACE0E949C
:10160000FF080E945809FFCF629FD001739FF0012D
:10161000829FE00DF11D649FE00DF11D929FF00D82
:10162000839FF00D749FF00D659FF00D9927729FB9
:10163000B00DE11DF91F639FB00DE11DF91FBD0144
:10164000CF0111240895AA1BBB1B51E107C0AA1F9B
:10165000BB1FA617B70710F0A61BB70B881F991F53
:101660005A95A9F780959095BC01CD010895A0E009
:10167000B0E0EDE3FBE00C94BB0BEC01A880B9807B
:10168000CA80DB80A114B104C104D10441F484E216
:10169000A82E89EDB82E8BE5C82E87E0D82EC6017E
:1016A000B5012DE133EF41E050E00E94980B27EAAD
:1016B00031E440E050E00E94040B7B018C01C60144
:1016C000B5012DE133EF41E050E00E94980BCA01D3
:1016D000B9012CEE34EF4FEF5FEF0E94040B6E0D5B
:1016E0007F1D801F911F97FF04C061507040804094
:1016F0009048688379838A839B839B013F77C901E4
:10170000CDB7DEB7EAE00C94D70B0E94370B0895F3
:1017100080E690E00E94370B0895A0E0B0E080934F
:10172000600090936100A0936200B09363000895FD
:1017300097FB092E05260ED057FD04D04BD00AD0BA
:10174000001C38F450954095309521953F4F4F4FF0
:101750005F4F0895F6F790958095709561957F4F4E
:101760008F4F9F4F08952F923F924F925F926F92AB
:101770007F928F929F92AF92BF92CF92DF92EF9221
:10178000FF920F931F93CF93DF93CDB7DEB7CA1BA2
:10179000DB0B0FB6F894DEBF0FBECDBF09942A88CD
:1017A000398848885F846E847D848C849B84AA8475
:1017B000B984C884DF80EE80FD800C811B81AA8102
:1017C000B981CE0FD11D0FB6F894DEBF0FBECDBFCD
:1017D000ED010895A1E21A2EAA1BBB1BFD010DC04D
:1017E000AA1FBB1FEE1FFF1FA217B307E407F507D1
:1017F00020F0A21BB30BE40BF50B661F771F881FAD
:10180000991F1A9469F760957095809590959B0142
:0C181000AC01BD01CF010895F894FFCF9A
:10181C0001000000020002010002C0F9A4B099927C
:04182C0082F880902E
:00000001FF
