:100000000C942A000C9447000C9447000C94470071
:100010000C94E20C0C940B0D0C9447000C944700CC
:100020000C9447000C9447000C94710E0C949A0E9B
:100030000C9447000C940B0B0C9447000C94BF0AD3
:100040000C9472110C9447000C9447000C944700D8
:100050000C94470011241FBECFE5D8E0DEBFCDBF12
:1000600012E0A0E6B0E0EEE9F1E302C005900D92E7
:10007000A236B107D9F712E0A2E6B2E001C01D92A4
:10008000AB3AB107E1F70E9429180C94CD180C94F3
:100090000000EF92FF920F93DF93CF93CDB7DEB7BF
:1000A00060970FB6F894DEBF0FBECDBFA82F002318
:1000B00009F461C07E010894E11CF11C88E0F7019D
:1000C00011928A95E9F729833A834B835C836D8388
:1000D0007E83AF83988780E2801BE82FFF27E7FDB0
:1000E000F09549815A816B817C81181684F01986BC
:1000F0001A861B861C86882799278E1B9F0B04C097
:10010000440F551F661F771F8A95D2F728C0202FEE
:10011000332727FD3095DB01CA01022E04C0880F6A
:10012000991FAA1FBB1F0A94D2F789879A87AB87AA
:10013000BC8704C07695679557954795EA95D2F7A1
:100140008D819E81AF81B88504C0880F991FAA1F39
:10015000BB1F2A95D2F7482B592B6A2B7B2B4D8737
:100160005E876F87788B29853A854B855C856D85A1
:100170007E85AF8598898A2F60960FB6F894DEBF8A
:100180000FBECDBFCF91DF910F91FF90EF900895FB
:10019000EF92FF920F931F937B018C0120E030E0E0
:1001A00040E05FE40E94F80588238CF0C801B701A5
:1001B00020E030E040E05FE40E94C4030E94B60605
:1001C0009B01AC01205030404040504806C0C8015F
:1001D000B7010E94B6069B01AC01B901CA011F918B
:1001E0000F91FF90EF900895A0E0B0E0EAEFF0E00B
:1001F0000C9496187B018C0120E030E040E85FE32E
:100200000E94280688234CF4AA24BB24CC24DD2495
:10021000EE24FF2400E010E086C0C801B70120E012
:1002200030E040E85FE40E942806882354F4C801C7
:10023000B7010E94C8005B016C01EE24FF24870116
:1002400072C0C801B70120E030E040E85FE50E94DD
:10025000280687FD0FC0AA24AA94BB24BA94CC24F4
:10026000CA94DD24DA94EE24EA94FF24FA940FEF82
:100270001FEF59C0C801B70120E030E040E85FE25D
:100280000E9422047B018C0122243324210190E16D
:10029000A92EB12CC12CD12CC0E0D0E061E070E0DF
:1002A00080E090E00A2C04C0660F771F881F991F1A
:1002B0000A94D2F70E940A073B014C01C801B7011A
:1002C000A40193010E94F805882364F02A283B28A2
:1002D0004C285D28C801B701A40193010E941C05A8
:1002E0007B018C01D694C794B794A7942196C5300E
:1002F000D105A1F6C801B70120E030E040E85FE495
:100300000E9422040E94C8005B016C019B01A601AF
:1003100060E070E080E090E0022D0E944900590109
:100320006A017B018C019501A601B701C801CDB717
:10033000DEB7E2E10C94B218A2E0B0E0E2EAF1E04C
:100340000C949618122FB32EA42E952E862E372E8F
:10035000282E9A83C22ED32EE42EF52EA7019601C5
:1003600060E070E080E090E02117A1F43B1591F48B
:100370004A1581F4591571F4681561F4731551F437
:10038000821541F4AA819A1729F4C701B6010E9487
:100390000A07AAC0212F3B2D4A2D592D682D732DF8
:1003A000822D9A8100E20E948307C901DA01803020
:1003B000E0E09E07E1E0AE07E0E0BE0780F48F3F9B
:1003C0009105A105B10531F028F028E030E040E0CA
:1003D00050E016C020E030E040E050E011C0803036
:1003E000F0E09F07F0E0AF07F1E0BF0728F028E159
:1003F00030E040E050E004C020E130E040E050E078
:10040000022E04C0B695A795979587950A94D2F7C2
:10041000FC01E45AFE4F808129013A01480E511C2B
:10042000611C711C4982212F3B2D4A2D592D682DAD
:10043000732D822D9A81042D0E948307C901DA0150
:100440004C015D0180E290E08419950904C0CC0C58
:10045000DD1CEE1CFF1C8A95D2F7C114D104E10407
:10046000F10441F081E090E0A0E0B0E0882A992A10
:10047000AA2ABB2A90E2491651046104710459F476
:100480000F2EF0E0EF2EF0E0FF2EF0E80F2FFFE44C
:100490001F2FF02D21C0AFE14A16510461047104F1
:1004A00059F40F2EF0E0EF2EF0E0FF2EF0E00F2FCA
:1004B000FFE41F2FF02D10C061E070E080E090E0BD
:1004C000098004C0660F771F881F991F0A94D2F70E
:1004D0000E9458067B018C01C501B4010E940A07E5
:1004E000A80197010E9422042296E2E10C94B2181E
:1004F000A0E0B0E0EEE7F2E00C949618DC012B01EE
:10050000FA019C91923008F439C1EB018881823064
:1005100008F433C1943069F4843009F02FC1119686
:100520009C9111978981981709F428C1A4E5B1E03D
:1005300025C1843009F421C18230A9F4923009F038
:100540001DC19A01AD0188E0EA010990AE01E901FF
:1005500009929E018150C1F7E201898111969C9117
:100560008923818308C1923009F407C112962D9026
:100570003C901397EB018A819B811496AD90BD90BE
:10058000CD90DC901797EC80FD800E811F8191014A
:10059000281B390BB90137FF04C066277727621B78
:1005A000730B603271050CF061C0121613066CF506
:1005B00037014801062E04C0969487947794679477
:1005C0000A94D2F721E030E040E050E004C0220F6E
:1005D000331F441F551F6A95D2F7215030404040C9
:1005E00050402E213F214023512321153105410543
:1005F000510521F021E030E040E050E079018A012E
:10060000E628F728082919293CC0232BD1F1260E0A
:10061000371E35014601062E04C0969487947794C0
:1006200067940A94D2F721E030E040E050E004C043
:10063000220F331F441F551F6A95D2F721503040B7
:10064000404050402A213B214C215D21211531059C
:100650004105510521F021E030E040E050E0590132
:100660006A01A628B728C828D9280BC08215930587
:100670002CF01C01AA24BB24650103C0EE24FF2436
:10068000870111969C91D20111968C91981709F4CB
:1006900045C0992339F0A80197012A193B094C0953
:1006A0005D0906C0A60195012E193F09400B510BAB
:1006B00057FD08C01182338222822483358346830A
:1006C00057831DC081E08183338222828827992746
:1006D000DC01821B930BA40BB50B84839583A6834B
:1006E000B7830DC0220F331F441F551F248335834A
:1006F00046835783828193810197938382832481E8
:10070000358146815781DA01C9010197A109B109F3
:100710008F5F9F4FAF4FBF4328F30BC0918333824E
:100720002282EA0CFB1C0C1D1D1DE482F58206834F
:10073000178383E08083248135814681578157FF69
:100740001AC0C901AA2797FDA095BA2F8170907091
:10075000A070B0705695479537952795822B932BAF
:10076000A42BB52B84839583A683B7838281938141
:10077000019693838283DF0101C0D201CD01CDB701
:10078000DEB7E2E10C94B218A0E2B0E0EAECF3E0EC
:100790000C94A21869837A838B839C832D833E8378
:1007A0004F835887E9E0EE2EF12CEC0EFD1ECE01B2
:1007B0000196B7010E9426098E010F5E1F4FCE01E0
:1007C0000596B8010E9426098A8991E089278A8BBB
:1007D000C701B801AE01475E5F4F0E9478020E94D8
:1007E0005108A096E6E00C94BE18A0E2B0E0EBEF52
:1007F000F3E00C94A21869837A838B839C832D8306
:100800003E834F835887F9E0EF2EF12CEC0EFD1E4E
:10081000CE010196B7010E9426098E010F5E1F4F7F
:10082000CE010596B8010E942609C701B801AE01A4
:10083000475E5F4F0E9478020E945108A096E6E052
:100840000C94BE18A0E2B0E0E8E2F4E00C94961834
:1008500069837A838B839C832D833E834F83588760
:10086000CE010196BE01675F7F4F0E942609CE012F
:100870000596BE016F5E7F4F0E94260999859230D2
:1008800088F089898230C8F0943019F4823051F4AC
:1008900004C0843029F4923081F484E591E0C6C02C
:1008A000923049F420E09A858A89981321E02A87BA
:1008B000CE010996BBC0823049F420E09A858A892E
:1008C000981321E02A8BCE014196B0C02D843E843E
:1008D0004F8458886D887E888F88988CEE24FF24FA
:1008E0008701AA24BB24650140E050E060E070E08D
:1008F000E0E0F0E0C10181709070892BE9F0E60C36
:10090000F71C081D191D9A01AB012A0D3B1D4C1D3A
:100910005D1D80E090E0A0E0B0E0E614F70408057B
:10092000190520F481E090E0A0E0B0E0BA01A9014F
:10093000480F591F6A1F7B1FAA0CBB1CCC1CDD1C57
:1009400097FE08C081E090E0A0E0B0E0A82AB92AB4
:10095000CA2ADB2A3196E032F10549F0660C771C91
:10096000881C991C5694479437942794C3CFFA85D2
:10097000EA892B893C898B859C85280F391F2E5F3E
:100980003F4F17C0CA0181709070892B61F0169596
:100990000795F794E79480E090E0A0E0B0E8E82ABB
:1009A000F92A0A2B1B2B76956795579547952F5F4C
:1009B0003F4F77FDE7CF0CC0440F551F661F771FD1
:1009C00017FD4160EE0CFF1C001F111F215030402D
:1009D000403090E0590790E0690790E4790760F3B0
:1009E0002B8F3C8FDB01CA018F779070A070B070A5
:1009F00080349105A105B10561F447FD0AC0E114F9
:100A0000F1040105110529F0405C5F4F6F4F7F4FE6
:100A100040781A8EFE1711F081E08A8F4D8F5E8F1D
:100A20006F8F78A383E0898FCE0149960E94510889
:100A3000A096E2E10C94B218A8E1B0E0E2E2F5E0A1
:100A40000C949E1869837A838B839C832D833E83C9
:100A50004F835887B9E0EB2EF12CEC0EFD1ECE0132
:100A60000196B7010E9426098E010F5E1F4FCE012D
:100A70000596B8010E9426092985223008F47EC017
:100A80003989323010F4B8017CC08A859A89892767
:100A90008A87243011F0223031F4231709F06EC018
:100AA00064E571E06EC0343039F41D861E861F8601
:100AB000188A1C861B8604C0323021F484E08987A2
:100AC000B7015FC02B853C858B899C89281B390B1E
:100AD0003C872B87ED84FE840F851889AD88BE88FE
:100AE000CF88D88CEA14FB040C051D0540F4EE0CED
:100AF000FF1C001F111F215030403C872B8720E036
:100B000030E040E050E080E090E0A0E0B0E460E061
:100B100070E0EA14FB040C051D0540F0282B392B6E
:100B20004A2B5B2BEA18FB080C091D09B695A79503
:100B300097958795EE0CFF1C001F111F6F5F7F4F6D
:100B40006F31710531F7DA01C9018F779070A070AC
:100B5000B07080349105A105B10561F427FD0AC08C
:100B6000E114F1040105110529F0205C3F4F4F4FBE
:100B70005F4F20782D873E874F87588BBE01675F78
:100B80007F4FCB010E9451086896EAE00C94BA1896
:100B9000A8E1B0E0EEECF5E00C94A21869837A834A
:100BA0008B839C832D833E834F83588789E0E82E77
:100BB000F12CEC0EFD1ECE010196B7010E94260914
:100BC0008E010F5E1F4FCE010596B8010E942609C7
:100BD0008985823040F08989823028F0C701B801C8
:100BE0000E949E0901C08FEF6896E6E00C94BE1843
:100BF000A8E1B0E0EEEFF5E00C94A21869837A83E7
:100C00008B839C832D833E834F83588789E0E82E16
:100C1000F12CEC0EFD1ECE010196B7010E942609B3
:100C20008E010F5E1F4FCE010596B8010E94260966
:100C30008985823040F08989823028F0C701B80167
:100C40000E949E0901C08FEF6896E6E00C94BE18E2
:100C5000A8E1B0E0EEE2F6E00C94A21869837A8392
:100C60008B839C832D833E834F83588789E0E82EB6
:100C7000F12CEC0EFD1ECE010196B7010E94260953
:100C80008E010F5E1F4FCE010596B8010E94260906
:100C90008985823040F08989823028F0C701B80107
:100CA0000E949E0901C081E06896E6E00C94BE189F
:100CB000A8E0B0E0EEE5F6E00C949F189B01AC01D3
:100CC00083E08983DA01C9018827B7FD83959927D5
:100CD000AA27BB27B82E211531054105510519F466
:100CE00082E089833AC08823A9F0203080E0380769
:100CF00080E0480780E8580729F460E070E080E071
:100D00009FEC30C0EE24FF248701E21AF30A040BA3
:100D1000150B02C079018A018EE1C82ED12CDC822C
:100D2000CB82ED82FE820F831887C801B7010E9433
:100D3000020801971816190684F4082E04C0EE0C58
:100D4000FF1C001F111F0A94D2F7ED82FE820F8351
:100D50001887C81AD90ADC82CB82BA82CE010196E2
:100D60000E9451082896E9E00C94BB18ACE0B0E072
:100D7000ECEBF6E00C94A61869837A838B839C8352
:100D8000CE010196BE016B5F7F4F0E9426098D81C7
:100D9000823061F1823050F1843021F48E818823D9
:100DA00051F12EC02F81388537FD20C06E812F3143
:100DB00031051CF06623F9F023C08EE190E0821B20
:100DC000930B29853A854B855C8504C056954795DC
:100DD000379527958A95D2F76623B1F050954095BF
:100DE000309521953F4F4F4F5F4F0EC020E030E0D0
:100DF00040E050E009C02FEF3FEF4FEF5FE704C046
:100E000020E030E040E050E8B901CA012C96E2E071
:100E10000C94C218A8E0B0E0E0E1F7E00C949E1852
:100E20007B018C01611571058105910519F482E042
:100E3000898360C083E089838EE1C82ED12CDC8257
:100E4000CB82ED82FE820F831887C801B7010E9412
:100E50000208FC013197F7FF3BC0222733272E1BE6
:100E60003F0B57016801022E04C0D694C794B79473
:100E7000A7940A94D2F740E050E060E070E081E08F
:100E800090E0A0E0B0E004C0880F991FAA1FBB1F2C
:100E90002A95D2F70197A109B1098E219F21A0239C
:100EA000B1230097A105B10521F041E050E060E0D9
:100EB00070E04A295B296C297D294D835E836F830D
:100EC00078878EE190E08E1B9F0B9C838B8312C0F2
:100ED000309781F00E2E04C0EE0CFF1C001F111F76
:100EE0000A94D2F7ED82FE820F831887CE1ADF0AAA
:100EF000DC82CB821A82CE0101960E94510828968C
:100F0000EAE00C94BA18EF92FF920F93DF93CF931D
:100F1000CDB7DEB760970FB6F894DEBF0FBECDBF7A
:100F2000A82F002309F461C07E010894E11CF11C84
:100F300088E0F70111928A95E9F729833A834B8378
:100F40005C836D837E83AF83988780E2801BE82F6C
:100F5000FF27E7FDF0954D815E816F81788518163A
:100F600084F01D861E861F86188A882799278E1B67
:100F70009F0B04C076956795579547958A95D2F74C
:100F800028C0202F332727FD3095DB01CA01022E10
:100F900004C0B695A795979587950A94D2F78D8743
:100FA0009E87AF87B88B04C0440F551F661F771FFD
:100FB000EA95D2F789819A81AB81BC8104C0B6954C
:100FC000A795979587952A95D2F7482B592B6A2B89
:100FD0007B2B49875A876B877C8729853A854B8588
:100FE0005C856D857E85AF8598898A2F60960FB662
:100FF000F894DEBF0FBECDBFCF91DF910F91FF9070
:10100000EF900895EF92FF920F931F937B018C0155
:1010100080E0E81680E0F80681E0080780E0180725
:1010200088F48FEFE816F1040105110531F028F07E
:1010300088E090E0A0E0B0E017C080E090E0A0E0A1
:10104000B0E012C080E0E81680E0F80680E0080713
:1010500081E0180728F088E190E0A0E0B0E004C04B
:1010600080E190E0A0E0B0E020E230E040E050E03D
:10107000281B390B4A0B5B0B04C016950795F79498
:10108000E7948A95D2F7F701E45AFE4F8081281B36
:10109000310941095109C9011F910F91FF90EF904A
:1010A0000895DF92EF92FF920F931F93FC01E4806B
:1010B000F58006811781D1808081823048F480E0FC
:1010C00090E0A0E1B0E0E82AF92A0A2B1B2BA5C08A
:1010D000843009F49FC0823021F4EE24FF2487017C
:1010E00005C0E114F1040105110519F4E0E0F0E098
:1010F00096C0628173819FEF623879070CF05BC004
:1011000022E83FEF261B370B2A3131052CF020E077
:1011100030E040E050E02AC0B801A701022E04C030
:1011200076956795579547950A94D2F781E090E0B8
:10113000A0E0B0E004C0880F991FAA1FBB1F2A952A
:10114000D2F70197A109B1098E219F21A023B123D4
:101150000097A105B10521F081E090E0A0E0B0E0AA
:101160009A01AB01282B392B4A2B5B2BDA01C901E1
:101170008F779070A070B07080349105A105B10593
:1011800039F427FF09C0205C3F4F4F4F5F4F04C029
:10119000215C3F4F4F4F5F4FE0E0F0E02030A0E098
:1011A0003A07A0E04A07A0E45A0710F0E1E0F0E0B7
:1011B00079018A0127C06038710564F5FB01E158A7
:1011C000FF4FD801C7018F779070A070B070803446
:1011D0009105A105B10539F4E7FE0DC080E490E06A
:1011E000A0E0B0E004C08FE390E0A0E0B0E0E80E43
:1011F000F91E0A1F1B1F17FF05C016950795F794C8
:10120000E794319687E016950795F794E7948A95C9
:10121000D1F705C0EE24FF248701EFEFF0E06E2F39
:10122000679566276795902F9F77D794DD24D7948D
:101230008E2F8695492F462B582F5D29B701CA015D
:101240001F910F91FF90EF90DF900895FC01DB015B
:10125000408151812281622F6F7770E0221F222707
:10126000221F9381892F880F822B282F30E0991F0E
:101270009927991F11969C93119721153105A9F56E
:10128000411551056105710511F482E037C082E80E
:101290009FEF13969C938E9312979A01AB0167E090
:1012A000220F331F441F551F6A95D1F783E08C939B
:1012B0000DC0220F331F441F551F12968D919C9114
:1012C0001397019713969C938E931297203080E08A
:1012D000380780E0480780E4580758F314962D93A8
:1012E0003D934D935C93179708952F3F310579F403
:1012F000411551056105710519F484E08C93089539
:1013000064FF03C081E08C9312C01C9210C02F5761
:10131000304013963C932E93129783E08C9387E092
:10132000440F551F661F771F8A95D1F77064149676
:101330004D935D936D937C93179708951F93DC01F4
:10134000FB019C91923008F447C08081823008F400
:1013500043C0943051F411961C91843099F58181E9
:10136000682F70E0611B71093FC0843021F092301A
:1013700031F48230B9F18181882389F12DC0119631
:101380001C9111978230F1F081811817D9F41296CF
:101390002D913C911397828193818217930794F04A
:1013A00028173907BCF014968D919D910D90BC9132
:1013B000A02D2481358146815781281739074A0796
:1013C0005B0718F4112341F00AC082179307A407A2
:1013D000B50740F4112319F061E070E005C06FEF2C
:1013E0007FEF02C060E070E0CB011F91089510BC58
:1013F00083E389B98BB1837E8BB95998529886E87B
:1014000080BD549A539A57985698559808958130AC
:1014100049F0813010F456980895823009F008950B
:101420005598089557980895813049F0813010F407
:10143000569A0895823009F00895559A0895579A5A
:1014400008955D9BFECF8CB908956115710571F00B
:1014500020E030E0FC01E20FF31FE0815D9BFECF56
:10146000ECB92F5F3F4F26173707A0F30895DC0133
:10147000EC91EE2359F080E05D9BFECFECB98F5FDD
:10148000FD01E80FF11DE081EE23B1F75D9BFECF7A
:101490001CB808955F9BFECF8CB10895AC01611517
:1014A000710571F020E030E05F9BFECF8CB1FA0156
:1014B000E20FF31F80832F5F3F4F26173707A0F3FC
:1014C0000895FC015F9BFECF8CB181938823D1F7F7
:1014D000089540E050E05F9BFECF2CB1FC01E40F8B
:1014E000F51F2083621731F0222319F04F5F5F4F01
:1014F000F2CF0895118208958BB1881F8827881F25
:1015000008958BB18C710895882311F45098089533
:101510008130E9F7509A08958AB1869581700895CF
:10152000FB0190936B0280936A0270936302609355
:1015300062025093970240939602109267021092B3
:1015400066026115710521F060815D9BFECF6CB96B
:1015500008956115710591F090936D0280936C026E
:10156000709365026093640250939A0240939902CB
:1015700020939802109269021092680208951F92B7
:101580000F920FB60F9211242F933F934F935F93B7
:101590006F937F938F939F93AF93BF93EF93FF933B
:1015A000E0916202F09163023097B9F020916602F7
:1015B000309167022F5F3F4F30936702209366029E
:1015C000E20FF31F40814423C9F08091960290916D
:1015D00097022817390790F44CB9FF91EF91BF910A
:1015E000AF919F918F917F916F915F914F913F91BB
:1015F0002F910F900FBE0F901F9018954CB910921D
:10160000670210926602E0916A02F0916B023097D5
:1016100021F30995E2CF1F920F920FB60F9211247A
:101620002F933F934F935F936F937F938F939F93EA
:10163000AF93BF93EF93FF93E0916402F091650243
:10164000309741F14CB18091680290916902E80FA6
:10165000F91F408320916802309169022F5F3F4F4C
:1016600030936902209368028091990290919A02C6
:101670002817390700F180919802481701F110925C
:10168000690210926802E0916C02F0916D0230974D
:1016900009F00995FF91EF91BF91AF919F918F91C3
:1016A0007F916F915F914F913F912F910F900FBE5E
:1016B0000F901F90189580919802481759F7E09164
:1016C0006402F0916502E20FF31F4083D8CF0F93BD
:1016D0001F93DF93CF93CDB7DEB72A970FB6F89459
:1016E000DEBF0FBECDBF242F8E010F5F1F4FA8019D
:1016F0000E948112C8010E94370A2A960FB6F894F8
:10170000DEBF0FBECDBFCF91DF911F910F91089526
:101710000F931F93DF93CF93CDB7DEB72C970FB600
:10172000F894DEBF0FBECDBF8E010F5F1F4FA80123
:101730002AE00E949D11C8010E94370A2C960FB61C
:10174000F894DEBF0FBECDBFCF91DF911F910F91F7
:10175000089585B5877F85BD85B58F7B85BD85B5AA
:101760008F7D85BD85B58F7E85BD14BC13BC88B7C4
:10177000806488BF89B7806489BF8FB780688FBF56
:1017800089B78F7789BF85B5887F85BD85B5856029
:1017900085BD089585B5887F85BD85B585BD0895CE
:1017A00085B5887F85BD85B5856085BD089583BD78
:1017B000089583B5089584BD089584B50895882358
:1017C00019F0813029F0089589B78F7B89BF08957A
:1017D00089B78F7789BF0895882319F0813029F060
:1017E000089589B7806489BF089589B7806889BFE3
:1017F00008958F929F92AF92BF92CF92DF92EF9215
:10180000FF920F931F9314B540917202509173028F
:101810009A0140E050E060E070E080E090E008E095
:101820000E944900F92F822E810EE1E0821608F015
:10183000E0E0932E2E2F230F31E0291508F030E041
:10184000922E232F240F31E0241708F030E0A22E2F
:10185000232F250F31E0251708F030E0B22E232F7B
:10186000260F31E0261708F030E0C22E232F270F75
:1018700031E0271708F030E0D22EE82E832F8E0DAE
:1018800091E08E1508F090E09F0F9401A501B6013C
:101890000E949C012FE632E143E85CE30E942204AF
:1018A0000E94F4001F910F91FF90EF90DF90CF9076
:1018B000BF90AF909F908F90089514BC10927302C8
:1018C0001092720208952F923F924F925F926F9200
:1018D0007F928F929F92AF92BF92CF92DF92EF92C0
:1018E000FF920F931F93CF93DF931B012A01A0E078
:1018F000B0E0BC01CD010E940A0720E034E244EFD1
:101900005AE40E94220420E030E04AEF5BE40E94A7
:101910001C057B018C010E94C8003B014C01EB01BE
:1019200080E090E00E940A075B016C01C801B701EA
:10193000A60195010E94C8051816C4F0F201108294
:10194000F10171826082DF91CF911F910F91FF9021
:10195000EF90DF90CF90BF90AF909F908F907F904F
:101960006F905F904F903F902F900895C801B701FE
:10197000A60195010E94C4039B01AC0160E070E0E8
:1019800080E89FE30E94C40320E030E040E853E495
:101990000E9422040E94C800F20160832196F10196
:1019A000D183C083D0CF882319F0813031F00895DE
:1019B00070936F0260936E0208957093710260934A
:1019C000700208951F920F920FB60F9211242F9359
:1019D0003F934F935F936F937F938F939F93AF93B7
:1019E000BF93EF93FF93E0917002F09171023097F3
:1019F00009F00995FF91EF91BF91AF919F918F9160
:101A00007F916F915F914F913F912F910F900FBEFA
:101A10000F901F9018951F920F920FB60F921124DE
:101A20002F933F934F935F936F937F938F939F93E6
:101A3000AF93BF93EF93FF93E0916E02F0916F022B
:101A4000309709F009958091720290917302019686
:101A50009093730280937202FF91EF91BF91AF91C7
:101A60009F918F917F916F915F914F913F912F91B6
:101A70000F900FBE0F901F90189583B7886083BF9B
:101A800083B7806483BF83B7806283BF83B78F7E51
:101A900083BFBB9A12BE1CBE89B78E7F89BF89B730
:101AA0008D7F89BF83B7887F83BF83B7846083BFFF
:101AB000089583B7887F83BF83B783BF089583B7B3
:101AC000887F83BF83B7846083BF08958CBF0895E8
:101AD0008CB7089582BF089582B70895882319F0BE
:101AE000813029F0089589B78E7F89BF089589B71D
:101AF0008D7F89BF0895882319F0813029F00895DA
:101B000089B7816089BF089589B7826089BF0895C8
:101B10008F929F92AF92BF92CF92DF92EF92FF92FD
:101B20000F931F9312B740917802509179029A0156
:101B300040E050E060E070E080E090E008E00E946B
:101B40004900F92F822E810EE1E0821608F0E0E0D4
:101B5000932E2E2F230F31E0291508F030E0922E1E
:101B6000232F240F31E0241708F030E0A22E232F7A
:101B7000250F31E0251708F030E0B22E232F260F75
:101B800031E0261708F030E0C22E232F270F31E076
:101B9000271708F030E0D22EE82E832F8E0D91E02B
:101BA0008E1508F090E09F0F9401A501B6010E94E8
:101BB0009C012FE632E143E05DE30E9422040E9493
:101BC000F4001F910F91FF90EF90DF90CF90BF90A6
:101BD000AF909F908F90089512BE1092790210924C
:101BE000780208952F923F924F925F926F927F9268
:101BF0008F929F92AF92BF92CF92DF92EF92FF921D
:101C00000F931F93CF93DF931B012A01A0E0B0E055
:101C1000BC01CD010E940A0720E034E244EF5AE4FF
:101C20000E94220420E030E04AE75CE40E941C05A8
:101C30007B018C010E94C8003B014C01EB0180E05C
:101C400090E00E940A075B016C01C801B701A60180
:101C500095010E94C8051816C4F0F2011082F10126
:101C600071826082DF91CF911F910F91FF90EF9071
:101C7000DF90CF90BF90AF909F908F907F906F90AC
:101C80005F904F903F902F900895C801B701A60133
:101C900095010E94C4039B01AC0160E070E080E804
:101CA0009FE30E94C40320E030E040E853E40E9438
:101CB00022040E94C800F20160832196F101D183C1
:101CC000C083D0CF882319F0813031F0089570930C
:101CD00075026093740208957093770260937602A0
:101CE00008951F920F920FB60F9211242F933F93D6
:101CF0004F935F936F937F938F939F93AF93BF9314
:101D0000EF93FF93E0917602F0917702309709F01C
:101D10000995FF91EF91BF91AF919F918F917F9125
:101D20006F915F914F913F912F910F900FBE0F9048
:101D30001F9018951F920F920FB60F9211242F9398
:101D40003F934F935F936F937F938F939F93AF9343
:101D5000BF93EF93FF93E0917402F0917502309777
:101D600009F00995809178029091790201969093FB
:101D7000790280937802FF91EF91BF91AF919F918B
:101D80008F917F916F915F914F913F912F910F9024
:101D90000FBE0F901F901895413061F1413090F4C3
:101DA000813009F452C0813008F071C02AB381E05B
:101DB00090E002C0880F991F6A95E2F78095822310
:101DC0008ABB0895423009F00895813071F1813065
:101DD00008F047C03AB381E090E002C0880F991F35
:101DE0006A95E2F7282F209523232ABB2BB3822B59
:101DF0008BBB0895813071F0813008F059C02AB34F
:101E000081E090E002C0880F991F6A95E2F7282BC5
:101E10002ABB089527B381E090E002C0880F991F84
:101E20006A95E2F7282B27BB089537B381E090E04D
:101E300002C0880F991F6A95E2F7282F2095232367
:101E400027BB28B3822B88BB089527B381E090E09D
:101E500002C0880F991F6A95E2F78095822387BB9D
:101E60000895823009F44BC0833009F0ADCF31B30F
:101E700081E090E002C0880F991F6A95E2F7282F51
:101E80002095232321BB22B3822B82BB089582306D
:101E900051F1833009F098CF21B381E090E002C086
:101EA000880F991F6A95E2F78095822381BB089578
:101EB000823071F0833009F087CF21B381E090E068
:101EC00002C0880F991F6A95E2F7282B21BB08955D
:101ED00024B381E090E002C0880F991F6A95E2F771
:101EE000282B24BB089524B381E090E002C0880F22
:101EF000991F6A95E2F78095822384BB089534B3D5
:101F000081E090E002C0880F991F6A95E2F7282FC0
:101F10002095232324BB25B3822B85BB08958130D4
:101F200059F0813028F0823049F0833019F008955B
:101F30006ABB089561BB089567BB089564BB0895AB
:101F4000442359F48130B9F1813048F1823009F4E9
:101F500060C0833009F43BC008954130E9F7813017
:101F600009F44CC0813080F0823009F43CC08330E9
:101F700099F722B381E090E002C0880F991F6A951B
:101F8000E2F7282B22BB08952BB381E090E002C03A
:101F9000880F991F6A95E2F7282B2BBB08952BB366
:101FA00081E090E002C0880F991F6A95E2F7809562
:101FB00082238BBB089528B381E090E002C0880F94
:101FC000991F6A95E2F78095822388BB089522B312
:101FD00081E090E002C0880F991F6A95E2F7809532
:101FE000822382BB089525B381E090E002C0880F70
:101FF000991F6A95E2F7282B25BB089528B381E045
:1020000090E002C0880F991F6A95E2F7282B28BB41
:10201000089525B381E090E002C0880F991F6A956A
:10202000E2F78095822385BB0895813059F0813095
:1020300028F0823049F0833019F008956BBB089581
:1020400062BB089568BB089565BB08958130D1F0E7
:10205000813030F08230F9F0833059F080E008951B
:1020600089B390E002C0959587956A95E2F78170F3
:10207000089580B390E002C0959587956A95E2F740
:102080008170089586B390E002C0959587956A9512
:10209000E2F78170089583B390E002C0959587952B
:1020A0006A95E2F781700895813061F0813030F0F7
:1020B000823051F0833021F080E0089589B3089593
:1020C00080B3089586B3089583B308958130E9F00D
:1020D000813028F0823021F1833061F008952BB3F4
:1020E00081E090E002C0880F991F6A95E2F72827E7
:1020F0002BBB089522B381E090E002C0880F991FA6
:102100006A95E2F7282722BB089528B381E090E082
:1021100002C0880F991F6A95E2F7282728BB089507
:1021200025B381E090E002C0880F991F6A95E2F71D
:10213000282725BB0895813079F0813028F082303E
:1021400079F0833029F008958BB380958BBB089587
:1021500082B3809582BB089588B3809588BB08952B
:1021600085B3809585BB08956295607F8130A9F025
:10217000813028F08230C1F0833041F008958BB374
:102180008F708BBB8BB3682B6BBB089582B38F7042
:1021900082BB82B3682B62BB089588B38F7088BB03
:1021A00088B3682B68BB089585B38F7085BB85B3F2
:1021B000682B65BB08956F708130A9F0813028F0DD
:1021C0008230C1F0833041F008958BB3807F8BBBA8
:1021D0008BB3682B6BBB089582B3807F82BB82B3C5
:1021E000682B62BB089588B3807F88BB88B3682B57
:1021F00068BB089585B3807F85BB85B3682B65BBBD
:1022000008953F983E9A3D9886B1887F86B986B1F9
:10221000866086B93598379A3398089597B1907E3D
:1022200097B997B1982B97B9369A0895DF93CF93C2
:1022300000D0CDB7DEB71A8219820AC089819A818F
:102240008639910560F489819A8101969A83898300
:1022500086B1829586958695837080FDEFCF8981C2
:102260009A818639910540F424B135B1C9010F90A6
:102270000F90CF91DF91089520E030E0C9010F90D9
:102280000F90CF91DF91089597B1907E97B997B154
:10229000982B97B9369A0E941611089597B1907E9F
:1022A00097B997B1982B97B9369A0E9416119695BF
:1022B0008795969587950895379A08953798089544
:1022C00080B78F7180BF80B780BF359A08953598E9
:1022D0000895339A08953398089590937B028093DC
:1022E0007A0208951F920F920FB60F9211242F9326
:1022F0003F934F935F936F937F938F939F93AF938E
:10230000BF93EF93FF93E0917A02F0917B023097B5
:1023100019F084B195B10995FF91EF91BF91AF91FB
:102320009F918F917F916F915F914F913F912F91ED
:102330000F900FBE0F901F9018958F929F92AF92A3
:10234000BF92CF92DF92EF92FF920F931F93CF93A2
:10235000DF937B018C01EA01822F82508F30F0F5F0
:10236000E114F1040105110549F117FD59C0882454
:10237000A22EBB24CC24DD24992415C0695CFE0167
:10238000E90DF11D60839394C801B701A601950181
:102390000E947B18C901DA017C018D01E114F1046E
:1023A00001051105E9F0C801B701A60195010E94D8
:1023B0007B186A30710514F7605DE1CF80E3888394
:1023C0001982DF91CF911F910F91FF90EF90DF90D5
:1023D000CF90BF90AF909F908F9008951882F1CFCB
:1023E0008820B9F4FE01E90DF11D1082392D31501C
:1023F00041F320E0FE01E20FF11D9081DE01A30F09
:10240000B11D8C9180832F5F9C933150231790F3E3
:10241000D8CFFE01E90DF11D8DE280839394E2CFC8
:102420002A3009F0A4CF10950095F094E094E11CB7
:10243000F11C011D111D882483949ACFAF92BF9285
:10244000DF92EF92FF920F931F93DF93CF930F9240
:10245000CDB7DEB75C01FC01D080FDE2DF1609F4E8
:1024600040C019828D2D80538A3008F042C0EE247E
:10247000FF248701C801B7012AE030E040E050E0C6
:102480000E942E182D2D30E0205330407901002776
:10249000F7FC0095102FE60EF71E081F191F089471
:1024A000A11CB11CF501D0808D2D80538A3010F312
:1024B000A8019701F981F13039F422273327A901C6
:1024C0002E193F09400B510BB901CA010F90CF9152
:1024D000DF911F910F91FF90EF90DF90BF90AF9031
:1024E00008950894A11CB11CF501D080F1E0F98396
:1024F000B9CFEE24FF24870120E030E040E050E037
:10250000D9CF9F92AF92BF92CF92DF92EF92FF927C
:102510000F931F93CF93DF935B016C01EA01922E1F
:1025200020E030E040E050E00E94280688230CF4D0
:102530008BC0C601B5010E94B6067B018C010E94CA
:1025400058069B01AC01C601B5010E94C4035B01A2
:102550006C01C801B701AE012AE00E949D1188817B
:10256000882321F0219688818823E1F78EE28993E0
:10257000992071F000E0C601B50120E030E040E2B2
:1025800051E40E9422045B016C010F5F091598F36E
:10259000C601B50120E030E040E05FE30E94F503B2
:1025A0000E94C8006B017C016115710581059105D0
:1025B00009F445C0BB241BC08E010B0D111DC701C2
:1025C000B6012AE030E040E050E00E945918605D1A
:1025D000F8016083B394C701B6012AE030E040E01F
:1025E00050E00E945918C901DA016C017D01C11443
:1025F000D104E104F10401F7B914F0F23B2D31509C
:1026000079F020E0FE01E20FF11D9081DE01A30FC1
:10261000B11D8C9180832F5F9C933150231790F3D1
:10262000CB0DD11D1882DF91CF911F910F91FF909B
:10263000EF90DF90CF90BF90AF909F90089580E390
:102640008883BB24B394D3CF8DE28993D7FAD094F7
:10265000D7F8D0946ECF2F923F924F925F926F92A5
:102660007F928F929F92AF92BF92CF92DF920F9301
:10267000DF93CF93CDB7DEB72C970FB6F894DEBFBC
:102680000FBECDBFFC0160816D3209F49AC01A8281
:10269000CF0101969C878B870F2EF0E02F2EF0E064
:1026A0003F2EF0E04F2EF0E05F2EF02D6201510141
:1026B00081E0682E712C812C912C19822DC0C401CF
:1026C000B3012AE030E040E050E00E942E183B01C8
:1026D0004C01C601B50120E030E040E251E40E9427
:1026E00022046B837C838D839E83602F70E0882718
:1026F00077FD8095982F0E9458069B01AC016B8155
:102700007C818D819E810E94F5035B016C01EB85CC
:10271000FC856191FC87EB87662359F16E3231F1BC
:10272000062F00530A3028F5A981AA2341F6C201D9
:10273000B10120E030E040E251E40E9422046F83C6
:10274000788789879A87602F70E0882777FD809542
:10275000982F0E9458069B01AC016F81788589856E
:102760009A850E94F5031B012C01D1CF91E099833A
:10277000CECFC401B3010E9458069B01AC01C60133
:10278000B5010E941C05A20191010E94F503FA8186
:10279000F13009F490582C960FB6F894DEBF0FBEB6
:1027A000CDBFCF91DF910F91DF90CF90BF90AF90D1
:1027B0009F908F907F906F905F904F903F902F9061
:1027C00008953196608121E02A8362CF482F6AE024
:1027D0000E944D18282F30E022953295307F322705
:1027E000207F3227842F0E944D18892F822B089535
:1027F000282F22952F709AE0299F900111248F7025
:10280000820F08950F931F93182F082F03701695AA
:102810001695612F6770802F40E00E94A00F1695DB
:1028200016951695802F612F40E00E94A00F1F91F2
:102830000F9108951F93182F862F0E940214812F45
:102840000E9402141F9108950F931F93182F082FB1
:10285000037016951695612F6770802F40E00E94D7
:10286000A00F169516951695802F612F41E00E94B6
:10287000A00F1F910F9108951F93182F862F0E946C
:102880002414812F0E9424141F9108950F931F93E5
:10289000182F082F037016951695612F6770802FDB
:1028A00041E00E94A00F169516951695802F612F76
:1028B00040E00E94A00F1F910F9108951F93162FC3
:1028C0000E944614812F0E9424141F9108951F9383
:1028D000182F862F0E944614812F0E9424141F91C6
:1028E00008951F93182F862F0E944614812F0E944F
:1028F00046141F910895442349F0413069F0433054
:1029000071F0443031F00E941A1408950E9471143D
:1029100008950E945E1408950E943C1408950E9438
:10292000671408950F931F93182F082F037016959F
:102930001695612F6770802F41E00E94CC0E16958E
:1029400016951695802F612F41E00E94CC0E1F91A5
:102950000F9108959C0197FD02C0C901089530951B
:1029600021953F4FC9010895EF92FF920F931F9356
:10297000DF93CF93CDB7DEB72A970FB6F894DEBFBB
:102980000FBECDBF4091A3028E010F5F1F4F88EC99
:10299000E82EF12C413009F067C02091820230917D
:1029A00083028091840290918502B901681B790BA2
:1029B000CB0177FDB1C006970CF48DC080E690E0A6
:1029C0000E94370A6091820270918302882777FD06
:1029D0008095982F0E94880B8AE00E94210A80919E
:1029E000820290918302909385028093840289E60B
:1029F00090E00E94370A6091A7027091A80280912E
:102A0000A9029091AA0243E00E94670B8FE690E032
:102A10000E94370A60919F027091A0028091A102EA
:102A20009091A20243E00E94670B86E790E00E942B
:102A3000370A60919B0270919C0280919D02909157
:102A40009E0243E00E94670B8DE790E00E94370AE8
:102A50004091A30288EE93E0F7013197F1F70197D7
:102A6000D9F7413009F499CF8DEB90E00E94370AF5
:102A700060917C0270917D02882777FD8095982F68
:102A80000E94880B8CE20E94210A87EC90E00E9451
:102A9000370A60917E0270917F02882777FD8095CA
:102AA000982F0E94880B8CE20E94210A81ED90E011
:102AB0000E94370A6091820270918302882777FD15
:102AC0008095982F0E94880B88ED90E00E94370A2D
:102AD0004091A302BFCF2C5F3F4F2930310508F052
:102AE000B9CF04C082E990E00E94370A80E890E004
:102AF0000E94370AC80160E20E94690AC8010E9468
:102B00001E1224E0603072076CF770937D026093B0
:102B10007C024091A3029ECF909581959F4F4BCF11
:102B2000CF93DF93EC011816190674F00097D9F4CF
:102B300080915C020E940214CE01D7FD0CC00E945D
:102B4000660DDF91CF91089580915C020E9446143A
:102B5000CE01D7FFF4CF909581959F4F0E94660DCF
:102B6000DF91CF91089580915C020E942414E4CFFC
:102B70006F927F928F929F92AF92BF92CF92DF928D
:102B8000EF92FF920F931F93CF93DF9380E00E9409
:102B9000441190937F0280937E028091A302882348
:102BA00009F4D6C0C0917E02D0917F0220917C02B0
:102BB00030917D022C1B3D0B3093830220938202C7
:102BC000C9010496099708F4B2C0B901882777FDB6
:102BD0008095982F0E9458067B018C012091A702B6
:102BE0003091A8024091A9025091AA020E942204A9
:102BF0003B014C01609386027093870280938802A8
:102C000090938902C801B70120919F023091A002E0
:102C10004091A1025091A2020E9422042AE037EDC5
:102C200043EA5CE30E94220420918A0230918B02E5
:102C300040918C0250918D020E94F5035B016C0162
:102C400060938A0270938B0280938C0290938D0222
:102C500060918002709181026C1B7D0B882777FD4B
:102C60008095982F0E94580620919B0230919C02DB
:102C700040919D0250919E020E9422042AE037ED6D
:102C800043EA5CE30E941C057B018C0160938E0289
:102C900070938F028093900290939102C401B301CC
:102CA000A60195010E94F5039B01AC01C801B70183
:102CB0000E94F5030E94B6067093930260939202FD
:102CC0006F3F710509F05CF42FEF613072076CF40F
:102CD00081E09FEF909393028093920206C08FEF62
:102CE00090E09093930280939202D0938102C093DC
:102CF000800280919202909193020E9490156091BF
:102D000092027091930277FD77C082E00E941510C5
:102D1000DF91CF911F910F91FF90EF90DF90CF90B7
:102D2000BF90AF909F908F907F906F90089580E0BC
:102D300090E0A0E0B0E080938A0290938B02A09391
:102D40008C02B0938D021092930210929202CDCF1A
:102D500081E00E94441190937D0280937C0282E086
:102D60000E9444119C01220F331F220F331F280F92
:102D7000391F40E050E0CA01B9010E940A0720E073
:102D800030EC4FE754E40E941C056093A702709357
:102D9000A8028093A9029093AA0283E00E944411A2
:102DA000A0E0B0E0BC01CD010E940A0720E030ECB9
:102DB0004FE754E40E941C0560939F027093A002A9
:102DC0008093A1029093A20284E00E944411A0E0AB
:102DD000B0E0BC01CD010E940A0720E030EC4FE7D3
:102DE00054E40E941C0560939B0270939C028093A4
:102DF0009D0290939E02D6CE709561957F4F85CFB0
:102E000080919402909195020196909395028093FF
:102E100094022091A5023091A6028217930708F42C
:102E2000089510929502109294028091A4020E943B
:102E3000DB0B0E94B81508958F929F92AF92BF92BC
:102E4000CF92DF92EF92FF920F931F93DF93CF9376
:102E5000CDB7DEB764970FB6F894DEBF0FBECDBF17
:102E60005C016B017A018E010F5F1F4F5BE0852EC5
:102E7000912C8C0E9D1E8BED90E00E94370AC801AC
:102E800060E20E94690AC8010E942B13F501608369
:102E90007183828393838CEE90E00E94370AC8018D
:102EA00060E20E94690AC8010E942B13F601608348
:102EB0007183828393838DEF90E00E94370AC8016B
:102EC00060E20E94690AC8010E942B13F701608327
:102ED0007183828393838EE091E00E94370AF5012B
:102EE000608171818281938143E00E94670B84E15C
:102EF00091E00E94370AF60160817181828193819D
:102F000043E00E94670B8BE191E00E94370AF701D2
:102F1000608171818281938143E00E94670B82E22C
:102F200091E00E94370AC40160E20E94690A8B8521
:102F3000893719F0893509F09ECF64960FB6F89459
:102F4000DEBF0FBECDBFCF91DF911F910F91FF90DC
:102F5000EF90DF90CF90BF90AF909F908F900895AB
:102F6000FF920F931F93DF93CF93CDB7DEB72A97CE
:102F70000FB6F894DEBF0FBECDBF20E23EE448ECB2
:102F800050E0CA010197F1F721503040D1F78AE3B0
:102F900091E00E94370AFF2408EC10E00E947C0AAE
:102FA0008823C9F4F39420ED37E0C8010197F1F7C5
:102FB00021503040D1F789E1F81681F780E02A9658
:102FC0000FB6F894DEBF0FBECDBFCF91DF911F913A
:102FD0000F91FF900895CE01019660E20E94690A68
:102FE0009981993719F080E0993549F781E0E7CF69
:102FF0000E94F70980915C020E9492140E940111C4
:103000000E94B0178093A3028130D1F00E943D0D41
:103010000E94A90B82E06FEF0E948F0F84E190E085
:1030200065EA72E044EA52E00E94630C8091A402D7
:103030000E94DB0B80E060E077E10E94D30C0895F2
:1030400087EA92E06FE972E04BE952E00E941C17B8
:10305000DDCF0E94F8170E94B414FFCF629FD00109
:10306000739FF001829FE00DF11D649FE00DF11D43
:10307000929FF00D839FF00D749FF00D659FF00DF2
:103080009927729FB00DE11DF91F639FB00DE11DDF
:10309000F91FBD01CF0111240895991B79E004C0E7
:1030A000991F961708F0961B881F7A95C9F7809587
:1030B0000895A1E21A2EAA1BBB1BFD010DC0AA1F79
:1030C000BB1FEE1FFF1FA217B307E407F50720F091
:1030D000A21BB30BE40BF50B661F771F881F991F0C
:1030E0001A9469F760957095809590959B01AC0155
:1030F000BD01CF01089597FB092E05260ED057FD7F
:1031000004D0D7DF0AD0001C38F450954095309594
:1031100021953F4F4F4F5F4F0895F6F7909580955B
:10312000709561957F4F8F4F9F4F08952F923F92DB
:103130004F925F926F927F928F929F92AF92BF92C7
:10314000CF92DF92EF92FF920F931F93CF93DF9373
:10315000CDB7DEB7CA1BDB0B0FB6F894DEBF0FBED0
:10316000CDBF09942A88398848885F846E847D841D
:103170008C849B84AA84B984C884DF80EE80FD801F
:103180000C811B81AA81B981CE0FD11D0FB6F89495
:0E319000DEBF0FBECDBFED010895F894FFCF56
:10319E004572726F72203D20004B70203D20002C36
:1031AE004B69203D20002C4B64203D20000A0A0074
:1031BE00456E7465722073657420706F696E743A13
:1031CE000A00496E76616C69642073657420706FB5
:1031DE00696E742072616E67652069732066726F06
:1031EE006D203020746F20313032330A00536574F5
:1031FE00706F696E743A00506F736974696F6E3ACE
:10320E00004572726F723A000D0A00456E74657257
:10321E00204B702076616C75653A0A00456E7465B8
:10322E0072204B692076616C75653A0A00456E74A2
:10323E006572204B642076616C75653A0A006B707E
:10324E00203D20002C6B69203D20002C6B64203D1E
:10325E0020000A55736520746869732076616C7559
:10326E0065733F5B792F6E5D0A0055736520646947
:10327E00676974616C2076616C7565733F5B792F3D
:10328E006E5D0A0000000000000000000001020256
:10329E0003030303040404040404040405050505E0
:1032AE0005050505050505050505050506060606BC
:1032BE0006060606060606060606060606060606A0
:1032CE00060606060606060606060606070707078C
:1032DE000707070707070707070707070707070770
:1032EE000707070707070707070707070707070760
:1032FE000707070707070707070707070707070750
:10330E00070707070707070707070707080808083B
:10331E00080808080808080808080808080808081F
:10332E00080808080808080808080808080808080F
:10333E0008080808080808080808080808080808FF
:10334E0008080808080808080808080808080808EF
:10335E0008080808080808080808080808080808DF
:10336E0008080808080808080808080808080808CF
:10337E0008080808080808080808080808080808BF
:10338E00080808080808080808080808450AD7A306
:02339E003C00F1
:00000001FF
