:100000000C942A000C9447000C9447000C94470071
:100010000C94E20D0C940B0E0C948F100C94141095
:100020000C943D100C9466100C94F1110C941A125F
:100030000C9447000C94230C0C9447000C94D70BA1
:100040000C9447000C9473120C9447000C944700D6
:100050000C94470011241FBECFE5D8E0DEBFCDBF12
:1000600012E0A0E6B0E0EAE2F7E502C005900D92EA
:10007000AE30B107D9F716E0AEE0B2E001C01D9294
:10008000AF3FB107E1F70E94EF2A0C94932B0C9439
:100090000000A0E3B0E0EFE4F0E00C945C2BA8E0FB
:1000A0004E010894811C911CF401BA2F1192BA954B
:1000B000E9F729833A834B835C836D837E838F8347
:1000C0009887CE010996FC011192AA95E9F7A986B5
:1000D000BA86CB86DC86ED86FE860F87188B298153
:1000E0003A814B815C812DA73EA74FA758AB790180
:1000F0008A018FEF9FEFA0E0B0E0E822F9220A2307
:100100001B231A014424552429853A854B855C8597
:1001100029A73AA74BA75CA759016A01A822B922CF
:10012000CA22DB223A0188249924C601B501A8011C
:1001300097010E94F42A6DA37EA38FA398A7C40100
:10014000B3010E94F42A69A37AA38BA39CA3C601DE
:10015000B501A20191010E94F42A7B018C01C40126
:10016000B3010E94F42A5B016C0189A19AA1ABA1A1
:10017000BCA18E0D9F1DA01FB11F89A39AA3ABA385
:10018000BCA32DA13EA14FA158A5CA01AA27BB27F8
:1001900029A13AA14BA15CA1280F391F4A1F5B1F5F
:1001A00029A33AA34BA35CA32E153F054007510793
:1001B00040F480E090E0A1E0B0E0A80EB91ECA1EB5
:1001C000DB1E89A19AA1ABA1BCA19D0144275527A3
:1001D0002A0D3B1D4C1D5D1D2D8F3E8F4F8F58A34B
:1001E0006C01BB24AA248DA19EA1AFA1B8A5A070CB
:1001F000B070A80EB91ECA1EDB1EA98EBA8ECB8E99
:10020000DC8E9A8C8B8C7C8C9E8D6F8D78A1FE0100
:10021000719688E0DF011D928A95E9F72D8B9E8B00
:100220006F8B788F2D853E854F8558896DA57EA56E
:100230008FA598A90E94F42A7B018C012D813E8113
:100240004F81588569A57AA58BA59CA50E94F42AA3
:10025000E60EF71E081F191F6D897E898F89988DFC
:100260006E0D7F1D801F911F6D8B7E8B8F8B988FE6
:10027000EE892A2D392D482D572D7E2F8F89988D67
:10028000E096E2E10C94782BEF92FF920F93DF93CC
:10029000CF93CDB7DEB760970FB6F894DEBF0FBE31
:1002A000CDBFA82F002309F461C07E010894E11C92
:1002B000F11C88E0F70111928A95E9F729833A83C6
:1002C0004B835C836D837E83AF83988780E2801B42
:1002D000E82FFF27E7FDF09549815A816B817C81EA
:1002E000181684F019861A861B861C86882799277B
:1002F0008E1B9F0B04C0440F551F661F771F8A95E6
:10030000D2F728C0202F332727FD3095DB01CA0103
:10031000022E04C0880F991FAA1FBB1F0A94D2F790
:1003200089879A87AB87BC8704C076956795579570
:100330004795EA95D2F78D819E81AF81B88504C03B
:10034000880F991FAA1FBB1F2A95D2F7482B592B3C
:100350006A2B7B2B4D875E876F87788B29853A8543
:100360004B855C856D857E85AF8598898A2F6096E3
:100370000FB6F894DEBF0FBECDBFCF91DF910F91C6
:10038000FF90EF900895EF92FF920F931F937B01E0
:100390008C0120E030E040E05FE40E94F306882317
:1003A0008CF0C801B70120E030E040E05FE40E943B
:1003B000BF040E94B1079B01AC0120503040404077
:1003C000504806C0C801B7010E94B1079B01AC01AB
:1003D000B901CA011F910F91FF90EF900895A0E01D
:1003E000B0E0E5EFF1E00C945C2B7B018C0120E0A8
:1003F00030E040E85FE30E94230788234CF4AA24FE
:10040000BB24CC24DD24EE24FF2400E010E086C0D1
:10041000C801B70120E030E040E85FE40E94230714
:10042000882354F4C801B7010E94C3015B016C0129
:10043000EE24FF24870172C0C801B70120E030E03C
:1004400040E85FE50E94230787FD0FC0AA24AA9415
:10045000BB24BA94CC24CA94DD24DA94EE24EA9422
:10046000FF24FA940FEF1FEF59C0C801B70120E035
:1004700030E040E85FE20E941D057B018C012224F0
:100480003324210190E1A92EB12CC12CD12CC0E044
:10049000D0E061E070E080E090E00A2C04C0660FDC
:1004A000771F881F991F0A94D2F70E9405083B0105
:1004B0004C01C801B701A40193010E94F3068823EF
:1004C00064F02A283B284C285D28C801B701A40104
:1004D00093010E9417067B018C01D694C794B794B0
:1004E000A7942196C530D105A1F6C801B70120E037
:1004F00030E040E85FE40E941D050E94C3015B01FB
:100500006C019B01A60160E070E080E090E0022DAC
:100510000E94440159016A017B018C019501A601E9
:10052000B701C801CDB7DEB7E2E10C94782BA2E0A9
:10053000B0E0EDE9F2E00C945C2B122FB32EA42E68
:10054000952E862E372E282E9A83C22ED32EE42E59
:10055000F52EA701960160E070E080E090E02117A1
:10056000A1F43B1591F44A1581F4591571F46815FD
:1005700061F4731551F4821541F4AA819A1729F494
:10058000C701B6010E940508AAC0212F3B2D4A2DA4
:10059000592D682D732D822D9A8100E20E947E08CC
:1005A000C901DA018030E0E09E07E1E0AE07E0E05B
:1005B000BE0780F48F3F9105A105B10531F028F009
:1005C00028E030E040E050E016C020E030E040E0BD
:1005D00050E011C08030F0E09F07F0E0AF07F1E09D
:1005E000BF0728F028E130E040E050E004C020E1FF
:1005F00030E040E050E0022E04C0B695A7959795F4
:1006000087950A94D2F7FC01EC52FF4F80812901B3
:100610003A01480E511C611C711C4982212F3B2D4F
:100620004A2D592D682D732D822D9A81042D0E94FB
:100630007E08C901DA014C015D0180E290E0841975
:10064000950904C0CC0CDD1CEE1CFF1C8A95D2F76A
:10065000C114D104E104F10441F081E090E0A0E094
:10066000B0E0882A992AAA2ABB2A90E249165104A6
:100670006104710459F40F2EF0E0EF2EF0E0FF2E2C
:10068000F0E80F2FFFE41F2FF02D21C0AFE14A1635
:1006900051046104710459F40F2EF0E0EF2EF0E0E4
:1006A000FF2EF0E00F2FFFE41F2FF02D10C061E0B0
:1006B00070E080E090E0098004C0660F771F881F1B
:1006C000991F0A94D2F70E9453077B018C01C50140
:1006D000B4010E940508A80197010E941D052296F9
:1006E000E2E10C94782BA0E0B0E0E9E7F3E00C94B1
:1006F0005C2BDC012B01FA019C91923008F439C18A
:10070000EB018881823008F433C1943069F484307D
:1007100009F02FC111969C9111978981981709F4BE
:1007200028C1ACECB0E025C1843009F421C182308D
:10073000A9F4923009F01DC19A01AD0188E0EA01E7
:100740000990AE01E90109929E018150C1F7E201D1
:10075000898111969C918923818308C1923009F483
:1007600007C112962D903C901397EB018A819B81D3
:100770001496AD90BD90CD90DC901797EC80FD80E5
:100780000E811F819101281B390BB90137FF04C06D
:1007900066277727621B730B603271050CF061C00E
:1007A000121613066CF537014801062E04C0969404
:1007B0008794779467940A94D2F721E030E040E080
:1007C00050E004C0220F331F441F551F6A95D2F713
:1007D00021503040404050402E213F2140235123A2
:1007E000211531054105510521F021E030E040E0BF
:1007F00050E079018A01E628F728082919293CC028
:10080000232BD1F1260E371E35014601062E04C0DA
:1008100096948794779467940A94D2F721E030E015
:1008200040E050E004C0220F331F441F551F6A955B
:10083000D2F721503040404050402A213B214C21EA
:100840005D21211531054105510521F021E030E000
:1008500040E050E059016A01A628B728C828D928E5
:100860000BC0821593052CF01C01AA24BB24650142
:1008700003C0EE24FF24870111969C91D2011196AA
:100880008C91981709F445C0992339F0A801970174
:100890002A193B094C095D0906C0A60195012E19CC
:1008A0003F09400B510B57FD08C011823382228251
:1008B00024833583468357831DC081E0818333823F
:1008C000228288279927DC01821B930BA40BB50B8E
:1008D00084839583A683B7830DC0220F331F441FE3
:1008E000551F2483358346835783828193810197E3
:1008F000938382832481358146815781DA01C9013E
:100900000197A109B1098F5F9F4FAF4FBF4328F3F4
:100910000BC0918333822282EA0CFB1C0C1D1D1D2F
:10092000E482F5820683178383E080832481358106
:100930004681578157FF1AC0C901AA2797FDA09584
:10094000BA2F81709070A070B0705695479537950A
:100950002795822B932BA42BB52B84839583A68379
:10096000B78382819381019693838283DF0101C0E3
:10097000D201CD01CDB7DEB7E2E10C94782BA0E235
:10098000B0E0E5ECF4E00C94682B69837A838B8308
:100990009C832D833E834F835887E9E0EE2EF12C14
:1009A000EC0EFD1ECE010196B7010E94210A8E01B8
:1009B0000F5E1F4FCE010596B8010E94210A8A8959
:1009C00091E089278A8BC701B801AE01475E5F4F6E
:1009D0000E9473030E944C09A096E6E00C94842BBD
:1009E000A0E2B0E0E6EFF4E00C94682B69837A8330
:1009F0008B839C832D833E834F835887F9E0EF2EB2
:100A0000F12CEC0EFD1ECE010196B7010E94210AC9
:100A10008E010F5E1F4FCE010596B8010E94210A7C
:100A2000C701B801AE01475E5F4F0E9473030E9489
:100A30004C09A096E6E00C94842BA0E2B0E0E3E23F
:100A4000F5E00C945C2B69837A838B839C832D83E4
:100A50003E834F835887CE010196BE01675F7F4F6B
:100A60000E94210ACE010596BE016F5E7F4F0E9453
:100A7000210A9985923088F089898230C8F09430B3
:100A800019F4823051F404C0843029F4923081F496
:100A90008CEC90E0C6C0923049F420E09A858A89B7
:100AA000981321E02A87CE010996BBC0823049F411
:100AB00020E09A858A89981321E02A8BCE014196FD
:100AC000B0C02D843E844F8458886D887E888F887E
:100AD000988CEE24FF248701AA24BB24650140E002
:100AE00050E060E070E0E0E0F0E0C1018170907003
:100AF000892BE9F0E60CF71C081D191D9A01AB01C2
:100B00002A0D3B1D4C1D5D1D80E090E0A0E0B0E093
:100B1000E614F7040805190520F481E090E0A0E050
:100B2000B0E0BA01A901480F591F6A1F7B1FAA0C28
:100B3000BB1CCC1CDD1C97FE08C081E090E0A0E04F
:100B4000B0E0A82AB92ACA2ADB2A3196E032F10598
:100B500049F0660C771C881C991C5694479437946E
:100B60002794C3CFFA85EA892B893C898B859C859C
:100B7000280F391F2E5F3F4F17C0CA018170907038
:100B8000892B61F016950795F794E79480E090E043
:100B9000A0E0B0E8E82AF92A0A2B1B2B7695679586
:100BA000579547952F5F3F4F77FDE7CF0CC0440F18
:100BB000551F661F771F17FD4160EE0CFF1C001FBD
:100BC000111F21503040403090E0590790E06907F4
:100BD00090E4790760F32B8F3C8FDB01CA018F779C
:100BE0009070A070B07080349105A105B10561F4DA
:100BF00047FD0AC0E114F1040105110529F0405C2C
:100C00005F4F6F4F7F4F40781A8EFE1711F081E0D3
:100C10008A8F4D8F5E8F6F8F78A383E0898FCE018F
:100C200049960E944C09A096E2E10C94782BA8E129
:100C3000B0E0EDE1F6E00C94642B69837A838B835A
:100C40009C832D833E834F835887B9E0EB2EF12C94
:100C5000EC0EFD1ECE010196B7010E94210A8E0105
:100C60000F5E1F4FCE010596B8010E94210A29850B
:100C7000223008F47EC03989323010F4B8017CC0CB
:100C80008A859A8989278A87243011F0223031F4A5
:100C9000231709F06EC06CEC70E06EC0343039F48C
:100CA0001D861E861F86188A1C861B8604C032304D
:100CB00021F484E08987B7015FC02B853C858B894F
:100CC0009C89281B390B3C872B87ED84FE840F857C
:100CD0001889AD88BE88CF88D88CEA14FB040C052F
:100CE0001D0540F4EE0CFF1C001F111F2150304069
:100CF0003C872B8720E030E040E050E080E090E04F
:100D0000A0E0B0E460E070E0EA14FB040C051D050F
:100D100040F0282B392B4A2B5B2BEA18FB080C09D7
:100D20001D09B695A79597958795EE0CFF1C001F9A
:100D3000111F6F5F7F4F6F31710531F7DA01C90104
:100D40008F779070A070B07080349105A105B105C7
:100D500061F427FD0AC0E114F1040105110529F031
:100D6000205C3F4F4F4F5F4F20782D873E874F8746
:100D7000588BBE01675F7F4FCB010E944C0968967C
:100D8000EAE00C94802BA8E1B0E0E9ECF6E00C94EA
:100D9000682B69837A838B839C832D833E834F8367
:100DA000588789E0E82EF12CEC0EFD1ECE0101964D
:100DB000B7010E94210A8E010F5E1F4FCE010596DA
:100DC000B8010E94210A8985823040F089898230E9
:100DD00028F0C701B8010E94990A01C08FEF6896F8
:100DE000E6E00C94842BA8E1B0E0E9EFF6E00C9487
:100DF000682B69837A838B839C832D833E834F8307
:100E0000588789E0E82EF12CEC0EFD1ECE010196EC
:100E1000B7010E94210A8E010F5E1F4FCE01059679
:100E2000B8010E94210A8985823040F08989823088
:100E300028F0C701B8010E94990A01C08FEF689697
:100E4000E6E00C94842BA8E1B0E0E9E2F7E00C9432
:100E5000682B69837A838B839C832D833E834F83A6
:100E6000588789E0E82EF12CEC0EFD1ECE0101968C
:100E7000B7010E94210A8E010F5E1F4FCE01059619
:100E8000B8010E94210A8985823040F08989823028
:100E900028F0C701B8010E94990A01C081E0689654
:100EA000E6E00C94842BA8E0B0E0E9E5F7E00C94D0
:100EB000652B9B01AC0183E08983DA01C901882796
:100EC000B7FD83959927AA27BB27B82E2115310591
:100ED0004105510519F482E089833AC08823A9F0BD
:100EE000203080E0380780E0480780E8580729F480
:100EF00060E070E080E09FEC30C0EE24FF248701CA
:100F0000E21AF30A040B150B02C079018A018EE183
:100F1000C82ED12CDC82CB82ED82FE820F83188713
:100F2000C801B7010E94FD0801971816190684F43C
:100F3000082E04C0EE0CFF1C001F111F0A94D2F7EC
:100F4000ED82FE820F831887C81AD90ADC82CB8211
:100F5000BA82CE0101960E944C092896E9E00C94D1
:100F6000812BACE0B0E0E7EBF7E00C946C2B6983ED
:100F70007A838B839C83CE010196BE016B5F7F4F8A
:100F80000E94210A8D81823061F1823050F18430DB
:100F900021F48E81882351F12EC02F81388537FDB1
:100FA00020C06E812F3131051CF06623F9F023C07B
:100FB0008EE190E0821B930B29853A854B855C85F9
:100FC00004C056954795379527958A95D2F766239D
:100FD000B1F050954095309521953F4F4F4F5F4F61
:100FE0000EC020E030E040E050E009C02FEF3FEFBE
:100FF0004FEF5FE704C020E030E040E050E8B90187
:10100000CA012C96E2E00C94882BA8E0B0E0EBE05B
:10101000F8E00C94642B7B018C016115710581054E
:10102000910519F482E0898360C083E089838EE1B1
:10103000C82ED12CDC82CB82ED82FE820F831887F2
:10104000C801B7010E94FD08FC013197F7FF3BC0C2
:10105000222733272E1B3F0B57016801022E04C0A5
:10106000D694C794B794A7940A94D2F740E050E07E
:1010700060E070E081E090E0A0E0B0E004C0880FA4
:10108000991FAA1FBB1F2A95D2F70197A109B10981
:101090008E219F21A023B1230097A105B10521F046
:1010A00041E050E060E070E04A295B296C297D292D
:1010B0004D835E836F8378878EE190E08E1B9F0B5C
:1010C0009C838B8312C0309781F00E2E04C0EE0CEF
:1010D000FF1C001F111F0A94D2F7ED82FE820F83BE
:1010E0001887CE1ADF0ADC82CB821A82CE010196E3
:1010F0000E944C092896EAE00C94802BEF92FF9214
:101100000F93DF93CF93CDB7DEB760970FB6F89408
:10111000DEBF0FBECDBFA82F002309F461C07E0142
:101120000894E11CF11C88E0F70111928A95E9F717
:1011300029833A834B835C836D837E83AF83988757
:1011400080E2801BE82FFF27E7FDF0954D815E814F
:101150006F817885181684F01D861E861F86188A72
:10116000882799278E1B9F0B04C076956795579506
:1011700047958A95D2F728C0202F332727FD309531
:10118000DB01CA01022E04C0B695A79597958795F5
:101190000A94D2F78D879E87AF87B88B04C0440F1F
:1011A000551F661F771FEA95D2F789819A81AB8117
:1011B000BC8104C0B695A795979587952A95D2F7D7
:1011C000482B592B6A2B7B2B49875A876B877C8747
:1011D00029853A854B855C856D857E85AF859889A7
:1011E0008A2F60960FB6F894DEBF0FBECDBFCF91A9
:1011F000DF910F91FF90EF900895EF92FF920F9380
:101200001F937B018C0180E0E81680E0F80681E006
:10121000080780E0180788F48FEFE816F10401054D
:10122000110531F028F088E090E0A0E0B0E017C0B0
:1012300080E090E0A0E0B0E012C080E0E81680E03E
:10124000F80680E0080781E0180728F088E190E0C0
:10125000A0E0B0E004C080E190E0A0E0B0E020E2D7
:1012600030E040E050E0281B390B4A0B5B0B04C018
:1012700016950795F794E7948A95D2F7F701EC5203
:10128000FF4F8081281B310941095109C9011F9174
:101290000F91FF90EF900895DF92EF92FF920F93DE
:1012A0001F93FC01E480F58006811781D180808145
:1012B000823048F480E090E0A0E1B0E0E82AF92A2A
:1012C0000A2B1B2BA5C0843009F49FC0823021F467
:1012D000EE24FF24870105C0E114F1040105110586
:1012E00019F4E0E0F0E096C0628173819FEF62380C
:1012F00079070CF05BC022E83FEF261B370B2A3141
:1013000031052CF020E030E040E050E02AC0B80188
:10131000A701022E04C076956795579547950A94C4
:10132000D2F781E090E0A0E0B0E004C0880F991F00
:10133000AA1FBB1F2A95D2F70197A109B1098E21D7
:101340009F21A023B1230097A105B10521F081E0E1
:1013500090E0A0E0B0E09A01AB01282B392B4A2B9A
:101360005B2BDA01C9018F779070A070B070803468
:101370009105A105B10539F427FF09C0205C3F4F55
:101380004F4F5F4F04C0215C3F4F4F4F5F4FE0E036
:10139000F0E02030A0E03A07A0E04A07A0E45A07B6
:1013A00010F0E1E0F0E079018A0127C060387105B2
:1013B00064F5FB01E158FF4FD801C7018F779070AA
:1013C000A070B07080349105A105B10539F4E7FE35
:1013D0000DC080E490E0A0E0B0E004C08FE390E0B6
:1013E000A0E0B0E0E80EF91E0A1F1B1F17FF05C0A2
:1013F00016950795F794E794319687E0169507952B
:10140000F794E7948A95D1F705C0EE24FF2487016D
:10141000EFEFF0E06E2F679566276795902F9F7727
:10142000D794DD24D7948E2F8695492F462B582F9D
:101430005D29B701CA011F910F91FF90EF90DF90D6
:101440000895FC01DB01408151812281622F6F7779
:1014500070E0221F2227221F9381892F880F822B61
:10146000282F30E0991F9927991F11969C93119767
:1014700021153105A9F5411551056105710511F4D5
:1014800082E037C082E89FEF13969C938E93129769
:101490009A01AB0167E0220F331F441F551F6A9565
:1014A000D1F783E08C930DC0220F331F441F551FCB
:1014B00012968D919C911397019713969C938E93FE
:1014C0001297203080E0380780E0480780E4580712
:1014D00058F314962D933D934D935C93179708956D
:1014E0002F3F310579F4411551056105710519F456
:1014F00084E08C93089564FF03C081E08C9312C054
:101500001C9210C02F57304013963C932E93129785
:1015100083E08C9387E0440F551F661F771F8A95E1
:10152000D1F7706414964D935D936D937C931797E8
:1015300008951F93DC01FB019C91923008F447C091
:101540008081823008F443C0943051F411961C918C
:10155000843099F58181682F70E0611B71093FC06B
:10156000843021F0923031F48230B9F181818823C6
:1015700089F12DC011961C9111978230F1F0818173
:101580001817D9F412962D913C911397828193816B
:101590008217930794F028173907BCF014968D91A1
:1015A0009D910D90BC91A02D24813581468157815C
:1015B000281739074A075B0718F4112341F00AC0BE
:1015C00082179307A407B50740F4112319F061E0CF
:1015D00070E005C06FEF7FEF02C060E070E0CB010C
:1015E0001F91089591B5987F91BD91B5982B91BDAC
:1015F00081B5886081BD089588E181BD11BC0895E1
:1016000081B5886081BD81B5887F81BD81B581BD8F
:1016100081B5886081BDFFCF10BC83E389B98BB1F0
:10162000837E8BB95998529886E880BD549A539816
:10163000579A8FB780688FBF569855980895813014
:1016400049F0813010F456980895823009F00895D9
:101650005598089557980895813049F0813010F4D5
:10166000569A0895823009F00895559A0895579A28
:1016700008955D9BFECF8CB908956115710571F0D9
:1016800020E030E0FC01E20FF31FE0815D9BFECF24
:10169000ECB92F5F3F4F26173707A0F30895DC0101
:1016A000EC91EE2359F080E05D9BFECFECB98F5FAB
:1016B000FD01E80FF11DE081EE23B1F75D9BFECF48
:1016C0001CB808955F9BFECF8CB10895AC016115E5
:1016D000710571F020E030E05F9BFECF8CB1FA0124
:1016E000E20FF31F80832F5F3F4F26173707A0F3CA
:1016F0000895FC015F9BFECF8CB181938823D1F7C5
:10170000089540E050E05F9BFECF2CB1FC01E40F58
:10171000F51F2083621731F0222319F04F5F5F4FCE
:10172000F2CF0895118208958BB1881F8827881FF2
:1017300008958BB18C710895882311F45098089501
:101740008130E9F7509A08958AB18695817008959D
:10175000FB01909317028093160270930F0260931F
:101760000E025093F6064093F50610921302109263
:1017700012026115710521F060815D9BFECF6CB98D
:1017800008956115710591F09093190280931802E4
:1017900070931102609310025093F9064093F8067B
:1017A0002093F706109215021092140208951F92CA
:1017B0000F920FB60F9211242F933F934F935F9385
:1017C0006F937F938F939F93AF93BF93EF93FF9309
:1017D000E0910E02F0910F023097B9F020911202C1
:1017E000309113022F5F3F4F309313022093120268
:1017F000E20FF31F40814423C9F08091F5069091D8
:10180000F6062817390790F44CB9FF91EF91BF9174
:10181000AF919F918F917F916F915F914F913F9188
:101820002F910F900FBE0F901F9018954CB91092EA
:10183000130210921202E0911602F09117023097F3
:1018400021F30995E2CF1F920F920FB60F92112448
:101850002F933F934F935F936F937F938F939F93B8
:10186000AF93BF93EF93FF93E0911002F0911102B9
:10187000309741F14CB18091140290911502E80F1C
:10188000F91F408320911402309115022F5F3F4FC2
:1018900030931502209314028091F8069091F90676
:1018A0002817390700F18091F706481701F11092C7
:1018B000150210921402E0911802F091190230976B
:1018C00009F00995FF91EF91BF91AF919F918F9191
:1018D0007F916F915F914F913F912F910F900FBE2C
:1018E0000F901F9018958091F706481759F7E091CF
:1018F0001002F0911102E20FF31F4083D8CF0F9333
:101900001F93DF93CF93CDB7DEB72C970FB6F89424
:10191000DEBF0FBECDBF8E010F5F1F4FA8012AE0B3
:101920000E942D16E981EE2359F080E05D9BFECFE9
:10193000ECB98F5FF801E80FF11DE081EE23B1F7FC
:101940005D9BFECF1CB82C960FB6F894DEBF0FBE81
:10195000CDBFCF91DF911F910F91089585B588601C
:1019600085BD85B5806485BD85B5806285BD85B53D
:101970008F7E85BD8F9A14BC13BC89B78F7B89BFBE
:1019800089B78F7789BF85B5887F85BD85B5846028
:1019900085BD089585B5887F85BD85B585BD0895CC
:1019A00085B5887F85BD85B5846085BD089583BD77
:1019B000089583B5089584BD089584B50895882356
:1019C00019F0813029F0089589B78F7B89BF089578
:1019D00089B78F7789BF0895882319F0813029F05E
:1019E000089589B7806489BF089589B7806889BFE1
:1019F00008958F929F92AF92BF92CF92DF92EF9213
:101A0000FF920F931F9314B540911E0250911F0235
:101A10009A0140E050E060E070E080E090E008E093
:101A20000E944401F92F822E810EE1E0821608F017
:101A3000E0E0932E2E2F230F31E0291508F030E03F
:101A4000922E232F240F31E0241708F030E0A22E2D
:101A5000232F250F31E0251708F030E0B22E232F79
:101A6000260F31E0261708F030E0C22E232F270F73
:101A700031E0271708F030E0D22EE82E832F8E0DAC
:101A800091E08E1508F090E09F0F9401A501B6013A
:101A90000E9497022FE632E143E05CE30E941D05BD
:101AA0000E94EF011F910F91FF90EF90DF90CF9078
:101AB000BF90AF909F908F90089514BC10921F021A
:101AC00010921E0208952F923F924F925F926F9252
:101AD0007F928F929F92AF92BF92CF92DF92EF92BE
:101AE000FF920F931F93CF93DF931B012A01A0E076
:101AF000B0E0BC01CD010E94050820E034E244EFD3
:101B00005AE40E941D0520E030E04AE75BE40E94B1
:101B100017067B018C010E94C3013B014C01EB01C4
:101B200080E090E00E9405085B016C01C801B701EC
:101B3000A60195010E94C3061816C4F0F201108296
:101B4000F10171826082DF91CF911F910F91FF901F
:101B5000EF90DF90CF90BF90AF909F908F907F904D
:101B60006F905F904F903F902F900895C801B701FC
:101B7000A60195010E94BF049B01AC0160E070E0EA
:101B800080E89FE30E94BF0420E030E040E853E497
:101B90000E941D050E94C301F20160832196F1019C
:101BA000D183C083D0CF882319F0813031F00895DC
:101BB00070931B0260931A02089570931D02609344
:101BC0001C0208951F920F920FB60F9211242F93AB
:101BD0003F934F935F936F937F938F939F93AF93B5
:101BE000BF93EF93FF93E0911C02F0911D02309799
:101BF00009F00995FF91EF91BF91AF919F918F915E
:101C00007F916F915F914F913F912F910F900FBEF8
:101C10000F901F9018951F920F920FB60F921124DC
:101C20002F933F934F935F936F937F938F939F93E4
:101C3000AF93BF93EF93FF93E0911A02F0911B02D1
:101C4000309709F0099580911E0290911F0201962C
:101C500090931F0280931E02FF91EF91BF91AF916D
:101C60009F918F917F916F915F914F913F912F91B4
:101C70000F900FBE0F901F9018958FB58C7F8FBD62
:101C80008EB5877E8EBD8FB583608FBD8EB5886122
:101C90008EBD8FB58F778FBD8FB58F7B8FBD8FB585
:101CA00080628FBD8FB58F7E8FBD8C9A1DBC1CBC92
:101CB00080E29EE49BBD8ABD8CED95E099BD88BD18
:101CC00089B78B7F89BF89B78F7E89BF89B7877FA7
:101CD00089BF8EB5887F8EBD8EB582608EBD08951A
:101CE0008EB5887F8EBD8EB58EBD08958EB5887FEA
:101CF0008EBD8EB582608EBD08959BBD8ABD089550
:101D00002AB53BB5C901089599BD88BD089528B588
:101D100039B5C90108959DBD8CBD08952CB53DB55B
:101D2000C9010895813079F0813028F0823079F04E
:101D3000833029F0089589B78B7F89BF089589B7CB
:101D40008F7D89BF089589B78F7E89BF089589B730
:101D5000877F89BF0895813079F0813028F0823003
:101D600079F0833029F0089589B7846089BF089598
:101D700089B7806289BF089589B7806189BF089556
:101D800089B7886089BF08952F923F924F925F92E2
:101D90006F927F928F929F92AF92BF92CF92DF927B
:101DA000EF92FF920F931F93CF93DF93CCB5DDB5E6
:101DB00020902802309029024AB55BB54F5F5F4FF3
:101DC0009A0140E050E060E070E080E090E0510176
:101DD000CC24DD24EE24FF2400E010E00E94490022
:101DE000242E952E862E772E682E592EAE01A22EE9
:101DF000AC0EE1E0A21608F0E0E0B32EB50EF1E083
:101E0000B31608F0F0E03E2F3B0D21E03B1508F043
:101E100020E02F2BB32E220D31E0221508F030E008
:101E2000C22E232F290D31E0291508F030E0D22EE3
:101E3000232F280D31E0281508F030E0E22E232F63
:101E4000270D31E0271508F030E0F22E832F860DA4
:101E500091E0861508F090E0950D9501A601B70177
:101E60000E9497022FE632E143E85AE30E941D05E3
:101E70000E94EF01DF91CF911F910F91FF90EF90A2
:101E8000DF90CF90BF90AF909F908F907F906F909A
:101E90005F904F903F902F9008951DBC1CBC1092F6
:101EA00029021092280208952F923F924F925F923A
:101EB0006F927F928F929F92AF92BF92CF92DF925A
:101EC000EF92FF920F931F93CF93DF931B012A0191
:101ED000EAB4FBB4A0E0B0E0BC01CD010E9405086B
:101EE00020E034E244EF5AE40E941D055B016C01DE
:101EF0000894E11CF11CEE0CFF1CEE0CFF1CEE0C18
:101F0000FF1C00E010E0C801B7010E94050820E0B6
:101F100030E04AE754E40E941D059B01AC01C60174
:101F2000B5010E9417065B016C010E94C3017B0191
:101F30008C01EB0180E090E00E9405083B014C0120
:101F4000C601B501A40193010E94C3061816CCF086
:101F5000F20111821082F101F182E082DF91CF91D2
:101F60001F910F91FF90EF90DF90CF90BF90AF90B7
:101F70009F908F907F906F905F904F903F902F90A9
:101F80000895EAB4FBB4C601B501A40193010E940F
:101F9000BF049B01AC0160E070E080E89FE30E9419
:101FA000BF045B016C010894E11CF11C00E010E02F
:101FB000C801B7010E9405089B01AC01C601B5012B
:101FC0000E941D050E94C301F20171836083219666
:101FD000F101D183C083C2CF843040F4E82FF0E018
:101FE000EE0FFF1FE05EFD4F7183608308958EB595
:101FF0008F778EBD8EB580648EBD8E9808958EB518
:102000008F7B8EBD08958EB580648EBD089588B790
:10201000806288BF089588B78295869581700895FB
:1020200026B537B5C90108951F920F920FB60F92CA
:1020300011242F933F934F935F936F937F938F93CD
:102040009F93AF93BF93EF93FF93E0912202F091A0
:102050002302309709F00995FF91EF91BF91AF915D
:102060009F918F917F916F915F914F913F912F91B0
:102070000F900FBE0F901F9018951F920F920FB6E2
:102080000F9211242F933F934F935F936F937F93FE
:102090008F939F93AF93BF93EF93FF93E0912402AD
:1020A000F0912502309709F00995FF91EF91BF91CA
:1020B000AF919F918F917F916F915F914F913F91E0
:1020C0002F910F900FBE0F901F9018951F920F9297
:1020D0000FB60F9211242F933F934F935F936F93FB
:1020E0007F938F939F93AF93BF93EF93FF93E09171
:1020F0002002F0912102309709F00995FF91EF91AC
:10210000BF91AF919F918F917F916F915F914F910F
:102110003F912F910F900FBE0F901F9018951F9217
:102120000F920FB60F9211242F933F934F935F930B
:102130006F937F938F939F93AF93BF93EF93FF938F
:10214000E0912602F0912702309709F00995FF915E
:10215000EF91BF91AF919F918F917F916F915F911F
:102160004F913F912F910F900FBE0F901F90189598
:1021700083B7877F83BF83B78F7B83BF83B78F7D11
:1021800083BF83B78F7E83BF12BE1CBE88B78160BA
:1021900088BF89B7816089BF8FB780688FBF89B7D3
:1021A0008D7F89BF83B7887F83BF83B7846083BFF8
:1021B000089583B7887F83BF83B783BF089583B7AC
:1021C000887F83BF83B7846083BF08958CBF0895E1
:1021D0008CB7089582BF089582B70895882319F0B7
:1021E000813029F0089589B78E7F89BF089589B716
:1021F0008D7F89BF0895882319F0813029F00895D3
:1022000089B7816089BF089589B7826089BF0895C1
:102210008F929F92AF92BF92CF92DF92EF92FF92F6
:102220000F931F9312B740912E0250912F029A01E3
:1022300040E050E060E070E080E090E008E00E9464
:102240004401F92F822E810EE1E0821608F0E0E0D1
:10225000932E2E2F230F31E0291508F030E0922E17
:10226000232F240F31E0241708F030E0A22E232F73
:10227000250F31E0251708F030E0B22E232F260F6E
:1022800031E0261708F030E0C22E232F270F31E06F
:10229000271708F030E0D22EE82E832F8E0D91E024
:1022A0008E1508F090E09F0F9401A501B6010E94E1
:1022B00097022FE632E143E05DE30E941D050E9494
:1022C000EF011F910F91FF90EF90DF90CF90BF90A3
:1022D000AF909F908F90089512BE10922F0210928F
:1022E0002E0208952F923F924F925F926F927F92AB
:1022F0008F929F92AF92BF92CF92DF92EF92FF9216
:102300000F931F93CF93DF931B012A01A0E0B0E04E
:10231000BC01CD010E94050820E034E244EF5AE4FC
:102320000E941D0520E030E04AE75CE40E941706A9
:102330007B018C010E94C3013B014C01EB0180E059
:1023400090E00E9405085B016C01C801B701A6017D
:1023500095010E94C3061816C4F0F2011082F10123
:1023600071826082DF91CF911F910F91FF90EF906A
:10237000DF90CF90BF90AF909F908F907F906F90A5
:102380005F904F903F902F900895C801B701A6012C
:1023900095010E94BF049B01AC0160E070E080E801
:1023A0009FE30E94BF0420E030E040E853E40E9435
:1023B0001D050E94C301F20160832196F101D183C2
:1023C000C083D0CF882319F0813031F00895709305
:1023D0002B0260932A02089570932D0260932C02C1
:1023E00008951F920F920FB60F9211242F933F93CF
:1023F0004F935F936F937F938F939F93AF93BF930D
:10240000EF93FF93E0912C02F0912D02309709F0A9
:102410000995FF91EF91BF91AF919F918F917F911E
:102420006F915F914F913F912F910F900FBE0F9041
:102430001F9018951F920F920FB60F9211242F9391
:102440003F934F935F936F937F938F939F93AF933C
:10245000BF93EF93FF93E0912A02F0912B02309704
:1024600009F0099580912E0290912F020196909388
:102470002F0280932E02FF91EF91BF91AF919F9118
:102480008F917F916F915F914F913F912F910F901D
:102490000FBE0F901F90189524E08030920760F4D3
:1024A000E199FECF9FBB8EBB6DBB9FB78FB78F7778
:1024B0008FBFE29AE19A9FBF089524E0803092078F
:1024C00038F4E199FECF9FBB8EBBE09A8DB308959F
:1024D00080E00895E39A0895E39808959093310277
:1024E0008093300208951F920F920FB60F9211241D
:1024F0002F933F934F935F936F937F938F939F930C
:10250000AF93BF93EF93FF93E0913002F0913102CC
:10251000309709F00995FF91EF91BF91AF919F918D
:102520008F917F916F915F914F913F912F910F907C
:102530000FBE0F901F901895DC0161157105D1F049
:10254000840F911D81509440A8F4442399F0FB011D
:102550009D0184E02030380770F4E199FECF3FBB45
:102560002EBBE09A8DB381932F5F3F4F822F8A1B42
:10257000841778F3089580E0F6CFDC0161157105CA
:1025800009F1840F911D81509440E0F44423D1F06F
:10259000562FCB01FC01808194E0A030B90760F494
:1025A000E199FECFBFBBAEBB8DBB9FB78FB78F7717
:1025B0008FBFE29AE19A9FBF319611968E2F851BAD
:1025C000841748F30895DF93CF9300D000D0CDB7A0
:1025D000DEB79C0149835A836B837C8304968150C8
:1025E0009440E0F4FE013196AE014B5F5F4F808175
:1025F00094E02030390760F4E199FECF3FBB2EBB59
:102600008DBB9FB78FB78F778FBFE29AE19A9FBF3D
:1026100031962F5F3F4FE417F50749F70F900F9062
:102620000F900F90CF91DF910895DF93CF9300D05B
:1026300000D0CDB7DEB79C0149835A836B837C837E
:10264000049681509440E0F4FE013196AE014B5F58
:102650005F4F808194E02030390760F4E199FECF2C
:102660003FBB2EBB8DBB9FB78FB78F778FBFE29AD3
:10267000E19A9FBF31962F5F3F4FE417F50749F767
:102680000F900F900F900F90CF91DF910895DF93EF
:10269000CF9300D0CDB7DEB79C017A8369830296D1
:1026A00081509440E0F4FE013196AE014D5F5F4FE2
:1026B000808194E02030390760F4E199FECF3FBB80
:1026C0002EBB8DBB9FB78FB78F778FBFE29AE19AF2
:1026D0009FBF31962F5F3F4FE417F50749F70F90E3
:1026E0000F90CF91DF910895DF93CF9300D000D06A
:1026F000CDB7DEB79C01049681509440A8F4FE014A
:102700003196AE014B5F5F4F84E020303807C8F44C
:10271000E199FECF3FBB2EBBE09A8DB381932F5F33
:102720003F4FE417F50781F729813A814B815C819E
:10273000B901CA010F900F900F900F90CF91DF91C8
:10274000089580E0EBCFDF93CF9300D0CDB7DEB715
:102750009C01029681509440A8F4FE013196AE018E
:102760004D5F5F4F84E02030380798F4E199FECF49
:102770003FBB2EBBE09A8DB381932F5F3F4FE41791
:10278000F50781F789819A810F900F90CF91DF91A2
:10279000089580E0F1CFDF93CF9300D000D0CDB784
:1027A000DEB79C01049681509440A8F4FE01319656
:1027B000AE014B5F5F4F84E020303807B8F4E199F9
:1027C000FECF3FBB2EBBE09A8DB381932F5F3F4F6F
:1027D000E417F50781F769817A818B819C810F90DD
:1027E0000F900F900F90CF91DF91089580E0EDCF83
:1027F000413061F1413090F4813009F452C08130B0
:1028000008F071C02AB381E090E002C0880F991FE0
:102810006A95E2F7809582238ABB0895423009F0D9
:102820000895813071F1813008F047C03AB381E0FA
:1028300090E002C0880F991F6A95E2F7282F209533
:1028400023232ABB2BB3822B8BBB0895813071F0DD
:10285000813008F059C02AB381E090E002C0880FAF
:10286000991F6A95E2F7282B2ABB089527B381E0C8
:1028700090E002C0880F991F6A95E2F7282B27BBCA
:10288000089537B381E090E002C0880F991F6A95E0
:10289000E2F7282F2095232327BB28B3822B88BB60
:1028A000089527B381E090E002C0880F991F6A95D0
:1028B000E2F78095822387BB0895823009F44BC0EC
:1028C000833009F0ADCF31B381E090E002C0880FD2
:1028D000991F6A95E2F7282F2095232321BB22B365
:1028E000822B82BB0895823051F1833009F098CF5A
:1028F00021B381E090E002C0880F991F6A95E2F74A
:102900008095822381BB0895823071F0833009F075
:1029100087CF21B381E090E002C0880F991F6A95AC
:10292000E2F7282B21BB089524B381E090E002C098
:10293000880F991F6A95E2F7282B24BB089524B3CA
:1029400081E090E002C0880F991F6A95E2F78095B8
:10295000822384BB089534B381E090E002C0880FE5
:10296000991F6A95E2F7282F2095232324BB25B3CE
:10297000822B85BB0895813059F0813028F0823058
:1029800049F0833019F008956ABB089561BB08953A
:1029900067BB089564BB0895442359F48130B9F1AD
:1029A000813048F1823009F460C0833009F43BC0C3
:1029B00008954130E9F7813009F44CC0813080F04E
:1029C000823009F43CC0833099F722B381E090E073
:1029D00002C0880F991F6A95E2F7282B22BB089541
:1029E0002BB381E090E002C0880F991F6A95E2F74F
:1029F000282B2BBB08952BB381E090E002C0880FF9
:102A0000991F6A95E2F7809582238BBB089528B3BE
:102A100081E090E002C0880F991F6A95E2F78095E7
:102A2000822388BB089522B381E090E002C0880F22
:102A3000991F6A95E2F78095822382BB089525B39A
:102A400081E090E002C0880F991F6A95E2F7282B79
:102A500025BB089528B381E090E002C0880F991F3C
:102A60006A95E2F7282B28BB089525B381E090E012
:102A700002C0880F991F6A95E2F78095822385BB73
:102A80000895813059F0813028F0823049F0833048
:102A900019F008956BBB089562BB089568BB089553
:102AA00065BB08958130D1F0813030F08230F9F08B
:102AB000833059F080E0089589B390E002C0959585
:102AC00087956A95E2F78170089580B390E002C01F
:102AD000959587956A95E2F78170089586B390E0A1
:102AE00002C0959587956A95E2F78170089583B342
:102AF00090E002C0959587956A95E2F781700895F8
:102B0000813061F0813030F0823051F0833021F03B
:102B100080E0089589B3089580B3089586B3089539
:102B200083B308958130E9F0813028F0823021F1BB
:102B3000833061F008952BB381E090E002C0880FEC
:102B4000991F6A95E2F728272BBB089522B381E0ED
:102B500090E002C0880F991F6A95E2F7282722BBF0
:102B6000089528B381E090E002C0880F991F6A950C
:102B7000E2F7282728BB089525B381E090E002C042
:102B8000880F991F6A95E2F7282725BB08958130A1
:102B900079F0813028F0823079F0833029F008957F
:102BA0008BB380958BBB089582B3809582BB0895CB
:102BB00088B3809588BB089585B3809585BB0895BB
:102BC0006295607F8130A9F0813028F08230C1F0B9
:102BD000833041F008958BB38F708BBB8BB3682B20
:102BE0006BBB089582B38F7082BB82B3682B62BBCC
:102BF000089588B38F7088BB88B3682B68BB08952D
:102C000085B38F7085BB85B3682B65BB08956F70E6
:102C10008130A9F0813028F08230C1F0833041F05A
:102C200008958BB3807F8BBB8BB3682B6BBB0895F0
:102C300082B3807F82BB82B3682B62BB089588B366
:102C4000807F88BB88B3682B68BB089585B3807F7D
:102C500085BB85B3682B65BB08958F929F92AF9219
:102C6000BF92CF92DF92EF92FF920F931F93CF9379
:102C7000DF937B018C01EA01822F82508F30F0F5C7
:102C8000E114F1040105110549F117FD59C088242B
:102C9000A22EBB24CC24DD24992415C0695CFE013E
:102CA000E90DF11D60839394C801B701A601950158
:102CB0000E94412BC901DA017C018D01E114F1046C
:102CC00001051105E9F0C801B701A60195010E94AF
:102CD000412B6A30710514F7605DE1CF80E3888392
:102CE0001982DF91CF911F910F91FF90EF90DF90AC
:102CF000CF90BF90AF909F908F9008951882F1CFA2
:102D00008820B9F4FE01E90DF11D1082392D3150F2
:102D100041F320E0FE01E20FF11D9081DE01A30FDF
:102D2000B11D8C9180832F5F9C933150231790F3BA
:102D3000D8CFFE01E90DF11D8DE280839394E2CF9F
:102D40002A3009F0A4CF10950095F094E094E11C8E
:102D5000F11C011D111D882483949ACFAF92BF925C
:102D6000DF92EF92FF920F931F93DF93CF930F9217
:102D7000CDB7DEB75C01FC01D080FDE2DF1609F4BF
:102D800040C019828D2D80538A3008F042C0EE2455
:102D9000FF248701C801B7012AE030E040E050E09D
:102DA0000E94F42A2D2D30E0205330407901002775
:102DB000F7FC0095102FE60EF71E081F191F089448
:102DC000A11CB11CF501D0808D2D80538A3010F3E9
:102DD000A8019701F981F13039F422273327A9019D
:102DE0002E193F09400B510BB901CA010F90CF9129
:102DF000DF911F910F91FF90EF90DF90BF90AF9008
:102E000008950894A11CB11CF501D080F1E0F9836C
:102E1000B9CFEE24FF24870120E030E040E050E00D
:102E2000D9CF2F923F924F925F926F927F928F9263
:102E30009F92AF92BF92CF92DF920F93DF93CF9387
:102E4000CDB7DEB72C970FB6F894DEBF0FBECDBF5F
:102E5000FC0160816D3209F49AC01A82CF0101969B
:102E60009C878B870F2EF0E02F2EF0E03F2EF0E0B6
:102E70004F2EF0E05F2EF02D6201510181E0682EAF
:102E8000712C812C912C19822DC0C401B3012AE030
:102E900030E040E050E00E94F42A3B014C01C601C2
:102EA000B50120E030E040E251E40E941D056B8353
:102EB0007C838D839E83602F70E0882777FD8095CB
:102EC000982F0E9453079B01AC016B817C818D81FF
:102ED0009E810E94F0045B016C01EB85FC85619191
:102EE000FC87EB87662359F16E3231F1062F0053D0
:102EF0000A3028F5A981AA2341F6C201B10120E0D8
:102F000030E040E251E40E941D056F837887898795
:102F10009A87602F70E0882777FD8095982F0E9410
:102F200053079B01AC016F81788589859A850E9442
:102F3000F0041B012C01D1CF91E09983CECFC401C5
:102F4000B3010E9453079B01AC01C601B5010E9469
:102F50001706A20191010E94F004FA81F13009F4F0
:102F600090582C960FB6F894DEBF0FBECDBFCF9110
:102F7000DF910F91DF90CF90BF90AF909F908F9097
:102F80007F906F905F904F903F902F900895319673
:102F9000608121E02A8362CF482F6AE00E94132BD0
:102FA000282F30E022953295307F3227207F32273C
:102FB000842F0E94132B892F822B0895282F22956E
:102FC0002F709AE0299F900111248F70820F08952D
:102FD0005F926F927F928F929F92AF92BF92CF92A9
:102FE000DF92EF92FF920F931F93CF93DF934B01EA
:102FF0005C018A01622E20E030E040E050E00E9457
:10300000230788230CF4DBC0C501B4010E94B1077B
:103010006B017C010E9453079B01AC01C501B40107
:103020000E94BF044B015C01C114D104E104F1040E
:1030300009F4CEC0F7FCDBC055247724C701B601E4
:103040002AE030E040E050E00E94412B262F862FFE
:10305000895C205DF801E70DF11D6A3071050CF007
:10306000282F20837394C701B6012AE030E040E0A6
:1030700050E00E94412BC901DA016C017D01C114AD
:10308000D104E104F104D1F6552009F0A9C0F801FA
:10309000E70DF11D1082372D315079F020E0F80155
:1030A000E20FF11D9081D801A30FB11D8C91808397
:1030B0002F5F9C933150231790F3F8013196EF0165
:1030C000D8018C91882311F407C031968F0180813B
:1030D0008823D9F7E80121968EE2F80180836620E3
:1030E00071F000E0C501B40120E030E040E251E4BD
:1030F0000E941D054B015C010F5F061598F3C50189
:10310000B40120E030E040E05FE30E94F0040E9460
:10311000C3016B017C01611571058105910509F4FD
:1031200049C0BB241BC08E010B0D111DC701B60188
:103130002AE030E040E050E00E941F2B605DD801A3
:103140006C93B394C701B6012AE030E040E050E050
:103150000E941F2BC901DA016C017D01C114D10449
:10316000E104F10401F7B614F0F23B2D315079F08F
:1031700020E0FE01E20FF11D9081DE01A30FB11DE1
:103180008C9180832F5F9C933150231790F3CB0D4C
:10319000D11D1882DF91CF911F910F91FF90EF9079
:1031A000DF90CF90BF90AF909F908F907F906F9067
:1031B0005F90089580E38883BB24B394CFCF8DE2E2
:1031C000D8018D938D01B7FAB094B7F8B0941CCFA5
:1031D000F80180E38193EF01D80111961C9270CF22
:1031E000F801E70DF11D8DE28083739450CFF094C8
:1031F000E094D094C094C11CD11CE11CF11C552456
:1032000053941BCFFF920F931F93CF93DF93182FED
:1032100043E0F42EF822082F0295069507708F2DB3
:10322000602F41E00E94F8131695169517708F2DA8
:10323000612F40E00E94F8138F2D602F41E00E9423
:10324000CC148AE18A95F1F78F2D602F40E00E941F
:10325000CC148F2D612F0E9452158823D1F30E9428
:103260008E0EEC018F2D612F0E9452158130D1F30B
:103270000E948E0E8C018C179D07D8F10C1B1D0B24
:10328000B80180E090E020E030E048EC50E0FA0146
:103290003197F1F72F5F3F4FE2E028353E07B9F74E
:1032A000660F771F881F991F660F771F881F991F4A
:1032B000660F771F881F991F0E9405082DEC32EBBF
:1032C00046E856E40E941D0520E034E244EF5AE44B
:1032D0000E94170626ED3DE34DE85EE30E94F004F0
:1032E0000E94C301CB01DF91CF911F910F91FF90FD
:1032F00008950E94800E080F191F0F5F1F4FBECF49
:10330000682F865A853B08F00895772767FD7095EA
:10331000665A7F4F882777FD8095982F0E94530724
:103320002CE137EC41EB50E40E941D0520E030E039
:103330004AE754E40E94F0040E94C301DC01CB017F
:103340000E94840E08958091320208958091330284
:1033500008950F931F93182F83E062E041E00E94CD
:10336000CC14412F4295417082E064E00E94CC145D
:10337000412F42954695417082E065E00E94CC1451
:10338000412F429546954695417082E066E00E9445
:10339000CC14412F441F4427441F82E067E00E9461
:1033A000CC1483E063E041E00E94CC140AE1802F5A
:1033B0008A95F1F783E063E040E00E94CC14802F0F
:1033C0008A95F1F7412F417082E064E00E94CC14AD
:1033D000412F4695417082E065E00E94CC1416951D
:1033E0001695412F417082E066E00E94CC1416953C
:1033F000117082E067E0412F0E94CC1483E063E00B
:1034000041E00E94CC140A95F1F783E063E040E0CC
:103410000E94CC1480EA8A95F1F71F910F910895CC
:103420000F931F93182F83E062E040E00E94CC14BA
:10343000412F4295417082E064E00E94CC14412FFC
:1034400042954695417082E065E00E94CC14412F80
:10345000429546954695417082E066E00E94CC1404
:10346000412F441F4427441F82E067E00E94CC1490
:1034700083E063E041E00E94CC140AE1802F8A954A
:10348000F1F783E063E040E00E94CC14802F8A953E
:10349000F1F7412F417082E064E00E94CC14412F8B
:1034A0004695417082E065E00E94CC141695169511
:1034B000412F417082E066E00E94CC141695117095
:1034C00082E067E0412F0E94CC1483E063E041E09A
:1034D0000E94CC140A95F1F783E063E040E00E947B
:1034E000CC1480EA8A95F1F71F910F910895EF921D
:1034F000FF920F931F93CF93DF93EC011881112359
:1035000009F473C000E09AE1F92E80EAE82E83E026
:1035100062E041E00E94CC14412F4295417082E06C
:1035200064E00E94CC14412F42954695417082E0A0
:1035300065E00E94CC14412F429546954695417016
:1035400082E066E00E94CC14412F441F4427441FB0
:1035500082E067E00E94CC1483E063E041E00E94D7
:10356000CC148F2D8A95F1F783E063E040E00E9450
:10357000CC148F2D8A95F1F7412F417082E064E0E1
:103580000E94CC14412F4695417082E065E00E9474
:10359000CC1416951695412F417082E066E00E948A
:1035A000CC141695117082E067E0412F0E94CC1474
:1035B00083E063E041E00E94CC148F2D8A95F1F7FF
:1035C00083E063E040E00E94CC148E2D8A95F1F7F1
:1035D000809133028F5F809333020F5FFE01E00F13
:1035E000F11D1081112309F092CFDF91CF911F912E
:1035F0000F91FF90EF9008950F931F93182F83E082
:1036000062E041E00E94CC14412F4295417082E07B
:1036100064E00E94CC14412F42954695417082E0AF
:1036200065E00E94CC14412F429546954695417025
:1036300082E066E00E94CC14412F441F4427441FBF
:1036400082E067E00E94CC1483E063E041E00E94E6
:10365000CC140AE1802F8A95F1F783E063E040E023
:103660000E94CC14802F8A95F1F7412F417082E09F
:1036700064E00E94CC14412F4695417082E065E0E1
:103680000E94CC1416951695412F417082E066E099
:103690000E94CC141695117082E067E0412F0E94C1
:1036A000CC1483E063E041E00E94CC140A95F1F76A
:1036B00083E063E040E00E94CC1480EA8A95F1F751
:1036C000809133028F5F809333021F910F91089591
:1036D000CF92DF92EF92FF920F931F93DF93CF93DE
:1036E000CDB7DEB72C970FB6F894DEBF0FBECDBFB7
:1036F0006E010894C11CD11CA6012AE00E942D165F
:103700001981112309F473C000E03AE1F32E20EA95
:10371000E22E83E062E041E00E94CC14412F42950A
:10372000417082E064E00E94CC14412F429546959E
:10373000417082E065E00E94CC14412F429546958D
:103740004695417082E066E00E94CC14412F441FF0
:103750004427441F82E067E00E94CC1483E063E0CA
:1037600041E00E94CC148F2D8A95F1F783E063E04D
:1037700040E00E94CC148F2D8A95F1F7412F4170C3
:1037800082E064E00E94CC14412F4695417082E0B3
:1037900065E00E94CC1416951695412F417082E089
:1037A00066E00E94CC141695117082E067E0412F0C
:1037B0000E94CC1483E063E041E00E94CC148F2D82
:1037C0008A95F1F783E063E040E00E94CC148E2DEF
:1037D0008A95F1F7809133028F5F809333020F5FF8
:1037E000F601E00FF11D1081112309F092CF2C9604
:1037F0000FB6F894DEBF0FBECDBFCF91DF911F9102
:103800000F91FF90EF90DF90CF9008951F9383E08A
:1038100062E040E00E94CC1482E064E041E00E945B
:10382000CC1482E065E040E00E94CC1482E066E0C7
:1038300040E00E94CC1482E067E040E00E94CC149B
:1038400083E063E041E00E94CC141AE1812F8A9565
:10385000F1F783E063E040E00E94CC14812F8A9569
:10386000F1F782E064E040E00E94CC1482E065E081
:1038700040E00E94CC1482E066E041E00E94CC145B
:1038800082E067E041E00E94CC1483E063E041E025
:103890000E94CC141A95F1F783E063E040E00E94A7
:1038A000CC1480EA8A95F1F7809133028F5F809380
:1038B00033021F9108951F9383E062E040E00E946D
:1038C000CC1482E064E041E00E94CC1482E065E028
:1038D00040E00E94CC1482E066E040E00E94CC14FC
:1038E00082E067E040E00E94CC1483E063E041E0C6
:1038F0000E94CC141AE1812F8A95F1F783E063E0EE
:1039000040E00E94CC14812F8A95F1F782E064E0B8
:1039100040E00E94CC1482E065E040E00E94CC14BC
:1039200082E066E040E00E94CC1482E067E041E083
:103930000E94CC1483E063E041E00E94CC141A950D
:10394000F1F783E063E040E00E94CC1480EA8A95BE
:10395000F1F780913302882319F08150809333026C
:103960001F9108951F9383E062E040E00E94CC1411
:1039700082E064E040E00E94CC1482E065E040E038
:103980000E94CC1482E066E040E00E94CC1482E009
:1039900067E040E00E94CC1483E063E041E00E94D5
:1039A000CC141AE1812F8A95F1F783E063E040E0BF
:1039B0000E94CC14812F8A95F1F782E064E041E007
:1039C0000E94CC1482E065E040E00E94CC1482E0CA
:1039D00066E040E00E94CC1482E067E040E00E9494
:1039E000CC1483E063E041E00E94CC141A95F1F717
:1039F00083E063E040E00E94CC1480EA8A95F1F70E
:103A0000109232021092330280EA9FE00197F1F7A0
:103A10001F910895EF92FF920F931F9383E062E04E
:103A200041E00E94F81383E063E041E00E94F81354
:103A300082E064E041E00E94F81382E065E041E04A
:103A40000E94F81382E066E041E00E94F81382E0F1
:103A500067E041E00E94F81320E030E048EC50E0DD
:103A6000CA010197F1F72F5F3F4F81E0243F3807EC
:103A7000B9F783E062E040E00E94CC1482E064E0A9
:103A800040E00E94CC1482E065E040E00E94CC144B
:103A900082E066E040E00E94CC1482E067E040E013
:103AA0000E94CC1483E063E041E00E94CC141AE150
:103AB000812F8A95F1F783E063E040E00E94CC1407
:103AC000812F8A95F1F782E064E040E00E94CC14F7
:103AD00082E065E041E00E94CC1482E066E040E0D4
:103AE0000E94CC1482E067E040E00E94CC1483E0A6
:103AF00063E041E00E94CC14812F8A95F1F783E0C6
:103B000063E040E00E94CC1400EA802F8A95F1F730
:103B100040EAE42E4FE0F42EC7010197F1F783E06D
:103B200062E040E00E94CC1482E064E040E00E9449
:103B3000CC1482E065E041E00E94CC1482E066E0B3
:103B400040E00E94CC1482E067E040E00E94CC1488
:103B500083E063E041E00E94CC14812F8A95F1F765
:103B600083E063E040E00E94CC14812F8A95F1F756
:103B700082E064E040E00E94CC1482E065E040E036
:103B80000E94CC1482E066E040E00E94CC1482E007
:103B900067E041E00E94CC1483E063E041E00E94D2
:103BA000CC14812F8A95F1F783E063E040E00E9416
:103BB000CC14802F8A95F1F783E062E040E00E9408
:103BC000CC1482E064E040E00E94CC1482E065E026
:103BD00040E00E94CC1482E066E040E00E94CC14F9
:103BE00082E067E040E00E94CC1483E063E041E0C3
:103BF0000E94CC14812F8A95F1F783E063E040E0C6
:103C00000E94CC14812F8A95F1F782E064E040E0B5
:103C10000E94CC1482E065E040E00E94CC1482E077
:103C200066E041E00E94CC1482E067E041E00E943F
:103C3000CC1483E063E041E00E94CC14812F8A958C
:103C4000F1F783E063E040E00E94CC14802F8A9576
:103C5000F1F783E062E040E00E94CC1482E064E08F
:103C600040E00E94CC1482E065E040E00E94CC1469
:103C700082E066E040E00E94CC1482E067E040E031
:103C80000E94CC1483E063E041E00E94CC14812FB9
:103C90008A95F1F783E063E040E00E94CC14812F25
:103CA0008A95F1F782E064E040E00E94CC1482E063
:103CB00065E041E00E94CC1482E066E041E00E94B1
:103CC000CC1482E067E040E00E94CC1483E063E023
:103CD00041E00E94CC14812F8A95F1F783E063E0E4
:103CE00040E00E94CC14802F8A95F1F783E062E0D7
:103CF00040E00E94CC1482E064E040E00E94CC14DA
:103D000082E065E040E00E94CC1482E066E040E0A2
:103D10000E94CC1482E067E040E00E94CC1483E073
:103D200063E041E00E94CC14812F8A95F1F783E093
:103D300063E040E00E94CC14812F8A95F1F782E085
:103D400064E041E00E94CC1482E065E040E00E9423
:103D5000CC1482E066E040E00E94CC1482E067E090
:103D600040E00E94CC1483E063E041E00E94CC1468
:103D70001A95F1F783E063E040E00E94CC140A95C5
:103D8000F1F7C7010197F1F71F910F91FF90EF90A5
:103D90000895FF920F931F93CF93DF93EC01683048
:103DA00030F0DF91CF911F910F91FF900895162F62
:103DB000110F110F110F106483E062E040E00E94C8
:103DC000CC14412F4295417082E064E00E94CC14F3
:103DD000412F42954695417082E065E00E94CC14E7
:103DE000412F429546954695417082E066E00E94DB
:103DF000CC14412F441F4427441F82E067E00E94F7
:103E0000CC1483E063E041E00E94CC140AE1802FEF
:103E10008A95F1F783E063E040E00E94CC14802FA4
:103E20008A95F1F7412F417082E064E00E94CC1442
:103E300082E065E040E00E94CC1482E066E040E071
:103E40000E94CC14169516951695117082E067E0C5
:103E5000412F0E94CC1483E063E041E00E94CC1427
:103E6000802F8A95F1F783E063E040E00E94CC1454
:103E700050EAF52E8F2D8A95F1F7188183E062E0E4
:103E800041E00E94CC14412F4295417082E064E0F1
:103E90000E94CC14412F42954695417082E065E026
:103EA0000E94CC14412F429546954695417082E080
:103EB00066E00E94CC14412F441F4427441F82E037
:103EC00067E00E94CC1483E063E041E00E94CC14E0
:103ED000802F8A95F1F783E063E040E00E94CC14E4
:103EE000802F8A95F1F7412F417082E064E00E94B3
:103EF000CC14412F4695417082E065E00E94CC14BD
:103F000016951695412F417082E066E00E94CC1410
:103F10001695117082E067E0412F0E94CC1483E077
:103F200063E041E00E94CC14802F8A95F1F783E092
:103F300063E040E00E94CC148F2D8A95F1F719813F
:103F400083E062E041E00E94CC14412F4295417031
:103F500082E064E00E94CC14412F42954695417066
:103F600082E065E00E94CC14412F4295469546952B
:103F7000417082E066E00E94CC14412F441F442728
:103F8000441F82E067E00E94CC1483E063E041E0DC
:103F90000E94CC14802F8A95F1F783E063E040E023
:103FA0000E94CC14802F8A95F1F7412F417082E056
:103FB00064E00E94CC14412F4695417082E065E098
:103FC0000E94CC1416951695412F417082E066E050
:103FD0000E94CC141695117082E067E0412F0E9478
:103FE000CC1483E063E041E00E94CC14802F8A95DA
:103FF000F1F783E063E040E00E94CC148F2D8A95B6
:10400000F1F71A8183E062E041E00E94CC14412F75
:104010004295417082E064E00E94CC14412F4295A9
:104020004695417082E065E00E94CC14412F429594
:1040300046954695417082E066E00E94CC14412F7F
:10404000441F4427441F82E067E00E94CC1483E0B1
:1040500063E041E00E94CC14802F8A95F1F783E061
:1040600063E040E00E94CC14802F8A95F1F7412F45
:10407000417082E064E00E94CC14412F469541706B
:1040800082E065E00E94CC1416951695412F417090
:1040900082E066E00E94CC141695117082E067E021
:1040A000412F0E94CC1483E063E041E00E94CC14D5
:1040B000802F8A95F1F783E063E040E00E94CC1402
:1040C0008F2D8A95F1F71B8183E062E041E00E9429
:1040D000CC14412F4295417082E064E00E94CC14E0
:1040E000412F42954695417082E065E00E94CC14D4
:1040F000412F429546954695417082E066E00E94C8
:10410000CC14412F441F4427441F82E067E00E94E3
:10411000CC1483E063E041E00E94CC14802F8A95A8
:10412000F1F783E063E040E00E94CC14802F8A9591
:10413000F1F7412F417082E064E00E94CC14412FDE
:104140004695417082E065E00E94CC141695169564
:10415000412F417082E066E00E94CC1416951170E8
:1041600082E067E0412F0E94CC1483E063E041E0ED
:104170000E94CC14802F8A95F1F783E063E040E041
:104180000E94CC148F2D8A95F1F71C8183E062E0A8
:1041900041E00E94CC14412F4295417082E064E0DE
:1041A0000E94CC14412F42954695417082E065E013
:1041B0000E94CC14412F429546954695417082E06D
:1041C00066E00E94CC14412F441F4427441F82E024
:1041D00067E00E94CC1483E063E041E00E94CC14CD
:1041E000802F8A95F1F783E063E040E00E94CC14D1
:1041F000802F8A95F1F7412F417082E064E00E94A0
:10420000CC14412F4695417082E065E00E94CC14A9
:1042100016951695412F417082E066E00E94CC14FD
:104220001695117082E067E0412F0E94CC1483E064
:1042300063E041E00E94CC14802F8A95F1F783E07F
:1042400063E040E00E94CC148F2D8A95F1F71D8128
:1042500083E062E041E00E94CC14412F429541701E
:1042600082E064E00E94CC14412F42954695417053
:1042700082E065E00E94CC14412F42954695469518
:10428000417082E066E00E94CC14412F441F442715
:10429000441F82E067E00E94CC1483E063E041E0C9
:1042A0000E94CC14802F8A95F1F783E063E040E010
:1042B0000E94CC14802F8A95F1F7412F417082E043
:1042C00064E00E94CC14412F4695417082E065E085
:1042D0000E94CC1416951695412F417082E066E03D
:1042E0000E94CC141695117082E067E0412F0E9465
:1042F000CC1483E063E041E00E94CC14802F8A95C7
:10430000F1F783E063E040E00E94CC148F2D8A95A2
:10431000F1F71E8183E062E041E00E94CC14412F5E
:104320004295417082E064E00E94CC14412F429596
:104330004695417082E065E00E94CC14412F429581
:1043400046954695417082E066E00E94CC14412F6C
:10435000441F4427441F82E067E00E94CC1483E09E
:1043600063E041E00E94CC14802F8A95F1F783E04E
:1043700063E040E00E94CC14802F8A95F1F7412F32
:10438000417082E064E00E94CC14412F4695417058
:1043900082E065E00E94CC1416951695412F41707D
:1043A00082E066E00E94CC141695117082E067E00E
:1043B000412F0E94CC1483E063E041E00E94CC14C2
:1043C000802F8A95F1F783E063E040E00E94CC14EF
:1043D0008F2D8A95F1F71F8183E062E041E00E9412
:1043E000CC14412F4295417082E064E00E94CC14CD
:1043F000412F42954695417082E065E00E94CC14C1
:10440000412F429546954695417082E066E00E94B4
:10441000CC14412F441F4427441F82E067E00E94D0
:10442000CC1483E063E041E00E94CC14802F8A9595
:10443000F1F783E063E040E00E94CC14802F8A957E
:10444000F1F7412F417082E064E00E94CC14412FCB
:104450004695417082E065E00E94CC141695169551
:10446000412F417082E066E00E94CC1416951170D5
:1044700082E067E0412F0E94CC1483E063E041E0DA
:104480000E94CC140A95F1F783E063E040E00E94BB
:10449000CC14FA94F1F78091320290913302823079
:1044A00008F07FCC903108F07CCC882329F080EC98
:1044B000890F0E94101A75CC80E8FACF0F931F93D2
:1044C000823018F01F910F9108956031D8F78093D2
:1044D000320260933302882309F463C010EC160F94
:1044E00083E062E040E00E94CC14412F429541708D
:1044F00082E064E00E94CC14412F429546954170C1
:1045000082E065E00E94CC14412F42954695469585
:10451000417082E066E00E94CC1482E067E041E0F6
:104520000E94CC1483E063E041E00E94CC140AE1D5
:10453000802F8A95F1F783E063E040E00E94CC147D
:10454000802F8A95F1F7412F417082E064E00E944C
:10455000CC14412F4695417082E065E00E94CC1456
:1045600016951695412F417082E066E00E94CC14AA
:104570001695117082E067E0412F0E94CC1483E011
:1045800063E041E00E94CC140A95F1F783E063E018
:1045900040E00E94CC1480EA8A95F1F71F910F91B8
:1045A000089510E89CCF0F931F93CF93DF93C0E043
:1045B000D0E00C2F80E06C2F40E00E94CC1480E013
:1045C00064E00E945215882319F180E065E00E94A2
:1045D00052158823A1F180E066E00E9452158823DD
:1045E00081F180E067E00E945215882381F080E02D
:1045F0006C2F41E00E94CC142196C430D105C9F63D
:104600001FEF812FDF91CF911F910F91089583E0CC
:10461000FE01EE0FFF1FEE0FFF1FE80FF11DE2502E
:10462000FE4F108180E0602F41E00E94CC141F3FBC
:1046300019F3812FDF91CF911F910F91089581E0A0
:10464000E7CF82E0E5CF80E060E041E00E94F81330
:1046500080E060E041E00E94CC1480E061E041E055
:104660000E94F81380E061E041E00E94CC1480E0F9
:1046700062E041E00E94F81380E062E041E00E94C5
:10468000CC1480E063E041E00E94F81380E063E036
:1046900041E00E94CC1480E064E042E00E94F81304
:1046A00080E065E042E00E94F81380E066E042E0CE
:1046B0000E94F81380E067E042E00E94F81308953A
:1046C0000F931F93182F082F037016951695612FBF
:1046D0006770802F40E00E94CC14169516951695B1
:1046E000802F612F40E00E94CC141F910F910895FC
:1046F0000F931F93182F082F037016951695612F8F
:104700006770802F40E00E94CC1416951695169580
:10471000802F612F41E00E94CC141F910F910895CA
:104720000F931F93182F082F037016951695612F5E
:104730006770802F41E00E94CC141695169516954F
:10474000802F612F40E00E94CC141F910F9108959B
:104750000F931F93182F082F037016951695612F2E
:104760006770802F41E00E94F813169516951695F4
:10477000802F612F41E00E94F8131F910F9108953F
:10478000FF920F931F93082F162F83E0F82EF62227
:1047900016951695612F67708F2D40E00E94CC14FE
:1047A0001695169516958F2D612F40E00E94CC141A
:1047B000102F137006950695602F6770812F40E0CB
:1047C0000E94CC14069506950695812F602F40E037
:1047D0000E94CC141F910F91FF900895FF920F93A8
:1047E0001F93182F062F93E0F92EF8221695169591
:1047F000612F67708F2D41E00E94CC14169516959D
:1048000016958F2D612F40E00E94CC14102F13704D
:1048100006950695602F6770812F40E00E94CC14AA
:10482000069506950695812F602F41E00E94CC14D5
:104830001F910F91FF900895FF920F931F93082FE0
:10484000162F23E0F22EF62216951695612F67702B
:104850008F2D41E00E94CC141695169516958F2D3C
:10486000612F40E00E94CC14102F1370069506951E
:10487000602F6770812F40E00E94CC14069506954A
:104880000695812F602F41E00E94CC141F910F915B
:10489000FF900895FF920F931F93082F162F33E078
:1048A000F32EF62216951695612F67708F2D41E035
:1048B0000E94CC141695169516958F2D612F40E009
:1048C0000E94CC14102F137006950695602F677008
:1048D000812F41E00E94CC14069506950695812F04
:1048E000602F40E00E94CC141F910F91FF9008951B
:1048F000FF920F931F93082F162F43E0F42EF622FA
:1049000016951695612F67708F2D40E00E94CC148C
:104910001695169516958F2D612F41E00E94CC14A7
:10492000102F137006950695602F6770812F40E059
:104930000E94CC14069506950695812F602F41E0C4
:104940000E94CC141F910F91FF900895FF920F9336
:104950001F93182F062F413009F45BC0423009F431
:1049600073C0443009F499C0453049F153E0F52E45
:10497000F62206950695602F67708F2D40E00E9405
:10498000CC140695069506958F2D602F40E00E9469
:10499000CC14012F037016951695612F6770802F28
:1049A00040E00E94CC14169516951695802F612F25
:1049B00040E00E94CC141F910F91FF90089573E086
:1049C000F72EF82216951695612F67708F2D41E00E
:1049D0000E94CC141695169516958F2D612F40E0E8
:1049E0000E94CC1463E0F62EF02206950695602F07
:1049F00067708F2D40E00E94CC14069506950695B1
:104A00008F2D602F41E00E94CC141F910F91FF90D9
:104A10000895A3E0FA2EF62206950695602F67709A
:104A20008F2D0E94CC140695069506958F2D602F2C
:104A300040E00E94CC14012F037016951695612F4B
:104A40006770802F41E0ADCFF3E0FF2EF622069590
:104A50000695602F67708F2D40E00E94CC1406955C
:104A6000069506958F2D602F41E00E94CC14012FF2
:104A7000037016951695612F6770802F40E00E9495
:104A8000CC14169516951695802F612F41E00E9443
:104A9000CC141F910F91FF900895E3E0FE2EF622B3
:104AA00006950695602F67708F2D41E00E94CC140B
:104AB0000695069506958F2D602F40E0D6CF9091F4
:104AC0003402809138029817D1F490913502809188
:104AD00039029817A1F49091360280913A02981702
:104AE00071F49091370280913B02981741F40E9433
:104AF000B21C8FE690E00E94771A81E008950E9430
:104B0000B21C80E690E00E94771A80E008950F932F
:104B10001F930E94B21C08ED11E0C8010E94771A91
:104B20008DE297E2B80141E050E02AE30E94C10B18
:104B300081E08093D7011F910F9108958091FC012E
:104B40000E9402199093FC068093FB068091FD0160
:104B50000E9402199093FE068093FD062091D501D4
:104B6000213309F44FC02B3309F447C080913E0232
:104B7000882381F4223311F12B33B1F180913F026C
:104B8000882339F08091FD069091FE060A9708F07F
:104B900053C008958091FB069091FC060A9750F34C
:104BA0008091FA016091FB010E944A240E94DF106B
:104BB00010923E022091D5012233F1F68091FD063C
:104BC0009091FE060A97D0F680913F02882309F75C
:104BD0008091FA016091FB010E94C0230E94D910CC
:104BE00081E080933F0208958091D601823331F3B2
:104BF00080913F02882331F6CCCF8091D60181335A
:104C000009F0B4CF8091FB069091FC060A9708F05A
:104C1000ADCF80913E02882309F0ACCF8091FA019C
:104C20006091FB010E94C0230E94D91081E0809313
:104C30003E022091D5019ECF8091FA016091FB0147
:104C40000E9478240E94DF1010923F020895BC0158
:104C500081E290E044E00E94BD120E94B21C80E814
:104C600090E00E94771A20E030E048EC50E0CA0162
:104C70000197F1F72F5F3F4F87E220313807B9F7EF
:104C80000E94B21C0895FF920F931F93CF93DF935E
:104C9000182F092F0E94B21C80E990E00E94771A19
:104CA000212F302FC901EC0189E0F82E08EC10E02B
:104CB0000E94D3228F3FE1F388830E94FC1A20E0F8
:104CC00030E0C8010197F1F72F5F3F4F83E12838AB
:104CD0003807B9F780E06F2D0E945E228AE20E94B9
:104CE000FC1AF39421968DE0F81611F720E030E0DD
:104CF00048EC50E0CA010197F1F72F5F3F4F83E185
:104D000028383807B9F70E94B21CDF91CF911F9164
:104D10000F91FF900895CF93DF938091D601833355
:104D200009F44DC08091F006C82FD0E00E94EC102D
:104D3000FE01EE0FFF1FEE0FFF1FEE5BFD4F282F52
:104D40002295220F220F207C90819F73922B9083BB
:104D5000869586959181907C982B91834091F00661
:104D6000E42FF0E0EE0FFF1FEE0FFF1FE05CFD4FA2
:104D700030912E0290912F02292F2295220F220F7F
:104D8000207C832F86958695822B81839695969598
:104D90008281807C892B82838091D601877090915B
:104DA000D4019770990F990F990F3295330F330FE4
:104DB000307C832B892B80834F5F4093F0060E94C9
:104DC0006C11DF91CF9108958091F1069091F206D8
:104DD00001969093F2068093F1062091F1063091AE
:104DE000F20680913C0290913D022817390708F4A1
:104DF00008958091FA060E94EA101092F20610922D
:104E0000F1068091D701882369F08091D501833321
:104E100029F0893319F01092D701089581E0809329
:104E2000D70108950E948B268091FA016091FB01C1
:104E30000E94C02381E00E941F0B80E06FED77E2AB
:104E40000E94E21110923D0210923C028FEF0E94EC
:104E5000EA108BE38093D50108951F931091D80138
:104E60001093D50181E08093D701163309F4A0C0D7
:104E7000173370F0193309F486C01A33F8F4173376
:104E800009F470C0183311F40E94B21C1F910895E8
:104E9000133309F482C0143388F1143309F44AC07F
:104EA0001533A1F78091FA016091FB010E94EE2376
:104EB0000E948B2684E38093D601E8CF163609F44E
:104EC0004BC01F3609F442C01B3301F70E948B26EA
:104ED0008091FA016091FB010E94C02381E00E9451
:104EE0001F0B80E06FED77E20E94E21110923D020D
:104EF00010923C028FEF0E94EA10C8CF113371F07C
:104F0000123321F68091FA016091FB010E9478240E
:104F10000E948B2681E38093D601B8CF8091FA015D
:104F20006091FB010E944A240E948B2682E38093B9
:104F3000D601ACCF8091FA016091FB010E941C2444
:104F40000E948B2685E38093D601A0CF83E066E0A4
:104F500041E00E94CC149ACF83E066E040E00E94DA
:104F6000CC1494CF9091D401923008F48FCF91500B
:104F70009093D40183E3989F802D11240E94D70C35
:104F80000E948B2683CF87E895E268ED71E042E2CC
:104F900050E02AE30E94C10B79CF8091FA01609121
:104FA000FB010E94C0230E948B261093D6016ECF76
:104FB0009091D401953008F069CF9F5FD9CF80914F
:104FC000F3069091F40601969093F4068093F3060D
:104FD0002091F3063091F40680913C0290913D02BD
:104FE0002817390708F465C01092F4061092F306EA
:104FF000E091F006EE2309F45DC0E150E093F00685
:105000008091D601833309F454C0F0E0EE0FFF1F06
:10501000EE0FFF1FDF01A05CBD4F8C91829586953E
:105020008695837011969C911197292F220F220F3C
:10503000282B929596959695937012968C91880F41
:10504000880F892B20933C0280933D02EE5BFD4F3D
:10505000908192959695969593708181880F880F8F
:10506000892B0E94EA10E091F006F0E0EE0FFF1F9E
:10507000EE0FFF1FE05CFD4F2081269526952695BB
:10508000277083E390E0289F802D11240E94D70C85
:10509000E091F006F0E0EE0FFF1FEE0FFF1FE05C67
:1050A000FD4F408147708091FA016091FB010E94A1
:1050B000A62408958091FA016091FB010E94C0230B
:1050C0000E94000B0895FF920F931F93CF93DF93DD
:1050D0000E94B8100E943D0E0E94AE0C0E940C0B64
:1050E0000E940A1D0E9423238091FA010E94A82396
:1050F0008091FB010E94A82383E066E041E00E94CA
:10510000F81380E065E00E945E228AE990E00E9448
:10511000771A8AE50E94801920E030E048EC50E0E0
:10512000CA010197F1F72F5F3F4F83E12838380715
:10513000B9F786EA0E94801920E030E048EC50E0A0
:10514000CA010197F1F72F5F3F4FE3E128383E078F
:10515000B9F70E94B21C83E30E94D70C80E290E072
:105160000E945D128F3F29F181E290E068E372E0D6
:1051700044E00E949C128DE297E268ED71E041E00C
:1051800050E02AE30E94C10B0E946C1188E893E171
:105190006CE372E04AEF56E00E94721180E064EE28
:1051A00076E20E94E211DF91CF911F910F91FF9063
:1051B00008950E94B21C80E990E00E94771A08E3EB
:1051C00012E079E0F72EC8ECD0E00E94D3228F3FA6
:1051D000E1F3F80180830E94FC1A20E030E0CE0168
:1051E0000197F1F72F5F3F4FF3E128383F07B9F7F9
:1051F00080E06F2D0E945E228AE20E94FC1AF394E6
:105200000F5F1F4F8DE0F81601F720E030E048EC0B
:1052100050E0CA010197F1F72F5F3F4FE3E12838D3
:105220003E07B9F70E94B21C81E290E068E372E0A9
:1052300044E00E94BD120E94B21C80E890E00E94EF
:10524000771A20E030E048EC50E0CA010197F1F70E
:105250002F5F3F4FF7E220313F07B9F70E94B21CA2
:1052600080E290E060E00E944C1285CFFF920F93A5
:105270001F93CF93DF930E94D3228F3F09F490C0F6
:105280008A3209F093C00E94B21C8CEA90E00E941E
:10529000771A20E030E048EC50E0CA010197F1F7BE
:1052A0002F5F3F4F87E220313807B9F70E94B21CC9
:1052B00080E990E00E94771A04E312E0E9E0FE2E14
:1052C000C8ECD0E00E94D3228F3FE1F3F801808345
:1052D0000E94FC1A20E030E0CE010197F1F72F5F29
:1052E0003F4FF3E128383F07B9F780E06F2D0E9468
:1052F0005E228AE20E94FC1AF3940F5F1F4F8DE03A
:10530000F81601F720E030E048EC50E0CA010197C0
:10531000F1F72F5F3F4FE3E128383E07B9F70E94CE
:10532000B21C9091340280913802981709F0BEC0E7
:105330009091350280913902981709F0B7C0909189
:10534000360280913A02981709F0B0C09091370266
:1053500080913B02981709F0A9C00E94B21C8FE609
:1053600090E00E94771A81E060E00E945E228CEB60
:1053700090E00E94771A20E030E048EC50E0CA014B
:105380000197F1F72F5F3F4FF7E220313F07B9F761
:1053900088E392E00E94432688E392E00E94272659
:1053A000DF91CF911F910F91FF9008950E94B21C41
:1053B00080E990E00E94771A04E312E0F9E0FF2E02
:1053C000C8ECD0E00E94D3228F3FE1F3F801808344
:1053D0000E94FC1A20E030E0CE010197F1F72F5F28
:1053E0003F4FF3E128383F07B9F780E06F2D0E9467
:1053F0005E228AE20E94FC1AF3940F5F1F4F8DE039
:10540000F81601F720E030E048EC50E0CA010197BF
:10541000F1F72F5F3F4FE3E128383E07B9F70E94CD
:10542000B21C90913402809138029817C1F5909186
:10543000350280913902981791F59091360280914A
:105440003A02981761F59091370280913B029817C4
:1054500031F50E94B21C8FE690E00E94771A81E03D
:1054600063E00E945E2281EA90E00E94771A8AE55A
:105470000E94801920E030E048EC50E0CA0101971A
:10548000F1F72F5F3F4FF7E220313F07B9F70E9456
:10549000B21CDF91CF911F910F91FF9008950E9450
:1054A000B21C80E690E00E94771AE4CF0E94B21C02
:1054B00080E690E00E94771A20E030E048EC50E06F
:1054C000CA010197F1F72F5F3F4F87E2203138077C
:1054D000B9F7DDCF1F9311E00E9436298091FC01BE
:1054E0000E9402199093FC068093FB068091FD01B7
:1054F0000E9402199093FE068093FD062091D5012B
:10550000213309F446C02B3309F43EC080913E029A
:10551000882339F08091FB069091FC060A9708F0E9
:1055200051C02233D9F02B33A9F080913F02882358
:1055300099F28091FD069091FE060A9768F280919B
:10554000FA016091FB010E9478240E94DF10109202
:105550003F02C2CF8091D601823339F78091FD0698
:105560009091FE060A9708F780913F02882309F080
:10557000B3CF8091FA016091FB010E94C0230E9489
:10558000D91010933F02A8CF8091D601813309F042
:10559000BDCF8091FB069091FC060A9708F0B6CF2C
:1055A00080913E02882309F0BCCF8091FA0160917E
:1055B000FB010E94C0230E94D91010933E0220914B
:1055C000D501AFCF8091FA016091FB010E944A247E
:1055D0000E94DF1010923E022091D501A2CF0E94BE
:1055E00063280E946A2AFFCF629FD001739FF00157
:1055F000829FE00DF11D649FE00DF11D929FF00D63
:10560000839FF00D749FF00D659FF00D9927729F99
:10561000B00DE11DF91F639FB00DE11DF91FBD0124
:10562000CF0111240895991B79E004C0991F9617A2
:1056300008F0961B881F7A95C9F780950895A1E216
:105640001A2EAA1BBB1BFD010DC0AA1FBB1FEE1FFC
:10565000FF1FA217B307E407F50720F0A21BB30B47
:10566000E40BF50B661F771F881F991F1A9469F7C3
:1056700060957095809590959B01AC01BD01CF011F
:10568000089597FB092E05260ED057FD04D0D7DFCD
:105690000AD0001C38F450954095309521953F4F25
:1056A0004F4F5F4F0895F6F79095809570956195EF
:1056B0007F4F8F4F9F4F08952F923F924F925F924F
:1056C0006F927F928F929F92AF92BF92CF92DF9212
:1056D000EF92FF920F931F93CF93DF93CDB7DEB777
:1056E000CA1BDB0B0FB6F894DEBF0FBECDBF09940B
:1056F0002A88398848885F846E847D848C849B8462
:10570000AA84B984C884DF80EE80FD800C811B816F
:10571000AA81B981CE0FD11D0FB6F894DEBF0FBE9E
:0A572000CDBFED010895F894FFCF0E
:10572A0057726F6E672070617373776F726400507F
:10573A00617373776F726420636F7272656374004A
:10574A0050617373776F7264206973207365740094
:10575A0073657420706173733A0048454C4C4F214D
:10576A0000424F58204F50454E45440020456E7424
:10577A006572206F6C6420706173730020456E74CB
:10578A006572206E657720706173730000000000F7
:10579A0000000000000102020303030304040404DE
:1057AA0004040404050505050505050505050505A3
:1057BA000505050506060606060606060606060683
:1057CA00060606060606060606060606060606066F
:1057DA000606060607070707070707070707070753
:1057EA00070707070707070707070707070707073F
:1057FA00070707070707070707070707070707072F
:10580A00070707070707070707070707070707071E
:10581A000707070708080808080808080808080802
:10582A0008080808080808080808080808080808EE
:10583A0008080808080808080808080808080808DE
:10584A0008080808080808080808080808080808CE
:10585A0008080808080808080808080808080808BE
:10586A0008080808080808080808080808080808AE
:10587A00080808080808080808080808080808089E
:10588A00080808080808080808080808080808088E
:10589A000808080801333301000000000000000076
:1058AA0000000000000000000000000000000000EE
:1058BA0000000000000000000000226A2169373859
:0E58CA00392F3435362A3132332D2A303D2B1A
:00000001FF
