:100000000C942A000C9447000C9447000C94470071
:100010000C9447000C9447000C9447000C94470044
:100020000C9447000C9447000C9447000C94470034
:100030000C9447000C9447000C9447000C94470024
:100040000C945A090C9447000C9447000C944700F8
:100050000C94470011241FBECFE5D8E0DEBFCDBF12
:1000600012E0A0E6B0E0E2E3F3E302C005900D92F7
:10007000A43DB107D9F712E0A4EDB2E001C01D9292
:10008000A83DB107E1F70E9492180C9497190C94BF
:100090000000EF92FF920F931F937B018C0120E0F1
:1000A00030E040E05FE40E94C50388238CF0C80183
:1000B000B70120E030E040E05FE40E94C1010E940F
:1000C00083049B01AC01205030404040504806C0A2
:1000D000C801B7010E9483049B01AC01B901CA01A8
:1000E0001F910F91FF90EF900895A0E0B0E0EBE733
:1000F000F0E00C94FF18DC012B01FA019C91923086
:1001000008F439C1EB018881823008F433C194309E
:1001100069F4843009F02FC111969C91119789815F
:10012000981709F428C1A7EBB0E025C1843009F481
:1001300021C18230A9F4923009F01DC19A01AD01AC
:1001400088E0EA010990AE01E90109929E0181501F
:10015000C1F7E201898111969C918923818308C1AD
:10016000923009F407C112962D903C901397EB0141
:100170008A819B811496AD90BD90CD90DC901797AD
:10018000EC80FD800E811F819101281B390BB90184
:1001900037FF04C066277727621B730B6032710537
:1001A0000CF061C0121613066CF537014801062EDB
:1001B00004C096948794779467940A94D2F721E0C8
:1001C00030E040E050E004C0220F331F441F551FB1
:1001D0006A95D2F721503040404050402E213F21B7
:1001E00040235123211531054105510521F021E01E
:1001F00030E040E050E079018A01E628F72808293C
:1002000019293CC0232BD1F1260E371E350146019A
:10021000062E04C096948794779467940A94D2F734
:1002200021E030E040E050E004C0220F331F441FC3
:10023000551F6A95D2F721503040404050402A2146
:100240003B214C215D21211531054105510521F04E
:1002500021E030E040E050E059016A01A628B728CB
:10026000C828D9280BC0821593052CF01C01AA249C
:10027000BB24650103C0EE24FF24870111969C91E5
:10028000D20111968C91981709F445C0992339F041
:10029000A80197012A193B094C095D0906C0A6016E
:1002A00095012E193F09400B510B57FD08C01182D3
:1002B0003382228224833583468357831DC081E0A5
:1002C00081833382228288279927DC01821B930B4A
:1002D000A40BB50B84839583A683B7830DC0220F2F
:1002E000331F441F551F24833583468357838281E0
:1002F000938101979383828324813581468157813D
:10030000DA01C9010197A109B1098F5F9F4FAF4F72
:10031000BF4328F30BC0918333822282EA0CFB1C7B
:100320000C1D1D1DE482F5820683178383E0808304
:10033000248135814681578157FF1AC0C901AA27F8
:1003400097FDA095BA2F81709070A070B0705695EF
:10035000479537952795822B932BA42BB52B848318
:100360009583A683B7838281938101969383828349
:10037000DF0101C0D201CD01CDB7DEB7E2E10C94BF
:100380001B19A0E2B0E0E7ECF1E00C940B196983D3
:100390007A838B839C832D833E834F835887E9E048
:1003A000EE2EF12CEC0EFD1ECE010196B7010E943F
:1003B000FB058E010F5E1F4FCE010596B8010E940E
:1003C000FB058A8991E089278A8BC701B801AE01B4
:1003D000475E5F4F0E9475000E942605A096E6E0EA
:1003E0000C942719A0E2B0E0E8EFF1E00C940B19AF
:1003F00069837A838B839C832D833E834F835887C5
:10040000F9E0EF2EF12CEC0EFD1ECE010196B701A6
:100410000E94FB058E010F5E1F4FCE010596B801AD
:100420000E94FB05C701B801AE01475E5F4F0E9405
:1004300075000E942605A096E6E00C942719A0E21C
:10044000B0E0E5E2F2E00C94FF1869837A838B83D5
:100450009C832D833E834F835887CE010196BE0136
:10046000675F7F4F0E94FB05CE010596BE016F5E60
:100470007F4F0E94FB059985923088F089898230F0
:10048000C8F0943019F4823051F404C0843029F457
:10049000923081F487EB90E0C6C0923049F420E0BE
:1004A0009A858A89981321E02A87CE010996BBC0D4
:1004B000823049F420E09A858A89981321E02A8BBA
:1004C000CE014196B0C02D843E844F8458886D88FB
:1004D0007E888F88988CEE24FF248701AA24BB2471
:1004E000650140E050E060E070E0E0E0F0E0C10174
:1004F00081709070892BE9F0E60CF71C081D191D1E
:100500009A01AB012A0D3B1D4C1D5D1D80E090E062
:10051000A0E0B0E0E614F7040805190520F481E036
:1005200090E0A0E0B0E0BA01A901480F591F6A1F8E
:100530007B1FAA0CBB1CCC1CDD1C97FE08C081E0F5
:1005400090E0A0E0B0E0A82AB92ACA2ADB2A3196B6
:10055000E032F10549F0660C771C881C991C569412
:10056000479437942794C3CFFA85EA892B893C892D
:100570008B859C85280F391F2E5F3F4F17C0CA01FE
:1005800081709070892B61F016950795F794E79428
:1005900080E090E0A0E0B0E8E82AF92A0A2B1B2BC3
:1005A00076956795579547952F5F3F4F77FDE7CF36
:1005B0000CC0440F551F661F771F17FD4160EE0CDE
:1005C000FF1C001F111F21503040403090E05907A0
:1005D00090E0690790E4790760F32B8F3C8FDB0193
:1005E000CA018F779070A070B07080349105A1051A
:1005F000B10561F447FD0AC0E114F10401051105DC
:1006000029F0405C5F4F6F4F7F4F40781A8EFE1786
:1006100011F081E08A8F4D8F5E8F6F8F78A383E01A
:10062000898FCE0149960E942605A096E2E10C949E
:100630001B19A8E1B0E0EFE1F3E00C94071969831E
:100640007A838B839C832D833E834F835887B9E0C5
:10065000EB2EF12CEC0EFD1ECE010196B7010E948F
:10066000FB058E010F5E1F4FCE010596B8010E945B
:10067000FB052985223008F47EC03989323010F418
:10068000B8017CC08A859A8989278A87243011F02D
:10069000223031F4231709F06EC067EB70E06EC0B2
:1006A000343039F41D861E861F86188A1C861B86E8
:1006B00004C0323021F484E08987B7015FC02B8504
:1006C0003C858B899C89281B390B3C872B87ED84C3
:1006D000FE840F851889AD88BE88CF88D88CEA142F
:1006E000FB040C051D0540F4EE0CFF1C001F111F40
:1006F000215030403C872B8720E030E040E050E044
:1007000080E090E0A0E0B0E460E070E0EA14FB0478
:100710000C051D0540F0282B392B4A2B5B2BEA18C2
:10072000FB080C091D09B695A79597958795EE0CC2
:10073000FF1C001F111F6F5F7F4F6F31710531F775
:10074000DA01C9018F779070A070B0708034910584
:10075000A105B10561F427FD0AC0E114F10401050A
:10076000110529F0205C3F4F4F4F5F4F20782D87B8
:100770003E874F87588BBE01675F7F4FCB010E943A
:1007800026056896EAE00C942319A8E1B0E0EBECAA
:10079000F3E00C940B1969837A838B839C832D83FC
:1007A0003E834F83588789E0E82EF12CEC0EFD1E26
:1007B000CE010196B7010E94FB058E010F5E1F4F0F
:1007C000CE010596B8010E94FB058985823040F074
:1007D0008989823028F0C701B8010E94730601C0E0
:1007E0008FEF6896E6E00C942719A8E1B0E0EBEFF4
:1007F000F3E00C940B1969837A838B839C832D839C
:100800003E834F83588789E0E82EF12CEC0EFD1EC5
:10081000CE010196B7010E94FB058E010F5E1F4FAE
:10082000CE010596B8010E94FB058985823040F013
:100830008989823028F0C701B8010E94730601C07F
:1008400081E06896E6E00C942719A8E0B0E0EBE2BE
:10085000F4E00C9408199B01AC0183E08983DA0170
:10086000C9018827B7FD83959927AA27BB27B82EEA
:10087000211531054105510519F482E089833AC0FB
:100880008823A9F0203080E0380780E0480780E81E
:10089000580729F460E070E080E09FEC30C0EE245F
:1008A000FF248701E21AF30A040B150B02C0790139
:1008B0008A018EE1C82ED12CDC82CB82ED82FE82B1
:1008C0000F831887C801B7010E94D7040197181633
:1008D000190684F4082E04C0EE0CFF1C001F111F23
:1008E0000A94D2F7ED82FE820F831887C81AD90ABC
:1008F000DC82CB82BA82CE0101960E942605289620
:10090000E9E00C942419ACE0B0E0E9E8F4E00C94E0
:100910000F1969837A838B839C83CE010196BE0174
:100920006B5F7F4F0E94FB058D81823061F18230C9
:1009300050F1843021F48E81882351F12EC02F8113
:10094000388537FD20C06E812F3131051CF06623BC
:10095000F9F023C08EE190E0821B930B29853A8544
:100960004B855C8504C056954795379527958A95A4
:10097000D2F76623B1F050954095309521953F4FC1
:100980004F4F5F4F0EC020E030E040E050E009C024
:100990002FEF3FEF4FEF5FE704C020E030E040E093
:1009A00050E8B901CA012C96E2E00C942B19EF92A1
:1009B000FF920F931F937B018C0180E0E81680E08B
:1009C000F80681E0080780E0180788F48FEFE81642
:1009D000F1040105110531F028F088E090E0A0E075
:1009E000B0E017C080E090E0A0E0B0E012C080E08E
:1009F000E81680E0F80680E0080781E0180728F094
:100A000088E190E0A0E0B0E004C080E190E0A0E0E8
:100A1000B0E020E230E040E050E0281B390B4A0B08
:100A20005B0B04C016950795F794E7948A95D2F767
:100A3000F701E154FF4F8081281B31094109510919
:100A4000C9011F910F91FF90EF900895DF92EF92EF
:100A5000FF920F931F93FC01E480F58006811781BC
:100A6000D1808081823048F480E090E0A0E1B0E065
:100A7000E82AF92A0A2B1B2BA5C0843009F49FC051
:100A8000823021F4EE24FF24870105C0E114F10433
:100A90000105110519F4E0E0F0E096C06281738170
:100AA0009FEF623879070CF05BC022E83FEF261B0E
:100AB000370B2A3131052CF020E030E040E050E0E7
:100AC0002AC0B801A701022E04C0769567955795F4
:100AD00047950A94D2F781E090E0A0E0B0E004C02E
:100AE000880F991FAA1FBB1F2A95D2F70197A1094A
:100AF000B1098E219F21A023B1230097A105B10543
:100B000021F081E090E0A0E0B0E09A01AB01282B59
:100B1000392B4A2B5B2BDA01C9018F779070A070BB
:100B2000B07080349105A105B10539F427FF09C0E3
:100B3000205C3F4F4F4F5F4F04C0215C3F4F4F4FF2
:100B40005F4FE0E0F0E02030A0E03A07A0E04A0785
:100B5000A0E45A0710F0E1E0F0E079018A0127C033
:100B60006038710564F5FB01E158FF4FD801C701FA
:100B70008F779070A070B07080349105A105B10599
:100B800039F4E7FE0DC080E490E0A0E0B0E004C0DE
:100B90008FE390E0A0E0B0E0E80EF91E0A1F1B1FF3
:100BA00017FF05C016950795F794E794319687E0EF
:100BB00016950795F794E7948A95D1F705C0EE242A
:100BC000FF248701EFEFF0E06E2F679566276795AA
:100BD000902F9F77D794DD24D7948E2F8695492F19
:100BE000462B582F5D29B701CA011F910F91FF9025
:100BF000EF90DF900895FC01DB014081518122815B
:100C0000622F6F7770E0221F2227221F9381892F86
:100C1000880F822B282F30E0991F9927991F119652
:100C20009C93119721153105A9F5411551056105D1
:100C3000710511F482E037C082E89FEF13969C9310
:100C40008E9312979A01AB0167E0220F331F441F66
:100C5000551F6A95D1F783E08C930DC0220F331F87
:100C6000441F551F12968D919C91139701971396CF
:100C70009C938E931297203080E0380780E04807DD
:100C800080E4580758F314962D933D934D935C934D
:100C9000179708952F3F310579F4411551056105E6
:100CA000710519F484E08C93089564FF03C081E01A
:100CB0008C9312C01C9210C02F57304013963C9357
:100CC0002E93129783E08C9387E0440F551F661F85
:100CD000771F8A95D1F7706414964D935D936D9349
:100CE0007C93179708951F93DC01FB019C91923030
:100CF00008F447C08081823008F443C0943051F436
:100D000011961C91843099F58181682F70E0611BE8
:100D100071093FC0843021F0923031F48230B9F152
:100D20008181882389F12DC011961C911197823001
:100D3000F1F081811817D9F412962D913C911397F7
:100D4000828193818217930794F028173907BCF0AA
:100D500014968D919D910D90BC91A02D248135818B
:100D600046815781281739074A075B0718F4112372
:100D700041F00AC082179307A407B50740F4112376
:100D800019F061E070E005C06FEF7FEF02C060E036
:100D900070E0CB011F910895413061F1413090F432
:100DA000813009F452C0813008F071C02AB381E06B
:100DB00090E002C0880F991F6A95E2F78095822320
:100DC0008ABB0895423009F00895813071F1813075
:100DD00008F047C03AB381E090E002C0880F991F45
:100DE0006A95E2F7282F209523232ABB2BB3822B69
:100DF0008BBB0895813071F0813008F059C02AB35F
:100E000081E090E002C0880F991F6A95E2F7282BD5
:100E10002ABB089527B381E090E002C0880F991F94
:100E20006A95E2F7282B27BB089537B381E090E05D
:100E300002C0880F991F6A95E2F7282F2095232377
:100E400027BB28B3822B88BB089527B381E090E0AD
:100E500002C0880F991F6A95E2F78095822387BBAD
:100E60000895823009F44BC0833009F0ADCF31B31F
:100E700081E090E002C0880F991F6A95E2F7282F61
:100E80002095232321BB22B3822B82BB089582307D
:100E900051F1833009F098CF21B381E090E002C096
:100EA000880F991F6A95E2F78095822381BB089588
:100EB000823071F0833009F087CF21B381E090E078
:100EC00002C0880F991F6A95E2F7282B21BB08956D
:100ED00024B381E090E002C0880F991F6A95E2F781
:100EE000282B24BB089524B381E090E002C0880F32
:100EF000991F6A95E2F78095822384BB089534B3E5
:100F000081E090E002C0880F991F6A95E2F7282FD0
:100F10002095232324BB25B3822B85BB08958130E4
:100F200059F0813028F0823049F0833019F008956B
:100F30006ABB089561BB089567BB089564BB0895BB
:100F4000442359F48130B9F1813048F1823009F4F9
:100F500060C0833009F43BC008954130E9F7813027
:100F600009F44CC0813080F0823009F43CC08330F9
:100F700099F722B381E090E002C0880F991F6A952B
:100F8000E2F7282B22BB08952BB381E090E002C04A
:100F9000880F991F6A95E2F7282B2BBB08952BB376
:100FA00081E090E002C0880F991F6A95E2F7809572
:100FB00082238BBB089528B381E090E002C0880FA4
:100FC000991F6A95E2F78095822388BB089522B322
:100FD00081E090E002C0880F991F6A95E2F7809542
:100FE000822382BB089525B381E090E002C0880F80
:100FF000991F6A95E2F7282B25BB089528B381E055
:1010000090E002C0880F991F6A95E2F7282B28BB51
:10101000089525B381E090E002C0880F991F6A957A
:10102000E2F78095822385BB0895813059F08130A5
:1010300028F0823049F0833019F008956BBB089591
:1010400062BB089568BB089565BB08958130D1F0F7
:10105000813030F08230F9F0833059F080E008952B
:1010600089B390E002C0959587956A95E2F7817003
:10107000089580B390E002C0959587956A95E2F750
:101080008170089586B390E002C0959587956A9522
:10109000E2F78170089583B390E002C0959587953B
:1010A0006A95E2F781700895813061F0813030F007
:1010B000823051F0833021F080E0089589B30895A3
:1010C00080B3089586B3089583B308958130E9F01D
:1010D000813028F0823021F1833061F008952BB304
:1010E00081E090E002C0880F991F6A95E2F72827F7
:1010F0002BBB089522B381E090E002C0880F991FB6
:101100006A95E2F7282722BB089528B381E090E092
:1011100002C0880F991F6A95E2F7282728BB089517
:1011200025B381E090E002C0880F991F6A95E2F72D
:10113000282725BB0895813079F0813028F082304E
:1011400079F0833029F008958BB380958BBB089597
:1011500082B3809582BB089588B3809588BB08953B
:1011600085B3809585BB08956295607F8130A9F035
:10117000813028F08230C1F0833041F008958BB384
:101180008F708BBB8BB3682B6BBB089582B38F7052
:1011900082BB82B3682B62BB089588B38F7088BB13
:1011A00088B3682B68BB089585B38F7085BB85B302
:1011B000682B65BB08956F708130A9F0813028F0ED
:1011C0008230C1F0833041F008958BB3807F8BBBB8
:1011D0008BB3682B6BBB089582B3807F82BB82B3D5
:1011E000682B62BB089588B3807F88BB88B3682B67
:1011F00068BB089585B3807F85BB85B3682B65BBCD
:1012000008953F983E9A3D9886B1887F86B986B109
:10121000836086B93598379A3398089597B1907E50
:1012200097B997B1982B97B9369A0895DF93CF93D2
:1012300000D0CDB7DEB71A8219820AC089819A819F
:101240008639910560F489819A8101969A83898310
:1012500086B1829586958695837080FDEFCF8981D2
:101260009A818639910540F424B135B1C9010F90B6
:101270000F90CF91DF91089520E030E0C9010F90E9
:101280000F90CF91DF910895379A08953798089578
:1012900080B78F7180BF80B780BF359A0895359829
:1012A0000895339A0895339808959093D5028093C2
:1012B000D40208951F920F920FB60F9211242F930C
:1012C0003F934F935F936F937F938F939F93AF93CE
:1012D000BF93EF93FF93E091D402F091D502309742
:1012E00019F084B195B10995FF91EF91BF91AF913C
:1012F0009F918F917F916F915F914F913F912F912E
:101300000F900FBE0F901F901895DF93CF9300D0D2
:10131000CDB7DEB797B1907E97B997B1982B97B9B3
:10132000369A1A8219820AC089819A818639910572
:1013300060F489819A8101969A83898386B1829526
:1013400086958695837080FDEFCF89819A81863955
:10135000910558F484B195B19695879596958795A2
:101360000F900F90CF91DF91089580E00F900F9034
:10137000CF91DF910895DF93CF9300D0CDB7DEB743
:1013800097B1907E97B997B1982B97B9369A1A82F0
:1013900019820AC089819A818639910560F4898110
:1013A0009A8101969A83898386B1829586958695DE
:1013B000837080FDEFCF89819A818639910540F451
:1013C00024B135B1C9010F900F90CF91DF910895ED
:1013D00020E030E0C9010F900F90CF91DF91089588
:1013E0008F929F92AF92BF92CF92DF92EF92FF9235
:1013F0000F931F93CF93DF937B018C01EA01822F20
:1014000082508F30F0F5E114F1040105110549F126
:1014100017FD59C08824A22EBB24CC24DD24992496
:1014200015C0695CFE01E90DF11D60839394C8014C
:10143000B701A60195010E94E418C901DA017C01F7
:101440008D01E114F10401051105E9F0C801B701AE
:10145000A60195010E94E4186A30710514F7605DD9
:10146000E1CF80E388831982DF91CF911F910F91A3
:10147000FF90EF90DF90CF90BF90AF909F908F90B4
:1014800008951882F1CF8820B9F4FE01E90DF11D0D
:101490001082392D315041F320E0FE01E20FF11DA1
:1014A0009081DE01A30FB11D8C9180832F5F9C93EF
:1014B0003150231790F3D8CFFE01E90DF11D8DE2D5
:1014C00080839394E2CF2A3009F0A4CF1095009541
:1014D000F094E094E11CF11C011D111D88248394FB
:1014E0009ACFAF92BF92DF92EF92FF920F931F932A
:1014F000DF93CF930F92CDB7DEB75C01FC01D080B4
:10150000FDE2DF1609F440C019828D2D80538A3028
:1015100008F042C0EE24FF248701C801B7012AE089
:1015200030E040E050E00E9497182D2D30E020532D
:10153000304079010027F7FC0095102FE60EF71ECA
:10154000081F191F0894A11CB11CF501D0808D2D16
:1015500080538A3010F3A8019701F981F13039F4F2
:1015600022273327A9012E193F09400B510BB9013E
:10157000CA010F90CF91DF911F910F91FF90EF90D3
:10158000DF90BF90AF9008950894A11CB11CF501A5
:10159000D080F1E0F983B9CFEE24FF24870120E069
:1015A00030E040E050E0D9CF2F923F924F925F92CF
:1015B0006F927F928F929F92AF92BF92CF92DF9263
:1015C0000F93DF93CF93CDB7DEB72C970FB6F89478
:1015D000DEBF0FBECDBFFC0160816D3209F49AC041
:1015E0001A82CF0101969C878B870F2EF0E02F2E59
:1015F000F0E03F2EF0E04F2EF0E05F2EF02D620184
:10160000510181E0682E712C812C912C19822DC002
:10161000C401B3012AE030E040E050E00E94971896
:101620003B014C01C601B50120E030E040E251E44D
:101630000E941F026B837C838D839E83602F70E0EA
:10164000882777FD8095982F0E9425049B01AC0187
:101650006B817C818D819E810E94F2015B016C0116
:10166000EB85FC856191FC87EB87662359F16E322F
:1016700031F1062F00530A3028F5A981AA2341F63B
:10168000C201B10120E030E040E251E40E941F02BB
:101690006F83788789879A87602F70E0882777FD26
:1016A0008095982F0E9425049B01AC016F8178855D
:1016B00089859A850E94F2011B012C01D1CF91E00E
:1016C0009983CECFC401B3010E9425049B01AC01D4
:1016D000C601B5010E941903A20191010E94F20105
:1016E000FA81F13009F490582C960FB6F894DEBFC9
:1016F0000FBECDBFCF91DF910F91DF90CF90BF9004
:10170000AF909F908F907F906F905F904F903F90A1
:101710002F9008953196608121E02A8362CF482F6F
:101720006AE00E94B618282F30E022953295307F6B
:101730003227207F3227842F0E94B618892F822BD0
:101740000895282F22952F709AE0299F9001112447
:101750008F70820F08955F926F927F928F929F9207
:10176000AF92BF92CF92DF92EF92FF920F931F93AF
:10177000CF93DF934B015C018A01622E20E030E0C1
:1017800040E050E00E94F50388230CF4DBC0C50163
:10179000B4010E9483046B017C010E9425049B011B
:1017A000AC01C501B4010E94C1014B015C01C1142F
:1017B000D104E104F10409F4CEC0F7FCDBC05524E8
:1017C0007724C701B6012AE030E040E050E00E94F3
:1017D000E418262F862F895C205DF801E70DF11DA6
:1017E0006A3071050CF0282F20837394C701B6016D
:1017F0002AE030E040E050E00E94E418C901DA013C
:101800006C017D01C114D104E104F104D1F655202D
:1018100009F0A9C0F801E70DF11D1082372D3150F4
:1018200079F020E0F801E20FF11D9081D801A30FBB
:10183000B11D8C9180832F5F9C933150231790F3BF
:10184000F8013196EF01D8018C91882311F407C07B
:1018500031968F0180818823D9F7E80121968EE2A5
:10186000F8018083662071F000E0C501B40120E03A
:1018700030E040E251E40E941F024B015C010F5F27
:10188000061598F3C501B40120E030E040E05FE3C5
:101890000E94F2010E9449006B017C0161157105F3
:1018A0008105910509F449C0BB241BC08E010B0DB5
:1018B000111DC701B6012AE030E040E050E00E946F
:1018C000C218605DD8016C93B394C701B6012AE0D9
:1018D00030E040E050E00E94C218C901DA016C011A
:1018E0007D01C114D104E104F10401F7B614F0F252
:1018F0003B2D315079F020E0FE01E20FF11D908187
:10190000DE01A30FB11D8C9180832F5F9C9331501A
:10191000231790F3CB0DD11D1882DF91CF911F912A
:101920000F91FF90EF90DF90CF90BF90AF909F907E
:101930008F907F906F905F90089580E38883BB24A1
:10194000B394CFCF8DE2D8018D938D01B7FAB094C7
:10195000B7F8B0941CCFF80180E38193EF01D80170
:1019600011961C9270CFF801E70DF11D8DE2808376
:10197000739450CFF094E094D094C094C11CD11CC7
:10198000E11CF11C552453941BCF8091D60208957D
:101990008091D70208950F931F93182F82E060E083
:1019A00041E00E94A007412F4295417082E062E031
:1019B0000E94A007412F42954695417082E063E066
:1019C0000E94A007412F429546954695417082E0BE
:1019D00064E00E94A007412F441F4427441F82E077
:1019E00065E00E94A00782E061E041E00E94A0075C
:1019F00003E0802F8A95F1F782E061E040E00E94E9
:101A0000A007802F8A95F1F7412F417082E062E0B4
:101A10000E94A007412F4695417082E063E00E943A
:101A2000A00716951695412F417082E064E00E9450
:101A3000A0071695117082E065E0412F0E94A00773
:101A400082E061E041E00E94A0070A95F1F782E0A0
:101A500061E040E00E94A00784E18A95F1F71F91C0
:101A60000F9108950F931F93182F82E060E040E0DC
:101A70000E94A007412F4295417082E062E00E94DF
:101A8000A007412F42954695417082E063E00E9495
:101A9000A007412F429546954695417082E064E04B
:101AA0000E94A007412F441F4427441F82E065E0A5
:101AB0000E94A00782E061E041E00E94A00703E0ED
:101AC000802F8A95F1F782E061E040E00E94A00754
:101AD000802F8A95F1F7412F417082E062E00E94E9
:101AE000A007412F4695417082E063E00E94A00765
:101AF00016951695412F417082E064E00E94A00780
:101B00001695117082E065E0412F0E94A00782E0E7
:101B100061E041E00E94A0070A95F1F782E061E0F0
:101B200040E00E94A00784E18A95F1F71F910F9190
:101B30000895EF92FF920F931F93CF93DF93EC01E1
:101B40000881002309F471C0FF2484E1E82E82E0BB
:101B500060E041E00E94A007402F4295417082E082
:101B600062E00E94A007402F42954695417082E0B6
:101B700063E00E94A007402F42954695469541702C
:101B800082E064E00E94A007402F441F4427441FC6
:101B900082E065E00E94A00782E061E041E00E94EF
:101BA000A00713E0812F8A95F1F782E061E040E021
:101BB0000E94A007812F8A95F1F7402F417082E0A3
:101BC00062E00E94A007402F4695417082E063E0EA
:101BD0000E94A00706950695402F417082E064E0C0
:101BE0000E94A0070695017082E065E0402F0E94E8
:101BF000A00782E061E041E00E94A0071A95F1F79A
:101C000082E061E040E00E94A0078E2D8A95F1F706
:101C10008091D7028F5F8093D702F394FE01EF0D7E
:101C2000F11D0081002309F092CFDF91CF911F9128
:101C30000F91FF90EF9008950F931F93182F82E05C
:101C400060E041E00E94A007412F4295417082E090
:101C500062E00E94A007412F42954695417082E0C4
:101C600063E00E94A007412F42954695469541703A
:101C700082E064E00E94A007412F441F4427441FD4
:101C800082E065E00E94A00782E061E041E00E94FE
:101C9000A00703E0802F8A95F1F782E061E040E041
:101CA0000E94A007802F8A95F1F7412F417082E0B2
:101CB00062E00E94A007412F4695417082E063E0F8
:101CC0000E94A00716951695412F417082E064E0AE
:101CD0000E94A0071695117082E065E0412F0E94D6
:101CE000A00782E061E041E00E94A0070A95F1F7B9
:101CF00082E061E040E00E94A00784E18A95F1F76C
:101D00008091D7028F5F8093D7021F910F91089522
:101D1000CF92DF92EF92FF920F931F93DF93CF93B7
:101D2000CDB7DEB72C970FB6F894DEBF0FBECDBF90
:101D30006E010894C11CD11CA6012AE00E94F00982
:101D40000981002309F471C0FF2494E1E92E82E0A7
:101D500060E041E00E94A007402F4295417082E080
:101D600062E00E94A007402F42954695417082E0B4
:101D700063E00E94A007402F42954695469541702A
:101D800082E064E00E94A007402F441F4427441FC4
:101D900082E065E00E94A00782E061E041E00E94ED
:101DA000A00713E0812F8A95F1F782E061E040E01F
:101DB0000E94A007812F8A95F1F7402F417082E0A1
:101DC00062E00E94A007402F4695417082E063E0E8
:101DD0000E94A00706950695402F417082E064E0BE
:101DE0000E94A0070695017082E065E0402F0E94E6
:101DF000A00782E061E041E00E94A0071A95F1F798
:101E000082E061E040E00E94A0078E2D8A95F1F704
:101E10008091D7028F5F8093D702F394F601EF0D84
:101E2000F11D0081002309F092CF2C960FB6F89493
:101E3000DEBF0FBECDBFCF91DF911F910F91FF90FD
:101E4000EF90DF90CF9008951F9382E060E040E034
:101E50000E94A00782E062E041E00E94A00782E0C9
:101E600063E040E00E94A00782E064E040E00E945E
:101E7000A00782E065E040E00E94A00782E061E008
:101E800041E00E94A00713E0812F8A95F1F782E0DC
:101E900061E040E00E94A007812F8A95F1F782E07F
:101EA00062E040E00E94A00782E063E040E00E9420
:101EB000A00782E064E041E00E94A00782E065E0C4
:101EC00041E00E94A00782E061E041E00E94A0079B
:101ED0001A95F1F782E061E040E00E94A00784E1FA
:101EE0008A95F1F78091D7028F5F8093D7021F9177
:101EF00008951F9382E060E040E00E94A00782E026
:101F000062E041E00E94A00782E063E040E00E94BE
:101F1000A00782E064E040E00E94A00782E065E064
:101F200040E00E94A00782E061E041E00E94A0073B
:101F300013E0812F8A95F1F782E061E040E00E9492
:101F4000A007812F8A95F1F782E062E040E00E94CD
:101F5000A00782E063E040E00E94A00782E064E026
:101F600040E00E94A00782E065E041E00E94A007F7
:101F700082E061E041E00E94A0071A95F1F782E05B
:101F800061E040E00E94A00784E18A95F1F780912A
:101F9000D702882319F081508093D7021F910895AA
:101FA0001F9382E060E040E00E94A00782E062E0D0
:101FB00040E00E94A00782E063E040E00E94A007AA
:101FC00082E064E040E00E94A00782E065E040E03B
:101FD0000E94A00782E061E041E00E94A00713E0B8
:101FE000812F8A95F1F782E061E040E00E94A0072E
:101FF000812F8A95F1F782E062E041E00E94A0071C
:1020000082E063E040E00E94A00782E064E040E0FC
:102010000E94A00782E065E040E00E94A00782E005
:1020200061E041E00E94A0071A95F1F782E061E0CB
:1020300040E00E94A00784E18A95F1F71092D60251
:102040001092D70284EF91E00197F1F71F91089564
:10205000EF92FF920F931F9382E060E041E00E94B5
:10206000CC0682E061E041E00E94CC0682E062E0C2
:1020700041E00E94CC0682E063E041E00E94CC0691
:1020800082E064E041E00E94CC0682E065E041E04D
:102090000E94CC0684ED90E30197F1F782E060E0C6
:1020A00040E00E94A00782E062E040E00E94A007BA
:1020B00082E063E040E00E94A00782E064E040E04C
:1020C0000E94A00782E065E040E00E94A00782E055
:1020D00061E041E00E94A00713E0812F8A95F1F7AB
:1020E00082E061E040E00E94A007812F8A95F1F72D
:1020F00082E062E040E00E94A00782E063E041E00D
:102100000E94A00782E064E040E00E94A00782E015
:1021100065E040E00E94A00782E061E041E00E94AB
:10212000A007812F8A95F1F782E061E040E00E94EC
:10213000A00704E1802F8A95F1F724EFE22E21E039
:10214000F22EC7010197F1F782E060E040E00E94C3
:10215000A00782E062E040E00E94A00782E063E026
:1021600041E00E94A00782E064E040E00E94A007F6
:1021700082E065E040E00E94A00782E061E041E08B
:102180000E94A007812F8A95F1F782E061E040E08C
:102190000E94A007812F8A95F1F782E062E040E07B
:1021A0000E94A00782E063E040E00E94A00782E076
:1021B00064E040E00E94A00782E065E041E00E9408
:1021C000A00782E061E041E00E94A007812F8A958C
:1021D000F1F782E061E040E00E94A007802F8A953D
:1021E000F1F782E060E040E00E94A00782E062E058
:1021F00040E00E94A00782E063E040E00E94A00768
:1022000082E064E040E00E94A00782E065E040E0F8
:102210000E94A00782E061E041E00E94A007812FB8
:102220008A95F1F782E061E040E00E94A007812FEB
:102230008A95F1F782E062E040E00E94A00782E028
:1022400063E040E00E94A00782E064E041E00E9479
:10225000A00782E065E041E00E94A00782E061E023
:1022600041E00E94A007812F8A95F1F782E061E0AA
:1022700040E00E94A007802F8A95F1F782E060E09D
:1022800040E00E94A00782E062E040E00E94A007D8
:1022900082E063E040E00E94A00782E064E040E06A
:1022A0000E94A00782E065E040E00E94A00782E073
:1022B00061E041E00E94A007812F8A95F1F782E05A
:1022C00061E040E00E94A007812F8A95F1F782E04B
:1022D00062E040E00E94A00782E063E041E00E94EB
:1022E000A00782E064E041E00E94A00782E065E090
:1022F00040E00E94A00782E061E041E00E94A00768
:10230000812F8A95F1F782E061E040E00E94A0070A
:10231000802F8A95F1F782E060E040E00E94A007FC
:1023200082E062E040E00E94A00782E063E040E0DB
:102330000E94A00782E064E040E00E94A00782E0E3
:1023400065E040E00E94A00782E061E041E00E9479
:10235000A007812F8A95F1F782E061E040E00E94BA
:10236000A007812F8A95F1F782E062E041E00E94A8
:10237000A00782E063E040E00E94A00782E064E002
:1023800040E00E94A00782E065E040E00E94A007D4
:1023900082E061E041E00E94A0071A95F1F782E037
:1023A00061E040E00E94A0070A95F1F7C70101979C
:1023B000F1F71F910F91FF90EF900895FF920F9307
:1023C0001F93CF93DF93EC01683030F0DF91CF9112
:1023D0001F910F91FF900895162F110F110F110FDC
:1023E000106482E060E040E00E94A007412F429527
:1023F000417082E062E00E94A007412F429546951D
:10240000417082E063E00E94A007412F429546950B
:102410004695417082E064E00E94A007412F441F6E
:102420004427441F82E065E00E94A00782E061E04B
:1024300041E00E94A00703E0802F8A95F1F782E037
:1024400061E040E00E94A007802F8A95F1F7412FBC
:10245000417082E062E00E94A00782E063E040E019
:102460000E94A00782E064E040E00E94A007169569
:1024700016951695117082E065E0412F0E94A00725
:1024800082E061E041E00E94A007802F8A95F1F789
:1024900082E061E040E00E94A00734E1F32E8F2D3E
:1024A0008A95F1F7188182E060E041E00E94A00780
:1024B000412F4295417082E062E00E94A007412FC7
:1024C00042954695417082E063E00E94A007412F4B
:1024D000429546954695417082E064E00E94A007CF
:1024E000412F441F4427441F82E065E00E94A0075B
:1024F00082E061E041E00E94A007802F8A95F1F719
:1025000082E061E040E00E94A007802F8A95F1F709
:10251000412F417082E062E00E94A007412F469562
:10252000417082E063E00E94A00716951695412F46
:10253000417082E064E00E94A0071695117082E06D
:1025400065E0412F0E94A00782E061E041E00E9427
:10255000A007802F8A95F1F782E061E040E00E94B9
:10256000A0078F2D8A95F1F7198182E060E041E0A4
:102570000E94A007412F4295417082E062E00E94D4
:10258000A007412F42954695417082E063E00E948A
:10259000A007412F429546954695417082E064E040
:1025A0000E94A007412F441F4427441F82E065E09A
:1025B0000E94A00782E061E041E00E94A007802F16
:1025C0008A95F1F782E061E040E00E94A007802F49
:1025D0008A95F1F7412F417082E062E00E94A007E6
:1025E000412F4695417082E063E00E94A007169556
:1025F0001695412F417082E064E00E94A007169575
:10260000117082E065E0412F0E94A00782E061E046
:1026100041E00E94A007802F8A95F1F782E061E0F7
:1026200040E00E94A0078F2D8A95F1F71A8182E081
:1026300060E041E00E94A007412F4295417082E096
:1026400062E00E94A007412F42954695417082E0CA
:1026500063E00E94A007412F429546954695417040
:1026600082E064E00E94A007412F441F4427441FDA
:1026700082E065E00E94A00782E061E041E00E9404
:10268000A007802F8A95F1F782E061E040E00E9488
:10269000A007802F8A95F1F7412F417082E062E018
:1026A0000E94A007412F4695417082E063E00E949E
:1026B000A00716951695412F417082E064E00E94B4
:1026C000A0071695117082E065E0412F0E94A007D7
:1026D00082E061E041E00E94A007802F8A95F1F737
:1026E00082E061E040E00E94A0078F2D8A95F1F71B
:1026F0001B8182E060E041E00E94A007412F4295EB
:10270000417082E062E00E94A007412F4295469509
:10271000417082E063E00E94A007412F42954695F8
:102720004695417082E064E00E94A007412F441F5B
:102730004427441F82E065E00E94A00782E061E038
:1027400041E00E94A007802F8A95F1F782E061E0C6
:1027500040E00E94A007802F8A95F1F7412F417039
:1027600082E062E00E94A007412F4695417082E01E
:1027700063E00E94A00716951695412F417082E0F4
:1027800064E00E94A0071695117082E065E0412F79
:102790000E94A00782E061E041E00E94A007802F34
:1027A0008A95F1F782E061E040E00E94A0078F2D5A
:1027B0008A95F1F71C8182E060E041E00E94A00769
:1027C000412F4295417082E062E00E94A007412FB4
:1027D00042954695417082E063E00E94A007412F38
:1027E000429546954695417082E064E00E94A007BC
:1027F000412F441F4427441F82E065E00E94A00748
:1028000082E061E041E00E94A007802F8A95F1F705
:1028100082E061E040E00E94A007802F8A95F1F7F6
:10282000412F417082E062E00E94A007412F46954F
:10283000417082E063E00E94A00716951695412F33
:10284000417082E064E00E94A0071695117082E05A
:1028500065E0412F0E94A00782E061E041E00E9414
:10286000A007802F8A95F1F782E061E040E00E94A6
:10287000A0078F2D8A95F1F71D8182E060E041E08D
:102880000E94A007412F4295417082E062E00E94C1
:10289000A007412F42954695417082E063E00E9477
:1028A000A007412F429546954695417082E064E02D
:1028B0000E94A007412F441F4427441F82E065E087
:1028C0000E94A00782E061E041E00E94A007802F03
:1028D0008A95F1F782E061E040E00E94A007802F36
:1028E0008A95F1F7412F417082E062E00E94A007D3
:1028F000412F4695417082E063E00E94A007169543
:102900001695412F417082E064E00E94A007169561
:10291000117082E065E0412F0E94A00782E061E033
:1029200041E00E94A007802F8A95F1F782E061E0E4
:1029300040E00E94A0078F2D8A95F1F71E8182E06A
:1029400060E041E00E94A007412F4295417082E083
:1029500062E00E94A007412F42954695417082E0B7
:1029600063E00E94A007412F42954695469541702D
:1029700082E064E00E94A007412F441F4427441FC7
:1029800082E065E00E94A00782E061E041E00E94F1
:10299000A007802F8A95F1F782E061E040E00E9475
:1029A000A007802F8A95F1F7412F417082E062E005
:1029B0000E94A007412F4695417082E063E00E948B
:1029C000A00716951695412F417082E064E00E94A1
:1029D000A0071695117082E065E0412F0E94A007C4
:1029E00082E061E041E00E94A007802F8A95F1F724
:1029F00082E061E040E00E94A0078F2D8A95F1F708
:102A00001F8182E060E041E00E94A007412F4295D3
:102A1000417082E062E00E94A007412F42954695F6
:102A2000417082E063E00E94A007412F42954695E5
:102A30004695417082E064E00E94A007412F441F48
:102A40004427441F82E065E00E94A00782E061E025
:102A500041E00E94A007802F8A95F1F782E061E0B3
:102A600040E00E94A007802F8A95F1F7412F417026
:102A700082E062E00E94A007412F4695417082E00B
:102A800063E00E94A00716951695412F417082E0E1
:102A900064E00E94A0071695117082E065E0412F66
:102AA0000E94A00782E061E041E00E94A0070A9531
:102AB000F1F782E061E040E00E94A007FA94F1F7AC
:102AC0008091D6029091D702823008F07FCC90316D
:102AD00008F07CCC882329F080EC890F0E94320D0D
:102AE00075CC80E8FACF0F931F93823018F01F91B6
:102AF0000F9108956031D8F78093D6026093D70282
:102B0000882309F463C010EC160F82E060E040E017
:102B10000E94A007412F4295417082E062E00E942E
:102B2000A007412F42954695417082E063E00E94E4
:102B3000A007412F429546954695417082E064E09A
:102B40000E94A00782E065E041E00E94A00782E0C9
:102B500061E041E00E94A00703E0802F8A95F1F731
:102B600082E061E040E00E94A007802F8A95F1F7A3
:102B7000412F417082E062E00E94A007412F4695FC
:102B8000417082E063E00E94A00716951695412FE0
:102B9000417082E064E00E94A0071695117082E007
:102BA00065E0412F0E94A00782E061E041E00E94C1
:102BB000A0070A95F1F782E061E040E00E94A007DB
:102BC00084E18A95F1F71F910F91089510E89CCF49
:102BD0004F925F926F927F928F929F92AF92BF922D
:102BE000CF92DF92FF920F931F93DF93CF9300D08A
:102BF00000D00F92CDB7DEB73C014B0161157105D6
:102C000009F475C019821A821B821C8281E08D83AF
:102C1000AA24BB2488E8C82E83E1D82E2E0108946C
:102C2000411C511C83E060E00E942608FF24882399
:102C300011F4FF24F39483E061E00E94260800E091
:102C4000882309F401E083E062E00E94260810E096
:102C5000882309F411E083E063E00E94260820E065
:102C6000882309F421E0C6010197F1F7802F8F0D29
:102C7000810F820F813061F08823D9F481E08D8348
:102C800083E060E00E942608FF248823A1F6D1CFCC
:102C90008D81813039F62C831B830A83F982F301FD
:102CA000EA0DFB1D8081F201E80FF11D808181306A
:102CB000B1F080E00F900F900F900F900F90CF9198
:102CC000DF911F910F91FF90DF90CF90BF90AF9059
:102CD0009F908F907F906F905F904F900895089491
:102CE000A11CB11C1D82A814B90408F49BCF81E07B
:102CF000E1CF8F929F92AF92BF92CF92DF92FF92DD
:102D00000F931F93CF93DF936C015B0161157105E6
:102D100079F100E010E0C9E1D0E058EA852E51E6F3
:102D2000952EF601E00FF11FE081E13091F1E130E5
:102D300058F534E0F32E83E06F2D41E00E94A007A8
:102D400020E030E0CE010197F1F72F5F3F4F83E2A3
:102D500028323807B9F783E06F2D40E00E94A007C2
:102D6000C4010197F1F70F5F1F4F0A151B05C8F249
:102D7000DF91CF911F910F91FF90DF90CF90BF9087
:102D8000AF909F908F900895E23031F097E0F92E48
:102D9000D2CF45E0F42ECFCF26E0F22ECCCF0E944A
:102DA00028100E94010980E00E94BB090E948C1932
:102DB0000E94460983E064E041E00E94CC0683E083
:102DC00065E041E00E94CC0683E066E041E00E94BD
:102DD000CC0683E067E041E00E94CC0683E060E03F
:102DE00042E00E94CC0683E061E042E00E94CC0613
:102DF00083E062E042E00E94CC0683E063E042E0D0
:102E00000E94CC0608952F923F924F925F926F924C
:102E10007F928F929F92AF92BF92CF92DF92EF926A
:102E2000FF920F931F93DF93CF93CDB7DEB7E79752
:102E30000FB6F894DEBF0FBECDBF95E0492E512CE2
:102E40004C0E5D1E82E3F20111928A95E9F70E9411
:102E5000871983708D8382E0682E712CEE241E0109
:102E60000894211C311C09E1C02ED12C18E8812EB8
:102E700013E1912E0E94D00F80E064E00E94731550
:102E800080E690E00E94990D830101501040B80146
:102E900080E090E00E94880E0E948719040D151DA5
:102EA0008370F80180836114710409F40DC100E09E
:102EB00010E0F201E00FF11FE081E13009F4FEC003
:102EC000E13008F0F6C0F4E0FF2E83E06F2D41E022
:102ED0000E94A00720E030E0C6010197F1F72F5FC4
:102EE0003F4FF3E228323F07B9F783E06F2D40E010
:102EF0000E94A00788EA91E60197F1F70F5F1F4F44
:102F000006151705B0F219821A821B821C8281E015
:102F10008FABAA24BB2483E060E00E942608FF2434
:102F2000882311F4FF24F39483E061E00E942608D3
:102F300010E0882309F411E083E062E00E94260893
:102F400000E0882309F401E083E063E00E942608A2
:102F500020E0882309F421E0C4010197F1F7812FD3
:102F60008F0D800F820F813069F0882309F09CC09B
:102F7000E1E0EFAB83E060E00E942608FF248823B5
:102F800099F6D0CFFFA9F13031F62C830B831A8349
:102F9000F982F201EA0DFB1D8081F101E80FF11DBC
:102FA00080818130D1F10E94871983708D830E94C6
:102FB000D00F80E062E00E94731587E690E00E94E7
:102FC000990D81E061E00E94731584E790E00E9412
:102FD000990D20E030E0C6010197F1F72F5F3F4FD8
:102FE000F3E128383F07B9F70E94D00F80E063E093
:102FF0000E9473158CEA90E00E94990D20E030E069
:10300000C6010197F1F72F5F3F4F83E1283838075A
:10301000B9F7B2E06B2E712C2DCF0894A11CB11C16
:103020001FAAA614B70408F476CF0894611C711C7B
:1030300082E36816710409F04EC00E9487198370FC
:103040008D830E94D00F80E063E00E94731581E8B9
:1030500090E00E94990D81E061E00E9473158CE878
:1030600090E00E94990D20E030E0C6010197F1F751
:103070002F5F3F4FE7E220313E07B9F70E94D00FA4
:1030800080E060E00E9473158BE990E00E94990D4A
:1030900020E030E0C6010197F1F72F5F3F4FF7E2E4
:1030A00020313F07B9F7B5CF2C830B831A83F98200
:1030B0007ACFE23031F077E0F72E07CFA5E0FA2E95
:1030C00004CFE6E0FE2E01CF19821A821B821C82F9
:1030D00061E0662E712C0E94D00F80E060E00E94BB
:1030E000731502E2E09E80011124C8018D539E4FAA
:1030F0000E94990D81E060E00E947315C8018C5216
:103100009E4F0E94990D20E030E0C6010197F1F733
:103110002F5F3F4F87E220313807B9F7E394E7E0AC
:10312000EE22A8CE0E94CF160E940317FFCF629F07
:10313000D001739FF001829FE00DF11D649FE00DAF
:10314000F11D929FF00D839FF00D749FF00D659F10
:10315000F00D9927729FB00DE11DF91F639FB00D0F
:10316000E11DF91FBD01CF0111240895991B79E0DC
:1031700004C0991F961708F0961B881F7A95C9F707
:1031800080950895A1E21A2EAA1BBB1BFD010DC05C
:10319000AA1FBB1FEE1FFF1FA217B307E407F50707
:1031A00020F0A21BB30BE40BF50B661F771F881FE3
:1031B000991F1A9469F760957095809590959B0179
:1031C000AC01BD01CF01089597FB092E05260ED055
:1031D00057FD04D0D7DF0AD0001C38F45095409535
:1031E000309521953F4F4F4F5F4F0895F6F79095DB
:1031F0008095709561957F4F8F4F9F4F08952F92C7
:103200003F924F925F926F927F928F929F92AF9276
:10321000BF92CF92DF92EF92FF920F931F93CF93C3
:10322000DF93CDB7DEB7CA1BDB0B0FB6F894DEBF5A
:103230000FBECDBF09942A88398848885F846E8480
:103240007D848C849B84AA84B984C884DF80EE80CA
:10325000FD800C811B81AA81B981CE0FD11D0FB6D3
:10326000F894DEBF0FBECDBFED010895A0E0B0E041
:10327000ECE3F9E10C940719EC01A880B980CA804D
:10328000DB80A114B104C104D10441F484E2A82E6E
:1032900089EDB82E8BE5C82E87E0D82EC601B50182
:1032A0002DE133EF41E050E00E94E41827EA31E4D9
:1032B00040E050E00E9497187B018C01C601B501E7
:1032C0002DE133EF41E050E00E94E418CA01B9015A
:1032D0002CEE34EF4FEF5FEF0E9497186E0D7F1DBD
:1032E000801F911F97FF04C061507040804090483C
:1032F000688379838A839B839B013F77C901CDB71C
:10330000DEB7EAE00C9423190E94361908958FEB7A
:1033100091E00E9436190895A0E0B0E08093BF01CB
:103320009093C001A093C101B093C2010895F89495
:02333000FFCFCD
:103332004C4556454C200057524F4E472043484F6C
:103342004943450047414D45204F564552203A28B2
:10335200004D4158204C4556454C2100594F5520AF
:1033620042524F4B4520495421210057524150208F
:10337200544F204C564C2031203A28005472792068
:10338200416761696E21000000000000000000003A
:1033920001020203030303040404040404040405F5
:1033A20005050505050505050505050505050506CA
:1033B20006060606060606060606060606060606AB
:1033C200060606060606060606060606060606079A
:1033D200070707070707070707070707070707077B
:1033E200070707070707070707070707070707076B
:1033F200070707070707070707070707070707075B
:103402000707070707070707070707070707070849
:10341200080808080808080808080808080808082A
:10342200080808080808080808080808080808081A
:10343200080808080808080808080808080808080A
:1034420008080808080808080808080808080808FA
:1034520008080808080808080808080808080808EA
:1034620008080808080808080808080808080808DA
:1034720008080808080808080808080808080808CA
:1034820008080808080808080808080808080801C1
:103492000000002020204C4556454C20555021214B
:1034A2002020200020204B45455020474F494E47C1
:1034B20021212020002020204E49434520574F52F1
:1034C2004B2120202000204E455854204F4E4520AD
:1034D2004148454144200020594F55204C4556450E
:1034E2004C4544205550200020205354415920532C
:1034F200484152502121202000414456414E43452B
:10350200204D4F4445204F4E2100444F4E2754201A
:103512004C4F4F4B204241434B2100202020475229
:10352200454154204A4F4221202020004E4F57202F
:1035320049542753204841524445522100204C4FC0
:103542004F4B20544F205245434F524420002020DD
:103552005354415920464F4355534544202000437C
:103562004C494D42494E472048494748455221005F
:10357200205354494C4C204E4F54204F5645522014
:10358200004E455854204C4556454C205245414426
:10359200590043414E20594F5520535552564956D2
:0435A200453F0000A1
:00000001FF
